:020000040800F2
:10000000C00B0020311900087502000877020008B3
:100010007B0200087F020008830200080000000045
:10002000000000000000000000000000870200083F
:1000300089020008000000008B0200088D02000801
:100040004B1900084B1900084B1900084B19000800
:100050004B1900084B1900084B1900084B190008F0
:100060004B1900084B1900084B1900084B190008E0
:100070004B1900084B1900084B1900084B190008D0
:100080004B1900084B1900084B1900084B190008C0
:100090004B1900084B1900084B1900084B190008B0
:1000A0004B1900084B1900084B1900084B190008A0
:1000B0004B190008CB0400084F0900084B19000831
:1000C0004B1900084B1900084B1900084B19000880
:1000D0004B190008951700084B1900084B19000828
:1000E0004B1900084B1900084B19000800F002F8E2
:1000F00000F090F80AA090E8000C82448344AAF132
:100100000107DA4501D100F085F8AFF2090EBAE82F
:100110000F0013F0010F18BFFB1A43F0010318473B
:10012000A4580000C4580000103A24BF78C878C111
:10013000FAD8520724BF30C830C144BF04680C60ED
:10014000704700000023002400250026103A28BF35
:1001500078C1FBD8520728BF30C148BF0B60704739
:100160006E2903F04283702903F0B981662905F0F6
:10017000B283652905F0AF83672905F0AC83612957
:10018000AFF3008003681B0A28BF41F08001692992
:1001900003F02A81642903F02781752903F0248163
:1001A0006F2903F01384782903F08581E92903F08E
:1001B000AD83E42903F0AA83F52903F0A783EF298F
:1001C00003F01084F82903F084810368DB0928BF59
:1001D00041F08001632903F06B86732903F0708678
:1001E000E32903F07B86F32903F080860020704723
:1001F0001FB503F0D1FE04000020002104F0B4FB81
:10020000401C60600020002104F098FBE0601FBDEE
:1002100010B510BD03F092FE1146FFF7E9FF00F0A4
:1002200009F803F06BFF03B4FFF7F2FF03BC01F022
:1002300063FB000001F044FA4FF4A06001F098FB6A
:100240004FF4165001F0D5FA00F0C9FF00F060FA43
:1002500000F094FE01200649086000F038FB00F031
:100260004CFA04E0132001F068FA00F0E1FEF9E72F
:10027000BC012142704700BFFEE700BFFEE700BFA0
:10028000FEE700BFFEE77047704770477047000009
:100290000CB50020019000906C48006840F480305C
:1002A0006A49086000BF6948006800F400300090A7
:1002B0000198401C0190009818B90198B0F5A06F02
:1002C000F1D16248006800F4003010B101200090C4
:1002D00001E0002000900098012843D15C480068AC
:1002E00040F010005A4908600846006820F00300FA
:1002F00008600846006840F0020008605348406803
:10030000524948600846406848600846406840F4E2
:10031000806048600846406820F47C1048600846C9
:10032000406840F4E81048600846006840F080707B
:10033000086000BF4548006800F000700028F9D050
:100340004248406820F00300404948600846406841
:1003500040F00200486000BF3C48406800F00C00DC
:100360000828F9D10CBD10B5FFF792FF10BD10B5EC
:100370003648006840F0010034490860084640688B
:10038000344908403149486008460068324908400D
:100390002E4908600846006820F48020086008465E
:1003A000406820F4FE0048604FF41F008860FFF7AB
:1003B000DAFF4FF000602949086010BD10B5002138
:1003C00000200022214B5B6803F00C0121B10429BD
:1003D00006D0082928D107E0214B224C236027E0D2
:1003E0001F4B204C236023E0184B5B6803F4701014
:1003F000164B5B6803F48032022303EB904022B972
:10040000194B4343174C23600DE0104B5B6803F41A
:10041000003323B1144B4343124C236003E0104BD1
:100420004343104C236003E00D4B0E4C236000BF90
:1004300000BF064B5B68C3F303130C4CE15C094B34
:100440001B68CB40074C236010BD00000010024029
:10045000002002400000FFF8FFFFF6FE08ED00E07C
:1004600000127A000C00002000093D00100000205E
:100470007FB505460C460121022001F010FEADF8C3
:100480000850ADF804400020ADF80A00ADF80600B1
:1004900001A9384801F02EFF01221146354802F02B
:1004A000A0FA1D208DF8000000208DF80100032027
:1004B0008DF8020001208DF80300684601F05DFA16
:1004C00001212C4802F072FA7FBD10B501212948A4
:1004D00002F035FD58B10121264802F041FD2648C1
:1004E000006808B9012000E000202349086010BD21
:1004F00030B589B005460C460121022001F0CFFD40
:100500000121092001F0BEFD01211C4801F0CFFBB3
:100510002020ADF8200018208DF8230003208DF84E
:10052000220008A9164801F0F1FAADF81850ADF80C
:1005300014400020ADF81A00ADF8160005A90D48CA
:1005400001F0D8FE7020ADF804000120ADF80600DF
:100550000020ADF80C0001A9064801F04AFF08216F
:10056000044802F05CFB0121024802F01FFA09B0C6
:1005700030BD0000000400409401234200081A002E
:10058000000C014000B587B00121042001F07AFD84
:100590000121084601F083FD0320ADF81800042076
:1005A0008DF81B0003208DF81A0006A9564801F0AB
:1005B000ADFA4FF0804001F0C9FD03A802F0C6F982
:1005C0000020ADF80C00ADF8120047F6FF70ADF852
:1005D00010000020ADF80E0003A94FF0804001F09C
:1005E00089FE0A231A460321580702F092FA684648
:1005F00002F0BFF90020ADF800000120ADF80400C2
:100600000020ADF806000620ADF808000420ADF883
:1006100000000120ADF804000020ADF8060006201F
:10062000ADF8080069464FF0804002F0F6F843F656
:1006300098214FF0804002F04DFC0121880702F024
:10064000B5F907B000BD00B587B00121042001F065
:1006500019FD0121022001F022FDC020ADF8180093
:1006600004208DF81B0003208DF81A0006A92648E7
:1006700001F04CFA254801F069FD0020ADF80C00AE
:10068000ADF812004FF6FF70ADF810000020ADF885
:100690000E0003A91D4801F02DFE0A231A4603216E
:1006A0001A4802F036FA684602F063F90020ADF805
:1006B00000000120ADF804000020ADF8060006207F
:1006C000ADF808000420ADF800000120ADF80400EA
:1006D0000020ADF806000620ADF8080069460B487A
:1006E00002F09BF843F69821084802F0F3FB012141
:1006F000064802F05BF907B000BD10B5FFF742FFF6
:10070000FFF7A1FF10BD00000008014000040040F9
:1007100008B50121042001F0B5FC4FF41060ADF8DC
:10072000000018208DF8030003208DF802006946B0
:100730006D4801F0EBF908BD00B587B0012140F626
:10074000040001F09FFC41F61F40ADF814000020AA
:10075000ADF81600ADF81200ADF8100004A963481A
:1007600001F0C8FD6020ADF800000020ADF80800E1
:100770004FF4C870ADF806000120ADF802006946DC
:100780005A4801F0CEFE0821584802F05EFA602077
:10079000ADF800000020ADF808004FF4C870ADF8C7
:1007A00006000120ADF802006946504801F0DFFD67
:1007B00008214E4802F02AFA01214C4802F0F6F9CD
:1007C00001214A4802F0F2F80121484802F0FAF803
:1007D00007B000BD08B50121082001F053FC4FF41B
:1007E0007040ADF8000010208DF8030003208DF854
:1007F000020069463E4801F089F94FF470413C48D7
:1008000001F033FA08BD10B54FF48051384801F0BB
:100810002AFA4FF40051364801F027FA10BD10B5FE
:100820004FF48051324801F020FA4FF40051304823
:1008300001F019FA10BD10B54FF440512C4801F0E9
:1008400014FA10BD10B54FF40041294801F00BFA1D
:100850004FF48041264801F008FA10BD10B54FF45E
:100860000041234801F001FA4FF48041204801F093
:10087000FAF910BD10B54FF440411D4801F0F5F9EB
:1008800010BD08B501210C2001F0FCFB4FF4004025
:10089000ADF8000010208DF8030003208DF8020051
:1008A0006946114801F032F94FF400410E4801F059
:1008B000DCF98020ADF8000010208DF80300032043
:1008C0008DF8020069460A4801F020F908BD10B50C
:1008D000FFF71EFFFFF730FFFFF77CFFFFF7ABFFCF
:1008E000FFF7C8FF10BD000000080140002C0140C8
:1008F000000C01407FB505460C460121042001F0A3
:10090000CEFBADF80450ADF800400020ADF8060075
:10091000ADF802006946FE4801F0ECFC01221146E8
:10092000FB4802F05EF80121F94802F03FF81E2072
:100930008DF80C0000208DF80D0002208DF80E00BF
:1009400001208DF80F0003A801F017F87FBD10B546
:100950000121EF4802F0F3FA68B1EE48008840F454
:100960000040EC4908800121E94802F0F9FA002131
:10097000E74802F01BF810BD2DE9F04781468A4692
:100980001446E54E0021204604F030FF074631466C
:10099000384604F023FE0546E048006804F0D2FD26
:1009A0008046294604F082FC0546284604F0AEFD48
:1009B000BDE8F0872DE9FF5F04468946DFF860A3B4
:1009C000D849504604F0E0FC834604EB0901084690
:1009D00004F0B8FDD4490860D448006804F03AFC3B
:1009E00007464FF06632D24B04F04CFA054603F04E
:1009F000D1FFCE490860CC48006804F02BFC4FF0D2
:100A00003332CC4BCDE9000104F03CFA05460E46EA
:100A1000C648006804F01EFC07462A46334603F029
:100A2000EBFFCDE9020103F0B5FFC04908600846BD
:100A30000168C148006804F039FCBF490860BF483C
:100A4000006804F07FFD0546BB480168284604F0B5
:100A5000C2FEB9490860BA49B748006804F08AFE86
:100A600002D2B748B4490860B649B348006804F0F8
:100A700081FD02D2B348B04908605946AE480068CB
:100A800004F0ACFD05465146A848006804F0A6FDF8
:100A90000646294604F00AFCAB490860084600688F
:100AA00004F034FD04B0BDE8F09F2DE9F84F054691
:100AB0000C46A64EA64F0021284604F097FE009053
:100AC0003946204604F08AFD82463046009904F0FB
:100AD00085FD8346514604F0E9FB814604F016FD8E
:100AE00080464046BDE8F88F0146002901DA4842B9
:100AF00000E00846704741F6641096490968424292
:100B0000914202DA4142934A116092490968814256
:100B100001DD90490860904909684242914202DA39
:100B200041428D4A11608C490968814201DD8A4940
:100B30000860704770B505468849284604F01AFEDB
:100B400004D38749284604F015FD0ED200208549BC
:100B500008608549C1F8A001824910390860FFF793
:100B600089FEFFF768FE012400E00024204670BDE6
:100B70002DE9F04F93B006460D467C4FDFF8F0812B
:100B8000DFF8F09138461290012011904FF0000AE2
:100B90000020109000240F900E900D900C900B9060
:100BA0000A900690079008900990734B0FCBCDE9FF
:100BB0000423CDE902015146284604F017FE3946C8
:100BC000019004F00BFD83466C480168584604F020
:100BD0006DFB6A4908603846039904F007FE8346B6
:100BE000049904F003FE0690059880F000400790F9
:100BF000059880F000400890CDF82480394606988A
:100C000004F0ECFC8346029904F050FB0290394654
:100C1000079804F0E3FC8346039904F047FB039034
:100C20003946089804F0DAFC8346049904F03EFB48
:100C300004903946099804F0D1FC8346059904F0E4
:100C400035FB05904D480168304604F0CFFD10900B
:100C50004FF07E50029904F0C1FC04464FF07E50E4
:100C6000049904F0BBFC0F9021464FF07E5004F035
:100C7000B5FC8346494604F019FB0E9020460E99B8
:100C800004F082FB0D90DDE90E1004F07DFB0C906A
:100C90000B944FF07E50039904F0A0FC0A900B993E
:100CA0000D9804F09BFC8346029904F094FD029099
:100CB0000A990D9804F092FC8346039904F08BFD89
:100CC0000390DDE90B1004F089FC8346049904F0DD
:100CD00082FD04900A990C9804F080FC83460599E3
:100CE00004F079FD059010990D9804F077FC834687
:100CF00022480168584604F0D9FA20490860109942
:100D00000C9804F06BFC8346514604F0CFFA37E0B0
:100D10000008004090000020000010C16400002086
:100D20000000C842000048438000002084000020EA
:100D30006666E63F3333D33F880000206000002022
:100D400000401C4600401CC67C00002000005C43A4
:100D50000000084178000020740000200000F041ED
:100D60000000F0C1BC012142000021420AD7233C0F
:100D7000CDCC4C3F00007041DC580008340000200E
:100D800082465146284604F031FDAF49086013B051
:100D9000BDE8F08F2DE9F05FAC4AAD49AD4800F0F9
:100DA000E8FAAD4AAD49AE4800F0BBFAA848008861
:100DB000783800B2A64908800846B0F9000004F06F
:100DC000C1FB04464FF08D4104F0DEFAA5490860EE
:100DD0000846006804F03EFA80464FF03332A24BDA
:100DE00004F050F806460022A04B04F04BF80446ED
:100DF0009F4AA04B03F0A8FE824603F0CBFD994921
:100E000008609748B0F90000401D04F024F8064639
:100E10004FF06632984B03F097FE044603F0BAFD9C
:100E2000964908608C48B0F90000401D04F013F8A2
:100E300006464FF06632904B03F086FE044603F000
:100E4000DBFF00B2844908808C480168854800684F
:100E5000FFF78EFEBDE8F09F10B54FF0804002F026
:100E60005CF887490860096843F69822501AC11750
:100E700000EB91718910824A1160824802F04DF8AE
:100E8000814908600968A1F568509838C11700EBDE
:100E9000917189107C4A116043F698214FF080408F
:100EA00002F018F843F69821764802F013F810BDC6
:100EB00010B56548016875480068FFF7F6FD74498C
:100EC00008606F48016870480068FFF773FD71495A
:100ED00008606148B0F9000004F034FB0446224683
:100EE0006748016868480068FFF746FD6A4908607E
:100EF0006748006867490968084467490968084401
:100F000066490860624800686249096808446249A5
:100F10000968401A6249086010BD70B505460C4664
:100F2000002D02DCFFF77BFC01E0FFF76CFC28469C
:100F3000FFF7DAFD86B231465A4801F0D5FF002CA2
:100F400002DCFFF78BFC01E0FFF77CFC2046FFF79B
:100F5000CBFD86B23146534801F0C0FF70BD10B5DD
:100F6000FFF7C9FD49480068FFF7E4FD28B94C4880
:100F700001684A480068FFF7D0FF10BD08B501219D
:100F8000084601F07FF80121042001F07BF80121DF
:100F9000454800F08CFE4FF46040ADF8000003209F
:100FA0008DF8020010208DF8030069463F4800F0DC
:100FB000ADFD08BD3E48008800F40040002836D052
:100FC0003B4800883B49087000203B49394A127869
:100FD0008854084600783949086008460068302877
:100FE00004D100203649086036490860334800685B
:100FF000312803D16FF01100314908602F48006893
:10100000322802D112202E4908602C48006833286B
:1010100002D12D482B49086028480068342803D1A4
:101020004FF4487027490860002021490880704724
:1010300010B5FFF7BFFFFFF7ADFEFFF70DFFFFF79E
:1010400037FFFFF78CFF10BD3C000020240000207C
:101050002200002020000020300000202E00002070
:101060002C000020280000203333F33F008066402E
:101070001F85EB51B81E09406666304038000020DD
:1010800054000020000400405000002034000020E4
:1010900044000020480000204C0000207800002080
:1010A00074000020002C01400002300000080140C4
:1010B0009000002008000020AC000020000000206C
:1010C0006000002064000020E0FCFFFF70B50546D2
:1010D0000C4600F0C8F9D02000F081FA00F008FAC0
:1010E00018B100F0E2F9012070BD284600F077FA4F
:1010F00000F0FEF9204600F072FA00F0F9F918B19C
:1011000000F0D3F90120EFE700F0CFF90020EBE782
:1011100070B504460025BC2C01DB012510E0622CD3
:1011200001DB02250CE02A2C01DB032508E0142C4E
:1011300001DB042504E00A2C01DB052500E006257F
:1011400029461A20FFF7C2FF70BD70B50446B4F5FA
:101150007A7F01DD4FF47A74042C00DA04244FF412
:101160007A7090FBF4F0401EC5B229461920FFF7B3
:10117000ADFF0546264604EBD671C1F34F00FFF7DD
:10118000C7FF70BD70B5044600F06DF9D02000F0C7
:1011900026FA00F0ADF9204600F021FA00F0A8F997
:1011A00000F061F9D12000F01AFA00F0A1F9002056
:1011B00000F04BFA054600F078F9284670BD10B5EE
:1011C0000446E006010E1C20FFF780FF10BD10B59D
:1011D0000446E006010E1B20FFF778FF10BD10B596
:1011E00000F028F980216B20FFF770FF642000F0E9
:1011F000A4FA00216B20FFF769FF0320FFF7E7FF48
:101200000020FFF7DCFF3220FFF79FFF002138208E
:10121000FFF75CFF00216A20FFF758FF0021232021
:10122000FFF754FF80213720FFF750FF7520FFF7AD
:10123000A9FF0446682C0BD101216B20FFF746FF64
:1012400000216C20FFF742FF3220FFF77EFF01E014
:10125000012010BD0020FCE72DE9F04106460F46B5
:1012600014461D4600F0FFF8002141EA4601C8B2CD
:1012700000F0B5F900F03CF920B100F016F90120BA
:10128000BDE8F081384600F0AAF900F031F900F02D
:10129000EAF8012101EB4601C8B200F0A0F900F024
:1012A00027F90DE0012C04D1002000F0CEF92870C0
:1012B00003E0012000F0C9F92870601EC4B26D1C63
:1012C000002CEFD100F0F1F80020D9E72DE9F84F1C
:1012D0006B46022241216820FFF7BEFF9DF8010006
:1012E0009DF8001040EA01200FFA80FA504603F002
:1012F000B2FD804600224B4B03F026FC06464A4ACC
:101300004A4B03F079FB044603F044FB834648490B
:10131000584604F063F9044604F0F8F800B2BDE85A
:10132000F88F2DE9FC4104460D4616466B46062211
:1013300043216820FFF790FF0746BFB99DF80100E1
:101340009DF8001040EA012000B220809DF80300C3
:101350009DF8021040EA012000B228809DF80500A7
:101360009DF8041040EA012000B230803846BDE804
:10137000FC812DE9FC4104460D4616466B460622CB
:101380003B216820FFF768FF0746BFB99DF80100C1
:101390009DF8001040EA012000B220809DF8030073
:1013A0009DF8021040EA012000B228809DF8050057
:1013B0009DF8041040EA012000B230803846BDE8B4
:1013C000FC812DE9F04105460E461746984600F08F
:1013D0004AF8002141EA4501C8B200F000F900F0E6
:1013E00087F820B100F061F80120BDE8F0813046B7
:1013F00000F0F5F800F07CF800240CE018F8040088
:1014000000F0EDF800F074F818B100F04EF801208B
:10141000EBE7601CC4B2BC42F0DB00F046F80020F1
:10142000E3E7000000407540A4703D0AD743424006
:101430000000C84208B50121082000F023FE4FF447
:101440004060ADF8000010208DF8030003208DF8F7
:1014500002006946974800F059FB4FF440619548F7
:1014600000F001FC08BD10B59248001D006820F492
:1014700070409049091D08600846006840F44050DB
:10148000086001208C4908608C49C1F8A80104203B
:1014900000F02FF9002088490860042000F029F9A5
:1014A00000208649C1F8A80110BD10B58148001D73
:1014B000006820F470407F49091D086008460068F4
:1014C00040F44050086000207B49091F08607B49B8
:1014D000C1F8AC01042000F00CF901207649091F85
:1014E00008607649C1F8AC01042000F002F910BD93
:1014F00010B500246F48001D006820F470406D494D
:10150000091D08600846006840F40040086001209A
:101510006949086000F0EDF801206849C1F8A801A8
:1015200000F0E7F807E0601CC4B2FA2C03DDFFF717
:10153000BCFF012010BD6048803800680028F2D14F
:101540005D49091F086000BFF4E710B500205A4943
:10155000091F08605748001D006820F47040554975
:10156000091D08600846006840F4405008600020EB
:101570005249C1F8AC01022000F0BBF801204E49ED
:10158000091F0860022000F0B4F800204B49C1F8A0
:10159000A80110BD10B500204749091F0860454843
:1015A000001D006820F470404249091D086008468B
:1015B000006840F44050086001204049C1F8AC0187
:1015C000022000F096F801203B49091F0860022024
:1015D00000F08FF800203949C1F8A80110BD70B59E
:1015E00004463448001D006820F470403149091D4C
:1015F00008600846006840F44050086000202E490A
:10160000091F086000251DE0E00918B101202A49E2
:10161000086002E00020284908606006040E0220ED
:1016200000F067F801202449091F0860022000F03B
:1016300060F800202149C1F8A801022000F059F803
:10164000681CC5B2082DDFDB70BD70B505460024EF
:101650001848001D006820F470401649091D0860F4
:101660000846006840F400400860002617E00020AB
:101670001149091F0860022000F03BF801200F49C2
:10168000C1F8A8016006040E0B488038006808B154
:10169000601CC4B2012000F02CF8701CC6B2082EE9
:1016A000E5DB15B9FFF776FF01E0FFF74EFF2046B7
:1016B00070BD0000000C0140AC812142008021423D
:1016C00010B56FF0040000F0A2F92E4800682E4912
:1016D000B0FBF1F02D4908700846007800EB40019E
:1016E000C1EBC0104FF6FF7101EAC0002849088025
:1016F00010BD0146254A12784A434FF0E0235A6153
:1017000000229A611A46126942F001021A6100BF72
:101710004FF0E022106900F001021AB100F48032AB
:10172000002AF5D04FF0E022126922F001024FF0BA
:10173000E0231A6100229A6170470146144A128818
:101740004A434FF0E0235A6100229A611A46126917
:1017500042F001021A6100BF4FF0E022106900F070
:1017600001021AB100F48032002AF5D04FF0E022D5
:10177000126922F001024FF0E0231A6100229A61FF
:10178000704700000C00002000127A008C0000203E
:101790008E00002010B540F225515F4801F0A4FDF5
:1017A000F8B15D4801F020FDC4B25C48008800F447
:1017B0000040B0B959480088B0F5167F12DA002110
:1017C000574801F087FB5548008818B90121544853
:1017D00001F0ECF851490888411C504A11805149E8
:1017E0000C5405E04D48008840F400404B49088007
:1017F00010BD10B586B004460121042000F042FC63
:101800000121880300F03EFC434801F0ADFB4FF49A
:101810000070ADF8100003208DF8120018208DF82C
:10182000130004A9404800F071F94FF48060ADF84E
:10183000100004208DF8130004A93B4800F066F95D
:1018400000940020ADF80400ADF80600ADF80800E3
:10185000ADF80C000C20ADF80A0069462E4801F0E6
:10186000C6FB01212C4801F04EFC012240F225511B
:10187000294801F054FC25208DF8140002208DF831
:10188000150003208DF8160001208DF8170005A81B
:1018900000F073F841F61F416320FFF72BF800209A
:1018A0001E49088000211E4801F080F806B010BDD6
:1018B0000FB438B505A800901C48009A049901F0AF
:1018C00059FD00200090194801F0D8FE85B200248F
:1018D0000DE000BF4021104801F0F0FC0028F9D0D5
:1018E0001248015D0C4801F07BFC601C84B2AC42E4
:1018F000EFDB38BC5DF814FB014600BF704700BF4A
:10190000054A128802F04002002AF9D0C2B2024B06
:101910001B1D1A8070470000003801409000002015
:1019200000080040AC000020000801400403002033
:101930000948804709480047FEE7FEE7FEE7FEE763
:10194000FEE7FEE7FEE7FEE7FEE7FEE7044805499F
:10195000054A064B704700006F030008ED000008C1
:10196000C0050020C00B0020C0070020C0070020D9
:1019700031490143314A1160704770B5002100239D
:101980000F22C47804B32D4C246804F4E064C4F539
:10199000E064210AC1F10403CA40447804FA03F167
:1019A0008478144021430901254C0678A155047818
:1019B00004F01F050124AC4005786D11AD0005F160
:1019C000E025C5F8004109E0047804F01F05012472
:1019D000AC401C4D0678761145F8264070BD1A4A79
:1019E0000A400243154B1B1F1A60704739B1134A56
:1019F000121D12680243114B1B1D1A6006E00F4AAC
:101A0000121D126882430D4B1B1D1A60704704287B
:101A100008D14FF0E021096941F004014FF0E022C4
:101A2000116107E04FF0E021096921F004014FF056
:101A3000E0221161704700000000FA050CED00E0A3
:101A400000E400E080E100E080FFFF1F10B50446E5
:101A5000CC48844208D10121042000F02DFB002154
:101A6000042000F029FB46E0C748844208D1012148
:101A7000082000F021FB0021082000F01DFB3AE0C7
:101A8000C248844208D10121102000F015FB00213A
:101A9000102000F011FB2EE0BD48844208D1012146
:101AA000202000F009FB0021202000F005FB22E0AF
:101AB000B848844208D10121402000F0FDFA0021FD
:101AC000402000F0F9FA16E0B348844208D1012121
:101AD000802000F0F1FA0021802000F0EDFA0AE009
:101AE000AE48844207D10121801500F0E5FA0021BB
:101AF000A01500F0E1FA10BD10B50121084600F074
:101B0000DBFA0021012000F0D7FA10BD2DE9F041E9
:101B1000024600250026002000230024002791F81B
:101B200003C00CF00F0591F803C00CF0100CBCF1D1
:101B3000000F03D091F802C04CEA050591F800C0EF
:101B4000BCF1000F31D0146800202BE04FF0010CE5
:101B50000CFA00F3B1F800C00CEA03069E4220D153
:101B600083004FF00F0C0CFA03F7BC4305FA03FC9B
:101B70004CEA040491F803C0BCF1280F06D14FF0E1
:101B8000010C0CFA00FCC2F814C00AE091F803C082
:101B9000BCF1480F05D14FF0010C0CFA00FCC2F863
:101BA00010C0401C0828D1D31460B1F800C0BCF1AB
:101BB000FF0F34DD546800202EE000F1080C4FF0D8
:101BC000010808FA0CF3B1F800C00CEA03069E42C3
:101BD00021D183004FF00F0C0CFA03F7BC4305FA38
:101BE00003FC4CEA040491F803C0BCF1280F05D1B2
:101BF00000F1080C08FA0CF8C2F8148091F803C040
:101C0000BCF1480F07D100F1080C4FF0010808FAA9
:101C10000CF8C2F81080401C0828CED35460BDE8F0
:101C2000F0814FF6FF710180022181700421C170A3
:101C300070470246002093680B400BB1012000E082
:101C4000002070470146886880B270470246002035
:101C5000D3680B400BB1012000E000207047014623
:101C6000C86880B2704701617047416170470AB12E
:101C7000016100E041617047C16070474FF48032FC
:101C80000A4382618161826182698269704702468A
:101C90000020434B18684FF68073184040EA02104A
:101CA00008433F4B186070473E49C8617047F0B524
:101CB0000A46002300240021002500F00046B6F16A
:101CC000004F02D1364EF16901E0354E7168C0F324
:101CD000034583B200F44016B6F5401F08D121F049
:101CE00070612F4E766826F070662D4F7E6012E090
:101CF00000F48016B6F5801F06D1032606FA05F417
:101D0000A14341F0706106E0460D360103FA06F684
:101D1000B14341F0706122B1460D360103FA06F677
:101D2000314300F00046B6F1004F02D11C4EF16184
:101D300001E01B4E7160F0BD30B500228B071C0F17
:101D40000F2303FA04F2164B08338C1053F8243097
:101D50009343134C08348D1044F8253023468C10DF
:101D600053F824308C07240F00FA04F423430C4C5E
:101D700008348D1044F8253030BD0A49DC31086044
:101D80007047000000080140000C014000100140B5
:101D90000014014000180140001C014000200140D7
:101DA0000000014000002042DF48006840F00100D0
:101DB000DD49086008464068DC490840DA49486067
:101DC00008460068DA490840D749086008460068B4
:101DD00020F4802008600846406820F4FE00486037
:101DE0004FF41F0088607047CF49096821F48031A3
:101DF000CD4A11601146096821F480211160B0F5C7
:101E0000803F03D0B0F5802F0ED106E0C6490968A7
:101E100041F48031C44A116007E0C349096841F4C4
:101E2000A021C14A116000E000BF00BF704710B59B
:101E300001460022002300204A11012A02D1BA4C97
:101E4000236806E0022A02D1B74C236A01E0B64CAF
:101E5000636A01F01F02012494401C400CB1012070
:101E600000E0002010BD38B50020009000240025BF
:101E700000BF3120FFF7DBFF05460098401C0090B3
:101E80000098B0F5A06F01D0002DF2D03120FFF7FF
:101E9000CEFF08B1012400E00024204638BD0146F1
:101EA0000020A14A106820F0F80040EAC10010604C
:101EB0007047A04908607047024600209A4B586856
:101EC00020F47C1042EA01031843974B5860704796
:101ED00098490866704701460020934A506820F0F0
:101EE00003000843506070478F48406800F00C00C2
:101EF0007047014600208C4A506820F0F0000843EB
:101F00005060704701460020874A506820F4E06026
:101F100008435060704701460020834A506820F40F
:101F2000605040EAC1005060704729B17E4A527A41
:101F300002437D4B5A7204E07B4A527A82437A4BC9
:101F40005A7270477B49D8310860704701460020BB
:101F5000754A506820F440400843506070470021A3
:101F6000714A20321170704A82F82010012802D084
:101F700004280AD104E001216B4A2032117005E0E7
:101F80000521694A2032117000E000BF00BF704790
:101F90006949086070476449096A0143624A1162ED
:101FA0007047654944390860704730B50021002208
:101FB000002400235C4D6D6805F00C0121B104295B
:101FC00005D0082923D105E05C4D056022E05B4D7A
:101FD00005601FE0544D6D6805F47012524D6D6838
:101FE00005F48034022505EB92421CB9544D55434B
:101FF00005600BE04C4D6D6805F400351DB1504D8A
:102000005543056002E04D4D5543056002E04B4DE0
:10201000056000BF00BF444D6D6805F0F00109097F
:10202000484D6B5C0568DD4045603F4D6D6805F4CB
:10203000E061090A434D6B5C4568DD4085603A4DBF
:102040006D6805F46051C90A3E4D6B5C4568DD4022
:10205000C560354D6D6805F44041890B3A4D6B5CA8
:10206000C568B5FBF3F5056130BD29B12E4A52694B
:1020700002432D4B5A6104E02B4A526982432A4B9A
:102080005A61704729B1284A92690243264B9A61E6
:1020900004E0254A92698243234B9A61704729B133
:1020A000214AD2690243204BDA6104E01E4AD26918
:1020B00082431D4BDA61704729B11B4AD268024343
:1020C000194BDA6004E0184AD2688243164BDA6092
:1020D000704729B1144A12690243134B1A6104E094
:1020E000114A12698243104B1A61704712494039F4
:1020F000086070470F49C86470470B49C871704742
:102100000948406A40F080700749486270470146BC
:102110000020054A92680A400AB1012000E0002030
:102120007047014988727047001002400000FFF8B4
:10213000FFFFF6FE000042428004424200127A0095
:1021400000093D0098000020A800002010B50446BA
:10215000FE48844208D10121C014FFF7ADFF0021E1
:10216000E014FFF7A9FFC4E0B4F1804F08D10121CA
:102170000846FFF7AEFF00210120FFF7AAFFB8E0F5
:10218000F348844208D101210220FFF7A2FF002179
:102190000220FFF79EFFACE0EE48844208D1012107
:1021A0000420FFF796FF00210420FFF792FFA0E034
:1021B000E948844208D101210820FFF78AFF002165
:1021C0000820FFF786FF94E0E448844208D101210B
:1021D0001020FFF77EFF00211020FFF77AFF88E034
:1021E000DF48844208D101212020FFF772FF00213F
:1021F0002020FFF76EFF7CE0DA48844208D10121FD
:102200004014FFF759FF00216014FFF755FF70E0FD
:10221000D548844209D10121C804FFF74DFF0021B0
:102220004FF40020FFF748FF63E0D048844209D113
:1022300001210805FFF740FF00214FF48010FFF750
:102240003BFF56E0CA48844209D101214805FFF707
:1022500033FF00214FF40010FFF72EFF49E0C5487F
:10226000844208D101214020FFF733FF00214020A4
:10227000FFF72FFF3DE0C048844208D101218020B4
:10228000FFF727FF00218020FFF723FF31E0BB4845
:10229000844208D101218015FFF71BFF0021A01502
:1022A000FFF717FF25E0B648844209D10121080451
:1022B000FFF702FF00214FF48030FFF7FDFE18E02A
:1022C000B048844209D101214804FFF7F5FE0021FE
:1022D0004FF40030FFF7F0FE0BE0AB48844208D12A
:1022E00001218804FFF7E8FE00214FF48020FFF76A
:1022F000E3FE10BD00220288944B98420ED0994B09
:1023000098420BD0B0F1804F08D0914B984205D045
:10231000904B984202D0904B984204D14FF68F7365
:102320001A404B881A438D4B984207D08C4B9842E9
:1023300004D04FF6FF431A40CB881A4302808B88A3
:1023400083850B880385814B98420BD0854B98423F
:1023500008D08B4B984205D08A4B984202D08A4BCA
:10236000984201D10B7A038601238382704770B5AE
:10237000002400220023058C4FF6FE7635400584AC
:10238000028C8388048B4FF68F752C40B51E2C4031
:102390000D882C43751E2A400D892A434D882A43F7
:1023A0006A4DA8420BD06F4DA84208D0744DA84288
:1023B00005D0744DA84202D0734DA84213D14FF6F8
:1023C000F7752A404D892A434FF6FB752A408D88C0
:1023D0002A434FF6FF652B404FF6FF552B408D8962
:1023E0002B43CD892B4383800483CD88858602844B
:1023F00070BD70B5002400220023058C4FF6EF76E7
:1024000035400584028C8388048B48F6FF752C4088
:102410004FF6FF452C400D884FF6FF7606EA05255E
:102420002C434FF6DF752A400D8906EA05152A432D
:102430004D8806EA05152A43444DA84202D0494D6D
:10244000A8421DD14FF67F752A404D894FF6FF7681
:1024500006EA05152A434FF6BF752A408D8806EA1D
:1024600005152A434FF6FF352B404FF2FF752B40E1
:102470008D8906EA85052B43CD8906EA85052B4320
:1024800083800483CD880587028470BD70B50024E5
:1024900000220023058C4FF6FF6635400584028C30
:1024A0008388848B4FF68F752C404FF6FC752C403B
:1024B0000D882C434FF6FF552A400D894FF6FF76C5
:1024C00006EA05252A434D8806EA05252A431F4DBD
:1024D000A84202D0234DA8421DD14FF2FF752A40D9
:1024E0004D894FF6FF7606EA05252A434FF6FF355C
:1024F0002A408D8806EA05252A434EF6FF752B40B3
:102500004DF6FF752B408D8906EA05152B43CD89C5
:1025100006EA05152B4383808483CD888587028452
:1025200070BD70B5002200230024058C4EF6FF76A6
:1025300035400584038C8488828B48F6FF752A40D9
:102540004FF6FF452A400D8820E00000002C014096
:102550000004004000080040000C00400010004053
:102560000014004000340140004C01400050014084
:102570000054014000180040001C004000200040B2
:102580000040014000440140004801404FF6FF7602
:1025900006EA05252A434DF6FF752B400D8906EA0C
:1025A00005352B434D8806EA05352B43FA4DA842E5
:1025B00002D0FA4DA84208D14BF6FF752C408D8908
:1025C0004FF6FF7606EA85152C4384808283CD88FA
:1025D000A0F84050038470BD828B4FF2FF331A4045
:1025E0008283828B4FF6FF7303EA01231A438283AF
:1025F0007047F0B50C461546002200210026078CD6
:102600004EF6FF7C07EA0C070784828B018C4FF69D
:10261000FF7707EA043640F6FF473A404FF6FF7768
:1026200007EA05273A434FF6FF7707EA03373A43AD
:10263000D94FB8420ED0D94FB8420BD0B0F1804F2D
:1026400008D0D74FB84205D0D64FB84202D0D64FA7
:10265000B84206D14DF6FF77394046F480573943EA
:1026600005E047F6FF57394044F4805739438283E9
:102670000184F0BD828B4FF6F3731A408283828B04
:102680000A4382837047F0B50C46154600220021AC
:102690000026078C4FF6FF6C07EA0C070784828B35
:1026A000018C4FF6FF7707EA04264FF60C773A4085
:1026B0004FF6FF7707EA03172F433A43B64FB84266
:1026C0000ED0B64FB8420BD0B0F1804F08D0B44F07
:1026D000B84205D0B34FB84202D0B34FB84206D18A
:1026E0004FF6FF57394046F48077394305E04FF203
:1026F000FF57394044F48077394382830184F0BD29
:10270000028B4FF2FF331A400283028B4FF6FF73A6
:1027100003EA01231A4302837047F0B50C461546BD
:10272000002200210026078C4FF6EF7C07EA0C07F9
:102730000784028B018C4FF6FF7707EA041640F6F8
:10274000FF473A404FF6FF7707EA03373A434FF621
:10275000FF7707EA05273A438F4FB8420ED08F4FD5
:10276000B8420BD0B0F1804F08D08D4FB84205D0A1
:102770008C4FB84202D08C4FB84206D14FF6DF776B
:10278000394046F01007394305E04FF65F7739408E
:1027900044F01007394302830184F0BD028B4FF6E9
:1027A000F3731A400283028B0A4302837047F0B529
:1027B0000C46154600220021068C4FF6FE773E405F
:1027C0000684028B018C4FF60C7632407E1C06EAA2
:1027D00003162E433243704EB0420ED06F4EB042BD
:1027E0000BD0B0F1804F08D06D4EB04205D06D4E89
:1027F000B04202D06C4EB04206D14FF6FD76314069
:1028000044F00106314305E04FF6F576314044F0DF
:102810000106314302830184F0BD70B505460C46C4
:102820005D4885420ED05D4885420BD0B5F1804FA2
:1028300008D05B48854205D05A48854202D05A48A4
:10284000854200D100E000BF208850B92389A288CA
:1028500061882846FFF7ABFFE1882846FFF79EFF17
:1028600025E0208804280AD12389A2886188284687
:10287000FFF753FFE1882846FFF742FF17E0208863
:1028800008280AD12389A28861882846FFF7FBFE21
:10289000E1882846FFF7EEFE09E02389A2886188D7
:1028A0002846FFF7A6FEE1882846FFF795FE70BD93
:1028B0002DE9F04105460C4600260127608808B93D
:1028C000022600E00026A088012801D1022700E0AE
:1028D00001272088A0B92389A28861882846FFF7AC
:1028E00066FFE1882846FFF759FF23893A463146BB
:1028F0002846FFF712FFE1882846FFF701FF13E0A3
:102900002389A28861882846FFF707FFE1882846C7
:10291000FFF7F6FE23893A4631462846FFF747FF80
:10292000E1882846FFF73AFFBDE8F0810A884B8826
:102930001A438B881A43CB881A430B891A434B8955
:102940001A438B891A43A0F8442070474FF6FF7151
:10295000818000210180C180418001727047002187
:10296000018041808180C180018141818181C1815B
:102970007047002101804180012181800021C180B8
:10298000018170470021018041808180C1800181E7
:102990004181818170470000002C014000340140DA
:1029A0000004004000080040000C004021B10288F3
:1029B00042F00102028004E002884FF6FE731A40E2
:1029C0000280704731B1B0F8442042F40042A0F8D0
:1029D000442005E0B0F84420C2F30E02A0F84420E1
:1029E00070471AB183890B43838102E083898B434B
:1029F000838170478182704741EA0203A0F8483022
:102A000070471AB183890B43838102E083898B432A
:102A10008381704701894FF6F87211400181704738
:102A20000A46002101894FF68F7319401143018135
:102A3000704730B504460D4629462046FFF7F0FFA3
:102A4000208940F00700208130BD2DE9F041044687
:102A50000D4616461F46602D06D13B4601223146E3
:102A60002046FFF75AFE05E03B460122314620464C
:102A7000FFF79DFE29462046FFF7D2FF208940F050
:102A800007002081BDE8F08130B50C4600210189A6
:102A9000C9B24FF6FF7505EA0325154325432943BF
:102AA000018130BD2DE9F04105460E461746984696
:102AB000002443463A4631462846FFF7E5FF2C8975
:102AC0004FF6F870044044F007044FF68F7004404E
:102AD00044F070042C81BDE8F081F0B504460D4649
:102AE00016461F463B46324629462046FFF7CCFF96
:102AF000208940F480402081F0BD018582827047AA
:102B00000A46002101884FF68F7319401143018056
:102B10007047F0B50C4615461E46002100220023E2
:102B20000189028B038C4FF6F877394021434FF629
:102B3000FC473A4040F201173A434FF6DD773B40FD
:102B40004FF6FF7707EA06172F433B4301810283C5
:102B50000384F0BD0A460021018B4FF68F731940A4
:102B60001143018370470A460021018B48F6FF7329
:102B700019404FF6FF7303EA02231943018370479C
:102B80000A460021818B4FF68F73194011438183D0
:102B900070470A460021818B48F6FF7319404FF6B3
:102BA000FF7303EA022319438183704721B102882E
:102BB00042F08002028004E002884FF67F731A40E0
:102BC0000280704721B1828842F00402828004E0D2
:102BD00082884FF6FB731A408280704721B1828849
:102BE00042F00802828004E082884FF6F7731A40B0
:102BF0008280704721B1828842F00102828004E025
:102C000082884FF6FE731A40828070470A46002180
:102C1000018B4FF6F77319401143018370470A4641
:102C20000021018B4FF2FF7319404FF6FF7303EA47
:102C300002231943018370470A460021818B4FF616
:102C4000F77319401143818370470A460021818B35
:102C50004FF2FF7319404FF6FF7303EA0223194343
:102C6000818370470A460021018B4FF6FB731940A0
:102C70001143018370470A460021018B4FF6FF3351
:102C800019404FF6FF7303EA02231943018370478B
:102C90000A460021818B4FF6FB7319401143818353
:102CA00070470A460021818B4FF6FF3319404FF6DB
:102CB000FF7303EA02231943818370470A46002108
:102CC000018B4FF67F7319401143018370470A4609
:102CD0000021018BC1F30E014FF6FF7303EA0223BB
:102CE0001943018370470A460021818B4FF67F7399
:102CF00019401143818370470A460021818BC1F33B
:102D00000E014FF6FF7303EA0223194381837047D4
:102D10000A460021018C4FF6FD73194011430184CE
:102D200070470A460021018C4FF6F7731940114392
:102D3000018470470A460021018C4FF6DF73194069
:102D40004FF6FF7303EA02131943018470470A46E2
:102D50000021018C4FF67F7319404FF6FF7303EA91
:102D600002131943018470470A460021018C4FF673
:102D7000FF5319404FF6FF7303EA022319430184FE
:102D800070470A460021018C4FF2FF7319404FF63D
:102D9000FF7303EA02231943018470470A460021A6
:102DA000018C4DF6FF7319404FF6FF7303EA0233AF
:102DB00019430184704730B5002301248C40A3B22D
:102DC000048C9C430484048C02FA01F5ADB22C43BC
:102DD000048430BD30B5002304248C40A3B2048C9D
:102DE0009C430484048C02FA01F5ADB22C430484A4
:102DF00030BD70B503460020002418461830012568
:102E00008D40ACB21D8CA5431D8409B1082909D1A0
:102E100000EB6100056825F0700505600568154345
:102E200005600EE00D1FC5F34E052844056825F426
:102E3000E045056005684FF6FF7606EA0226354351
:102E4000056070BD21B1028842F00202028004E0F8
:102E500002884FF6FD731A400280704721B1028844
:102E600042F00402028004E002884FF6FB731A402D
:102E70000280704721B1828842F08002828004E0A3
:102E800082884FF67F731A408280704702884FF61F
:102E9000F7731A40028002880A43028070478288D2
:102EA0004FF68F731A40828082880A43828070476F
:102EB00002894FF6F8731A40028102890A4302819F
:102EC000704702894FF67F731A40028102890A43D4
:102ED0000281704781847047818570478186704781
:102EE0000187704781877047A0F8401070470288BB
:102EF0004FF6FF431A40028002880A43028070475F
:102F00000146888E70470146088F70470146888FBA
:102F100070470146B1F8400070470146888C704701
:102F20000146088D704702460020138A0B400BB102
:102F3000012000E000207047CA430282704730B58C
:102F40000246002000230024158A05EA0103958922
:102F500005EA010413B10CB1012000E0002030BDEE
:102F6000CA4302827047000010B50446FB48844201
:102F700009D101218803FFF79FF800214FF4804019
:102F8000FFF79AF832E0F648844209D1012148045B
:102F9000FFF79FF800214FF40030FFF79AF825E083
:102FA000F048844209D101218804FFF792F80021FA
:102FB0004FF48020FFF78DF818E0EB48844209D1E8
:102FC0000121C804FFF785F800214FF40020FFF726
:102FD00080F80BE0E548844208D101210805FFF79D
:102FE00078F800214FF48010FFF773F810BD2DE939
:102FF000F04786B005460E460024A24600BFA14613
:103000000027B08900B100BF2F462C8A4CF6FF7014
:103010000440F08804432C82AC894EF6F31004403F
:10302000B08831890843718908430443AC81AC8A74
:103030004FF6FF400440B0890443AC8201A8FEF77C
:10304000B4FFC648874202D1DDF810A001E0DDF8E8
:103050000CA0A88900F4004040B10AEBCA0000EBC4
:103060000A1031684900B0FBF1F807E00AEBCA002A
:1030700000EB0A1031688900B0FBF1F86420B8FB5E
:10308000F0F004012009642101FB1089A88900F4F3
:10309000004040B1322000EBC900B0FBF1F000F07D
:1030A0000700044308E0322000EB09106421B0FB64
:1030B000F1F000F00F0004432C8106B0BDE8F0876A
:1030C0004FF41651016000218180C18001810C21E3
:1030D000418100218181704710B502460020108A8D
:1030E0004FF2FF0318400B884C8823438C882343FE
:1030F000CC8823431843108210BD002101804180F9
:103100008180C180704721B1828942F4005282815E
:1031100004E082894DF6FF731A4082817047F0B552
:103120000346002400260025002040F66A17B94215
:1031300000D100BF1846C1F3421401F01F06012759
:1031400007FA06F5012C01D10C3004E0022C01D164
:10315000103000E014301AB107682F43076002E016
:103160000768AF430760F0BD1AB1838A0B438382BF
:1031700002E0838A8B4383827047028A4FF6F073A2
:103180001A400282028A0A430282704782894FF201
:10319000FF731A40828182890A438281704721B17C
:1031A000828942F00202828104E082894FF6FD7337
:1031B0001A4082817047028A4FF6DF731A400282FA
:1031C000028A0A430282704721B1028A42F4804295
:1031D000028204E0028A4BF6FF731A4002827047B3
:1031E000C1F308028280704701468888C0F3080056
:1031F0007047818941F0010181817047028BD2B211
:103200000283028B42EA012202837047028B02F49E
:103210007F420283028B0A430283704721B1828A74
:1032200042F02002828204E0828A4FF6DF731A4065
:103230008282704721B1828A42F01002828204E0C9
:10324000828A4FF6EF731A408282704721B1828AD8
:1032500042F00802828204E0828A4FF6F7731A4035
:103260008282704721B1828942F40042828103E068
:103270008289C2F30E028281704721B1828A42F4B0
:103280000062828204E0828A4FF2FF731A408282D7
:103290007047828A4FF6FB731A408282828A0A4301
:1032A0008282704721B1828A42F00202828204E067
:1032B000828A4FF6FD731A408282704702460020D0
:1032C000B1F5007F00D100BF13880B400BB1012086
:1032D00000E00020704701F40072B2F5007F00D1D9
:1032E00000BFCA430280704770B502460024002325
:1032F0000025002040F66A16B14200D100BFC1F39C
:10330000421501F01F03012606FA03F3012D02D135
:103310009689334006E0022D02D1168A334001E03F
:10332000968A33400C12012606FA04F416883440BB
:1033300013B10CB1012000E0002070BD10B50022D7
:10334000002340F66A14A14200D100BF0A120124F2
:103350009440A3B2DC43048010BD0000003801405B
:103360000044004000480040004C00400050004035
:10337000704700001CB50C46064B7B446946009024
:10338000204600F04CFA04460020694600F05AFA44
:1033900020461CBDC704000070B50446856900685E
:1033A000C10601D5302600E02026C00707D070BD39
:1033B000D4E9012130469047206A401C20626D1EEE
:1033C000F6D570BD70B5044685690078C00707D191
:1033D00070BDD4E9012120209047206A401C206262
:1033E0006D1EF6D570BD00002DE9F04106460024A3
:1033F00010687529314616A510D000F062F9002832
:1034000002DA404213A507E031688A0701D512A508
:1034100002E0490704D511A5012401E000F05AF9A2
:1034200000210A2206F1240709E0B0FBF2FCB0FB00
:10343000F2F302FB1C00303078541846491C002877
:10344000F3D123462A463046BDE8F04100F074B976
:10345000000000002D0000002B00000020000000F4
:10346000F0B40D460188090502D5214C7C4402E0E8
:103470001F4C7C440E34002100F1240608E002F0C9
:103480000F071209E75D42EA03721B097754491CD2
:1034900052EA0307F3D102780023120704D5702DF6
:1034A00006D009B1022311342246F0BC00F044B921
:1034B00001231034F8E770B504460D462146106824
:1034C00000F008F9024629462046BDE87040002376
:1034D000C6E7D21D22F00703D3E90023C0E7036843
:1034E000126843F0200303600823C3610023B7E799
:1034F0007C2400002DE9F05F894604464FF0000A65
:10350000DFF874B1FB44C0F820A02046E16888478A
:10351000002874D0252806D0D4E901219047206ADC
:10352000401C2062F1E700265F462046E16888479C
:103530002028054607DB312D05D2781910F8200C1C
:1035400008B10643F1E7B00701D526F00406C4F838
:103550001CA00027C4F818A02A2D09D0284601F085
:10356000E6F938B304EB8708303DC8F8185019E085
:1035700059F8041B204604EB87029161E1688847F3
:10358000012F054618D1E069002820DA26F0200630
:103590001DE0D8F8180000EB800005EB4000303843
:1035A000C8F818002046E1688847054601F0BFF9D1
:1035B0000028EED1012F0AD02E2D08D12046E16837
:1035C00088477F1C0546022F46F02006C4DBA06911
:1035D000002803DA404246F00106A061F00701D05E
:1035E00026F010066C2D0BD0682D09D04C2D39D04B
:1035F0006A2D35D0742D35D07A2D33D016E038E0D1
:10360000E1682F4620468847B842054609D16C2F0D
:1036100026D04FF48060E16806432046884705467F
:1036200004E06C2F1AD04FF4807006430DB3A5F15F
:103630004100192802D8203546F400664A4629463A
:10364000204626604E46FCF78BFD80B101280BD04A
:10365000F61D26F0070000F1080956E74020E4E7D0
:103660008020D8E70020D6E706F104094DE7284678
:1036700052E7206ABDE8F09F0C24000010B5431CFF
:1036800002E010F8011B71B18107FAD14FF001324D
:1036900002C88C1A8C4314EAC211F9D0C01A0A0667
:1036A00003D0C01E10BDC01A10BD0A0401D0801E78
:1036B00010BD0902FCD0401E10BD70477047704716
:1036C000704709684A0501D540B27047C905FCD565
:1036D00000B2704709684A0501D5C0B27047C905F4
:1036E000FCD580B2704770B50C460546012A05D05E
:1036F0002878800600D5EA69002302E0012305E06E
:103700005B1C934202D2E05C0028F9D1A869E6185C
:10371000C01AA861286A184428622846FFF73CFEB0
:1037200004E0D5E9012114F8010B9047B442F8D325
:103730002846FFF747FE70BD2DE9F0470D46994634
:103740009246044600F124080168880604D5E06921
:1037500021F01001216000E00120A84201DD471B9B
:1037600000E00027A1697A1902EB0900081AA0619C
:103770002078C00602D42046FFF70EFE002608E09F
:10378000D4E901211AF806009047206A401C761CF3
:1037900020624E45F4DB2078C0060AD52046FFF7AC
:1037A000FBFD06E0D4E9012130209047206A401C4F
:1037B0002062381EA7F10107F4DC07E0D4E90121FB
:1037C00018F805009047206A401C2062281EA5F1C9
:1037D0000105F3DC2046FFF7F5FD2078000602D551
:1037E0000220BDE8F0870120FBE711680268006A4B
:1037F000530501D508700AE0D30501D5088006E01D
:10380000130603D5C217C1E9000200E008600120D9
:103810007047000001694A1C02610878704700B5D2
:103820008FB0CDE901310021059105497944CDE9F9
:10383000031011466846FFF75DFE0FB000BD0000A3
:10384000E5FFFFFF0A6802F8010B0A6070470000FD
:103850002DE9FF5F15468A460446DFF8AC80F84440
:103860000027D8E900103E46CDE9001010E03AF8F4
:1038700016106A4602A800F03DFB411C07D02178D3
:10388000890603D5E269391891420DD80744761CA0
:103890002078800602D5E069B84205DDAE42E6DB5D
:1038A0003AF816000028E2D1A069C01BA0612046AA
:1038B000FFF772FDD8E90010CDE90010002017E0F5
:1038C0003AF818106A4602A800F014FBB0F1FF3F66
:1038D00081460BD000250DF1080B05E0D4E901214C
:1038E0001BF8050090476D1C4D45F7D308F101000A
:1038F000B0428046E4DB206A384420622046FFF76D
:1039000061FDBDE8FF9F0000C62000002DE9F041E9
:103910008046D21D22F007020025D2E90002F529D7
:1039200015A614D0011E72F1000106DA0023D0EBB7
:10393000030063EB020211A608E0D8F800108B0721
:1039400001D50FA602E0490701D50EA601251146B3
:10395000002408F1240704E000F04EF830323A5514
:10396000641C50EA0102F7D12B46324621464046FC
:10397000BDE8F041FFF7E0BE000000002D000000B0
:103980002B0000002000000030B4002100F12404CE
:1039900008E002F00705D208303542EA4372DB083E
:1039A0006554491C52EA0305F3D10468002310A2B0
:1039B000250708D504F020040C4304D0C469012372
:1039C0000CA2641EC46130BCFFF7B6BE10B504463D
:1039D00021461068FFF77EFE02462046BDE81040F3
:1039E0000023D1E7D21D22F00701D1E90023CBE764
:1039F000000000003000000030B5B0F10A024FEACC
:103A0000900E71F100034EEA817EB0EB0E0061EB87
:103A100091014FEA101E4EEA017E10EB0E0041EBC1
:103A200011114FEA102E4EEA016E10EB0E0041EB21
:103A300011214FEA104E4EEA014E10EB0E0041EB01
:103A40001141401841F100014FEAD00040EA4170B5
:103A50004FEAD10110EB80054FEA810444EA9074EB
:103A600044EB01046D1944EB0404521BA3414FF0D5
:103A7000000348BF0A3200D530BD401C41F10001AF
:103A800030BD70472DE9FF4F0C461E464FF0FF3703
:103A90008BB0D2E90001DDF860800A908A46C1F35C
:103AA0000A5505B93D46002108464FF00000BAF11D
:103AB000000F00F4400005DA00EB80004FF44001F5
:103AC00001EA50004FEA9059B9F1010F00DDB94603
:103AD0000A9850EA4A000ED044F61050A5F2FF357D
:103AE00045432F14B8F1000F1ED07542291E1EDD6C
:103AF000C9F100021CE0B8F1010F4FF0000001D045
:103B0000302103E0F24305E02154401CB042FBDBCE
:103B100030460022002121540B99C1F80880C1E9E8
:103B200000200FB0BDE8F08FBD1B6D1CDEE74A46DC
:103B300000DA694206A800F073FA06AB93E80700C2
:103B400003AB83E8070050460A9900F021FB8DE89B
:103B50000700A0F500501F3800900398002D09DDE4
:103B600042F21F014A46084403A90390684600F048
:103B700080FD08E0A0F500504A461F3803A90390D5
:103B8000684600F08AFD8DE807000004000C03D0B1
:103B90004FF0FF30410800E01046B8F1000F03D0AD
:103BA0000022009215461EE0751E05D4FFF724FF83
:103BB000303262556D1EF9D5B3460122084302D05A
:103BC00000227F1C04E02078302801D100227F1ED3
:103BD000002A099786D01DE0112D07DAFFF70CFFA8
:103BE000303262556D1C50EA0102F5D1084302D013
:103BF0000098C8B10EE00021681E05E0235C625CFD
:103C000063542254401E491C8142F7DBAB46A81B7B
:103C1000401E0990002004F80B000B98099AC0F888
:103C20000880C0E9002B7CE711264FF0000859E717
:103C30002DE9F04F88460446D21D22F0070191B0CD
:103C4000D1E90001CDE90A0100F05DFE02460B98C2
:103C5000C00F01D02D2007E02068810701D52B205F
:103C600002E0202101EAC000032A099001D0072ABE
:103C700005DB03464146204600F092F90BE120782F
:103C8000800601D5E06900E00620B8F1650F8146A5
:103C900006D0B8F1660F18D0B8F1670F70D131E0D7
:103CA0000020B9F1110F009001DB112301E009F1AF
:103CB00001030AAA01A90CA8FFF7E4FEDDE90C70D4
:103CC000002609F10105834647E001204B4600909C
:103CD0004FF000470AAA01A90CA8FFF7D3FEDDE9BF
:103CE0000DB00C995D46002610B909F101000D18C0
:103CF000B9EB050003D4C0F1FF3609F10105A5EBCE
:103D000009002BE0B9F1010F01DA4FF001090020A1
:103D1000B9F1110F0090484601DD112300E0034680
:103D20000AAA01A90CA8FFF7ADFEDDE90C704D460B
:103D300000268346207800070AD4AB4500DA5D46AA
:103D400001A8012D04DD411911F8011C302907D00B
:103D50004F4502DA17F1040F04DA012082460FE022
:103D60006D1EEEE7002F02DCED1B3E4403E0781CE5
:103D7000A84200DD7D1CB81B00F1010A4FF000478E
:103D80002078000703D4AA4501DB4FF0FF3A002159
:103D9000B7F1004F0DF143088DF8431024D00220F5
:103DA0002B23002F01DA7F422D230A21021EA0F1CE
:103DB000010000DC5FB197FBF1FC97FBF1F201FB26
:103DC0001C7C17460CF1300C08F801CDEEE7A8F189
:103DD000010003702188090501D5452100E0652116
:103DE000A0F1010800F8011C09980FA9A1EB080730
:103DF000FF1D00B10120411901EBEA70A1693844AF
:103E0000081A401EA0612078C00602D42046FFF7A1
:103E1000C3FA099828B1D4E901219047206A401CCF
:103E200020622078C00622D52046FFF7B5FA1EE0B2
:103E3000002E04DBB34502DD01A8805D00E03020E8
:103E4000D4E901219047206A401C2062761CAAF127
:103E500001005FEA000A0AD100F09EF8C06801681C
:103E6000405CD4E901219047206A401C2062281E52
:103E7000A5F10105DCDC07E0D4E9012118F8010B0C
:103E80009047206A401C2062381EA7F10107F3DC2E
:103E90002046FFF797FA032011B043E610B54369B7
:103EA00013B1AFF3008001E0FFF71DFC012010BD4E
:103EB000127800F124010A7000224A700122EDE715
:103EC00011684FF0FF32E9E710B5436913B1AFF362
:103ED000008001E0FFF7BCFC012010BD128800F15A
:103EE000240182840022C2840122EDE711684FF090
:103EF000FF32E9E770B516460C46054600F044F877
:103F0000036893F80101012806D0FF2C0FD8185D33
:103F100068B101202C7070BDD3F8070132462146EC
:103F200003F2071303442846BDE8704018474FF0DA
:103F3000FF3070BD004870475C0500207546FFF7F4
:103F4000F9FFAE4605006946534620F00700854656
:103F500018B020B5FDF7FAFCBDE820404FF0000690
:103F60004FF000074FF000084FF0000B21F0070161
:103F7000AC46ACE8C009ACE8C009ACE8C009ACE8A4
:103F8000C0098D467047000010B500F005F8001D0F
:103F900010BD00BFD5090000004870477C05002017
:103FA0002DE9F0411F46044603260168072A01F463
:103FB000006004DB08B116A505E016A503E008B112
:103FC00015A500E015A521F010002060A069C01E15
:103FD000A0610FB1401EA0612046FFF7DDF94FB18F
:103FE000D4E9012138469047206A401C2062C01C59
:103FF000206206E0206AFAE7D4E9012115F8010BF6
:104000009047761EF8D22046FFF7DCF9BDE8F08134
:104010004E414E006E616E00494E4600696E66006C
:104020002DE9F047814616468AB0334878440DC8DA
:104030008DE80D0030487844801C03AC0DC884E83E
:104040000D0041F69B300844372190FBF1F290FBC4
:10405000F1F5A5F1800501FB12041B3C02D5644279
:10406000012000E00020DFF890A080460027FA44FD
:10407000AAF1BE0A0DE0E00709D03246684607EB18
:1040800047010AEB810100F008FB8DE8070064108E
:104090007F1C002CEFD1184F7F44AC3F18E0E8079D
:1040A00014D007EB04100DF1180A90E80E008AE80E
:1040B0000E00C068F04201D198190890324606A956
:1040C00003A800F0EAFA03AB83E807006D10641C54
:1040D000002DE4D132466946B8F1000F03A802D0A2
:1040E00000F0C7FA01E000F0D8FAC9E90001C9F808
:1040F00008200AB0BDE8F0877C19000010B504461E
:10410000AFF300802046BDE81040FCF78CB80000FB
:104110004FF0013C50F8042B51F8043B9A4221D156
:10412000A2EB0C03934313EACC1317D150F8042BE2
:1041300051F8043B9A4215D1A2EB0C03934313EAC6
:10414000CC130BD150F8042B51F8043B9A4209D1FF
:10415000A2EB0C03934313EACC13DBD04FF0000027
:10416000704700BFD01A01BAB1FA81F101F018010D
:1041700022FA01F0CB40C1F12001DBB2C0B2C01A7B
:104180002CFA01F3D11A914311EAC311E6D1704719
:104190005FEA400C08BF91F0000F4FEA8C234FEA12
:1041A000C12243EA51514FEA1C5018BF00F5F040BC
:1041B0004FEA300018BF41F000415FEA6C5C00F04C
:1041C0002980BCF1FF3F08BF40F080407047130CCE
:1041D00006BF12044FF0100C4FF0000C130E04BF7A
:1041E00012020CF1080C130F04BF12010CF1040CA5
:1041F000930F04BF92000CF1020CD30F04BF5200C6
:104200000CF1010C11464FF00002A0F11F00A0EBD1
:104210000C00704711F0004F08BF704731F00041AB
:104220003FF4D5AF0B0C06BF09044FF0100C4FF054
:10423000000C0B0E04BF09020CF1080C0B0F04BF9D
:1042400009010CF1040C8B0F04BF89000CF1020C66
:10425000CB0F04BF49000CF1010CCCF12003A0EB03
:104260000C0022FA03F302FA0CF241EA030100F116
:104270000100704720F07F4C80EA030023F07F4765
:10428000ACEB070303F57C5300F0004003F1FF03A0
:104290002DE980494FEA154B09B44FEA144325EA4A
:1042A0000B4E24EA03480FF2042606EB13274908B5
:1042B0003E785FEA320203FB0667C7F5000707FB9B
:1042C00006F64FEA54374FEAD64606F1020607FBD8
:1042D000066CCCF1005C4FEA1C472CEA074C07FB4C
:1042E00006F40CFB06F504EB15464FEA961634BFB0
:1042F00000204FF000404FEAD13706FB07FC4FEAA1
:104300001C4C0CFB0BF7D21B03FB0CF761EB0701FA
:104310000CFB0EF7B0EB074072EB17420CFB08F7F3
:1043200034BFA2EB0742B2EB074261EB17414FEA01
:104330000C444FEA910706FB07FC4FEA1C4C0CFBB0
:104340000BF7B0EBC74072EB573203FB0CF734BFEF
:10435000A2EBC742B2EBC74261EB57310CFB0EF741
:10436000B0EBC70072EB57720CFB08F734BFA2EB3F
:10437000C702B2EBC70261EB5771039F4FEA81613D
:1043800041EA921104EBCC044FEAD1374FEA826242
:1043900006FB07FC42EA90124FEA80604FEA1C4C91
:1043A0000CFB0BF7D21B03FB0CF761EB07010CFBBB
:1043B0000EF7B0EB074072EB17420CFB08F734BF67
:1043C000A2EB0742B2EB074261EB17414FEA8C5573
:1043D0004FEA910704EB9C2406FB07FC4FEA1C4CB8
:1043E0000CFB0BF7B0EBC74072EB573203FB0CF73B
:1043F00034BFA2EBC742B2EBC74261EB57310CFBB3
:104400000EF7B0EBC70072EB57720CFB08F734BF26
:10441000A2EBC702B2EBC70261EB577115EB4C255B
:104420004FEA816141EA92114FEA82624FEAD13745
:1044300042EA901206FB07FC44F100044FEA806058
:104440004FEA1C4C0CFB0BF7D21B03FB0CF761EB88
:1044500007010CFB0EF7B0EB074072EB17420CFBA9
:1044600008F734BFA2EB0742B2EB074261EB1741FA
:1044700015EB1C154FEA813141EA92414FEA823235
:1044800042EA90424FEA80304FEA0C7644F1000451
:1044900048EA03434EEA0B484FF0000EB2EB080C1B
:1044A00071EB030724BF624639464EEB0E0E4FF008
:1044B000000B0018524149414BEB0B0BB2EB080CBF
:1044C00071EB03077BF1000B24BF624639464EEBCC
:1044D0000E0E4FF0000B0018524149414BEB0B0BF5
:1044E000B2EB080C71EB03077BF1000B24BF6246B3
:1044F00039464EEB0E0E51EA020718BF46F0010690
:1045000016EB0E7655F1000254F1000103D5BDE81B
:104510008901BDE80088BDE88901BDE80048B619F9
:10452000524141EB0101A3F10103704780807F7E7E
:104530007D7C7B7A79787776767574737271717019
:104540006F6E6E6D6C6C6B6A6A69686867666665CB
:104550006464636362616160605F5F5E5E5D5D5C59
:104560005C5B5B5A5A5959585857575656555555CA
:104570005454535352525251515050504F4F4F4E2A
:104580004E4D4D4D4C4C4C4B4B4B4A4A4A49494978
:1045900048484847474747464646454545444444BA
:1045A000444343434342424242414141002B26D4CB
:1045B000770021D01CB54FEA370703B44FF0100045
:1045C0004FF010014FF000000FBCBDE810400BF1A0
:1045D000010BBBF1010F08BF5FEA170722BF12F101
:1045E000010211F101014FF0004143F1000300F01D
:1045F000004043EA00007047F9D35708DAE746EA7B
:10460000064613F1400F4FEA16461FDD13F1200F47
:10461000DFBF16430A46002120335B42C8D0C3F1F6
:10462000200746EA064602FA07F74FEA164646EA28
:104630000706C3F1200722FA03F201FA07F721FA6D
:1046400003F14FF0000342EA0702B1E746EA02062F
:1046500046EA06464FEA164646EA0106BCBF46EA67
:104660000646360C4FF000034FF000024FF00001F9
:104670009EE72DE9C048934630B491E8380007C85A
:1046800031EA400C48BF34EA430C03D5FFF7F2FD92
:10469000FFF78CFFF0BCBDE800882DE9C0489346C9
:1046A00030B491E8380007C810F0804F08BF13F00D
:1046B000804F03D100F005F8FFF778FFF0BCBDE8AC
:1046C000008820F07F4780EA030023F07F4C07EB4F
:1046D0000C03A3F57C5300F00040A3F1FE0392F01D
:1046E000000F00F0B38095F0000F00F077802DE907
:1046F00001494FEA11404FEA144621EA004800FB05
:1047000006FC24EA064708FB06F607FB08F800FB50
:1047100007F718EB06484CEB164C4FEA124B18EB18
:1047200007484FEA15464CEB174022EA0B4E0BFBAD
:1047300006FC25EA06470EFB06F607FB0EFE0BFB02
:1047400007F71EEB064E4CEB164C4FF000061EEB27
:10475000074E4CEB174B18EB0B0840F1000018EB21
:104760000E0B58EB000840F100008F1A4FF00001CB
:104770003CBFC943661B14BFB5EB040C00213CBF12
:10478000C943F61B4FEA17444EEA8E0E27EA04454A
:104790004FEA1C4704FB07622CEA074C05FB07F7AE
:1047A0000CFB05F604FB0CFC16EB074642EB17422C
:1047B00016EB0C4642EB1C421BEB060658EB0202C2
:1047C000414146EA9E0601D5BDE80189B61952412C
:1047D00041EB0101A3F10103BDE801894FEA144552
:1047E0004FEA114724EA054621EA074C05FB07F486
:1047F00006FB07F70CFB06F105FB0CFC11EB074170
:1048000044EB17444FEA124711EB0C4144EB1C44B4
:1048100022EA074C05FB07F206FB07F70CFB06F63E
:1048200005FB0CFC16EB074642EB174216EB0C4659
:1048300042EB1C456A1854F1000148BF7047B61995
:10484000524141EB0101A3F10103704795F0000FC4
:1048500037D04FEA11424FEA144721EA024624EAD0
:10486000074C02FB07F106FB07F70CFB06F402FB03
:104870000CFC14EB074441EB17414FEA154714EBCE
:104880000C4441EB1C4125EA074C02FB07F506FBF3
:1048900007F70CFB06F602FB0CFC16EB074645EB94
:1048A000174516EB0C4645EB1C42121951F100015D
:1048B00048BF7047B619524141EB0101A3F1010312
:1048C00070474FEA14454FEA114724EA054621EAAA
:1048D000074C05FB07F106FB07F70CFB06F24FF050
:1048E000000605FB0CFC12EB074241EB174112EBF3
:1048F0000C4251EB1C4148BF7047921841EB01013B
:10490000A3F101037047490050EAC12018BF0420F9
:104910004A0D18BF40F0010040F2FF72B2EB515F48
:1049200008BF40F00200012808BF0520704730385A
:104930000A2801D2012070470020704710B50029D5
:104940000AD00878002807D005487844FFF7E0FB34
:10495000002801D0002010BD0248784410BD00009E
:104960009A1000009210000010B500290AD00878B3
:10497000002807D005487844FFF7CAFB002801D07B
:10498000002010BD0248784410BD00008A100000CD
:104990008210000021F00042A2F16052B2F5801FA7
:1049A00001F0004328BFD2F17F6C0BD95FEA001CF5
:1049B00043EAC20242EB507018BF704728BF20F094
:1049C00001007047B2F5801FBCBF184670474FEA20
:1049D000410C1CF5001F02D2084600F0C6BE70B59F
:1049E00000F0FAFA00000089FFF7F6BF4FF0004030
:1049F000A0F580007047000010B591EA030F48BF92
:104A000083F0004300F14483841A71EB030C05D258
:104A1000121943EB0C03001B61EB0C01DFF824E1DE
:104A20004FEA1154A4EB135C1EEA430F18BF9EEA31
:104A3000445F73D023EA0E03DCF1200E21EA045117
:104A400043F4801332D322FA0CFE10EB0E0023FA4B
:104A50000CFE41EB0E01CCF1200E03FA0EFE10EB22
:104A60000E0051F10001B1F5801FCCF1200E32D2C1
:104A700001EB045112FA0EF2BDE8104058BF704726
:104A8000401C38BF5FEA420218BF7047002814BFBD
:104A900020F0010041F100014FEA410313F5001F2E
:104AA00038BF7047A1F1C04100F0E4BA012A43EBDE
:104AB0000302ACF1200CDCF11F0E32BF4FF0000EF0
:104AC00023FA0CF310EB030041EB0451B4EB115F3C
:104AD000D0D0A1EB045101F5801149085FEA300004
:104AE00001EB04510ED350F1000038BF12FA0EFE54
:104AF00008D1BDE81040C9E7401C38BF5FEA420258
:104B0000CAD1C3E7BDE810404FEA410313F5001FC7
:104B100038BF7047A1F1C04100F0ACBA9EEA445FD3
:104B200008D011EA5E0FBDE8104004BF01F000415B
:104B300000207047BDE8104070B500F04DFA00BF8E
:104B400064FBBE3E0000E0FF2DE9C04130B4DFF859
:104B5000A0C23CEA111418BF3CEA131400F0EC8028
:104B600081EA03051CEA111444EAD57418BF1CEA53
:104B7000131500F0C780A4EB05044FF0004545EA8B
:104B8000C12145EAC32341EA505143EA525304F19B
:104B90007F74994204F500344FEAC0204FEAC222E4
:104BA00008BF904200F09C804FEA13650FF2401658
:104BB000765D4FEA134506FB05F7C7F1807706FBE4
:104BC00007F74FEAD737A7FB03687642C8F5803866
:104BD000A7FB06CE38BFA8F1010807FB08E64FF097
:104BE000000EA6FB028CE6FB03CEDCF1000CCEF13E
:104BF000004E38BFAEF1010EA6FB0C584FF0000777
:104C00004FF00005E6FB0E87A1FB08C6A0FB07CE10
:104C100016EB0E0645F10005E1FB076515F1E04EC8
:104C20007EBFA4F580345FEA46066D4116F1800729
:104C300045F100054FEA17274FEA066647EA056780
:104C4000A6F1DE46B6F1805F4FEA15251FD938463A
:104C500024F0010C05EBC471BCF1FE6F01EB0C11EB
:104C600002D8F0BCBDE8008124425CBF01F5801E83
:104C70009EEAC47F02D4F0BCBDE80081244238D44F
:104C8000F0BCA1F1C041BDE8004100F0F3B94FEA2A
:104C9000D22242EA43524FEAD323A7FB02864FEACD
:104CA000D02040EA415007FB03661EEA0E0F4FEA90
:104CB000D12105FB026658BFA6EB0056B6EB0056A5
:104CC0004FEA520E4EEAC37E18EB0E0E56EB530E11
:104CD000BDD518EB02085E417F1C55F10005B6E713
:104CE0004FF480154FF000074FF000064FF000081A
:104CF000ADE7F0BC4FF0000001F1C04101F0004110
:104D0000BDE8008111EA0C1F0CEA131500D00CE07D
:104D100013EA0C1F00F025804FF00000F0BC81EA80
:104D2000030101F00041BDE80081F0BCBDE8004195
:104D300081EA030100F09EB9F0BCBDE8004170B506
:104D400000F04AF9097EFC3E00F007B881EA030151
:104D50004FF0000001F00041704781EA030100F0CC
:104D600089B9F0BCBDE800414FF00000214970470F
:104D7000FFFDFBF9F7F5F4F2F0EEEDEBE9E8E6E420
:104D8000E3E1E0DEDDDBDAD8D7D5D4D3D1D0CFCDA7
:104D9000CCCBCAC8C7C6C5C4C2C1C0BFBEBDBCBBE0
:104DA000BAB9B8B7B6B5B4B3B2B1B0AFAEADACABDB
:104DB000AAA9A8A8A7A6A5A4A3A3A2A1A09F9F9EB5
:104DC0009D9C9C9B9A999998979796959594939367
:104DD000929191908F8F8E8E8D8C8C8B8B8A8989FE
:104DE0008888878786858584848383828281818081
:104DF0000000FF070000F87F4FEA41034FEA5353DA
:104E0000A3F58063D3F11E03C8BFD3F1210C0CDDE1
:104E10004FF0004242EAC12242EA505232FA03FC09
:104E20008CEAE17CACEBE1707047102BC4BF002032
:104E3000704703F5787CBCF1FF3F04D06FF000426F
:104E400082EA2100704770B500F0C6F849922480CC
:104E500000207047F2E710F0004248BF4042B0FA2D
:104E600080F310FA03F10AD0C3F11D0303F5806348
:104E70004FEA415002EB035202EBD12170474FF051
:104E800000007047DFF848C170B51CEA111E1EBF54
:104E90001CEA13159EEA0C0F95EA0C0F00F06F80C8
:104EA00081EA030423EA4C134EEAD47E21EA4C1132
:104EB00041F4801143F48013AE44A1FB024CA0FBEB
:104EC0000365AEF17F7E361955EB0C05A1FB034C53
:104ED0004CF10003A0FB021C16EB0C06654153F1DC
:104EE0000003094218BF46F0010613F4007F0BD1FE
:104EF0004FEA03314FEA0530340341EA155140EAE5
:104F000016506FF003020AE04FEAC3214FEAC520B2
:104F1000F40241EA555140EA56506FF0020202EBAA
:104F20002E4201EB025585EACE710AD05FEA440CAD
:104F300018BF24F0004450F1000041F1000120EAC4
:104F4000D47040F2FE7C624500D270BDA84214BF0E
:104F50004FF080444FF04044002E08BF0024BEF1C3
:104F6000806FA8BFA1F1C041BDE8704080F282808F
:104F70004FF0000001F1C04101F0004170479EEA8E
:104F80000C0F0CEA131518BF95EA0C0F06D04FF062
:104F9000000081EA030E0EF0004170BD00F01CF825
:104FA0008900013E00F007B800F009B84FEA430C51
:104FB0005FEA5C5C08D081EA030100F05BB84FEA6D
:104FC000410C5FEA5C5CF6D14FF00000014970478C
:104FD0000000FF070000F87F0EF1020E2EF0030E16
:104FE0005EF8046B364205D4012A43EB030515F540
:104FF000001F12D8012841EB010C1CF5001F0CD832
:105000000ED14FEAD17C15F5001F0CEB4C0C0CF1C6
:10501000020C08BF4CEBD37C04E04FF0080C01E01D
:105020004FEAD37C0CEB4C0526FA05F606F0070692
:10503000B6F1040C06D20EEB860CBDE870404CF0C5
:10504000010C6047DFE80CF0090B02024FF0004151
:105050004FF00000A1F5002170BD1946104601284F
:1050600051EB010418BFD4F5001484BF002001F0F7
:10507000004170BD0808A0F500114FEA31017047EA
:1050800010B591EA030F48BF83F000433FF5BCAC75
:10509000841A71EB030C07D212198CF0004C43EB0D
:1050A0000C03001B61EB0C01DFF8A4E14FEA115483
:1050B000A4EB135C1EEA430F18BF9EEA445F00F0A6
:1050C000B08023EA6E03524221EA0451C3EB6E031F
:1050D00038BF5B1EDCF1200E25D322FA0CFE10EB4C
:1050E0000E0043FA0CFE41EB0E01CCF1200E03FA48
:1050F0000EFE10EB0E0051F10001CCF1200E29D470
:1051000012FA0EF201EB0451BDE8104058BF70478F
:10511000401C1CBFB2F1004F704700280CBF491C57
:1051200020F00100704712EB020E43EB030218BFA0
:105130004FF0010E4EEA4202ACF1200CDCF11E0EE3
:1051400054D943FA0CFE10EB0E0051F1FF31CCF1B3
:105150001E0ED5D50EF1010E12FA0EFE404141EBA6
:10516000010101EB445C5FEA5C5C10D910EBDE707E
:1051700001EB045138BFBEF1004FBDE8104018BF2D
:10518000704700280CBF491C20F00100704730D246
:105190004FEAD42C11F5001124F400641BD0B1FAAD
:1051A00081F20B3AA41AA41ED2F12003914030FAE6
:1051B00003F31943904001EBCC71002C01EB045137
:1051C000BDE81040A8BF704701F1C0414FF000009A
:1051D00001F000417047B0FA80F310FA03F100D1FA
:1051E00010BDE41A173C4805C90AE4E701EB045175
:1051F00010BD491001EB0451BDE810404FEA3000EA
:1052000002E04FF0000170474A0008BF0042F8D0AA
:10521000B2F5001F28BF704701F000414FF00000B9
:1052200070479EEA445F07D011EA5E0FBDE8104068
:1052300004BF002100207047BDE8104070B5FFF7A3
:10524000CBFE00BF40DFF63E83F0004110467047C2
:105250000000E0FF43004FEAD30C4FEA3C0C434010
:105260001FBF40070CF1605113F0FE4F70471CF058
:10527000006F03D100200CF0004170470CF0004398
:1052800043EA507010B540EACC0000F028FA00BFA5
:10529000000000924FEA0001FFF7ECBE4FF0004122
:1052A0004FF00000A1F500217047000090EA010FC7
:1052B00048BF81F0004100F1A082421A3CBF801A31
:1052C00089184FEAD0524FF07F4C1CEA410FA2EBF5
:1052D000D15318BF9CEA026F00F03B804FF0004CA6
:1052E0004CEA00204CEA012121FA03FC10EB0C0CE3
:1052F0001ED202F1FF325FEA1C2040EBC25038BFE1
:1053000070471CF07F0F4FEA400C18BFBCF17F4F75
:1053100038BF7047C3F12003994008BF20F0010057
:10532000BCF17F4F38BF7047A0F1C04000F01DBAFC
:105330004FEA3C00000A40EBC25028BF1CF0FF0FB0
:105340004FEA400CE6D018BFBCF17F4F38BF704722
:10535000EAE79CEA026F05D010EA5C0F08BF00F094
:105360000040704710B500F0BAF900BF64FBBE3EC4
:10537000401058BFC0F14040491058BFC1F14041F2
:105380008142EFF3008070474FF47F0C1CEAD0128B
:105390001EBF1CEAD11392EA0C0F93EA0C0F00F027
:1053A000858090EA010F48BF42F4807240F4000CFF
:1053B00041F400002CF07F4120F07F4000B5814295
:1053C000A2EB03020FF2081CACEB504EC0F1000040
:1053D0009EF800E04FEA4E0E00FB0EFC38BF49007D
:1053E0004FEA2C1C02F5FA020CFB0EF34FEACE1E1C
:1053F0004FEA112C4FEAC1210EEB635E42EB2242D1
:105400000EFB0CFC4FEA1C5300FB03114FEA112C5E
:105410004FEA01310EFB0CFC4FEADC4C00FB0C1197
:10542000C14228BF09184CEB03335DF804EB10EBC5
:10543000410143EBC250B2F57C0F38BF704729D50C
:1054400012F0F00F1CBF00F1C04000F000407047A8
:10545000008182838485868788898B8C8D8E8F914D
:105460009293959697999A9C9D9FA0A2A3A5A7A871
:10547000AAACAEB0B2B3B5B7B9BCBEC0C2C5C7C99D
:10548000CCCED1D4D7D9DCDFE2E6E9ECF0F3F7FA01
:10549000FE0000004FEA400C0CF1807CBCF17E4F16
:1054A00028BF7047B0F1C04000F05FB990EA010F2B
:1054B0000CEAD11348BF42F48072624538BF63459D
:1054C00007D213F47F0F16D080EA010000F00040ED
:1054D000704710B500F003F9097EFC3E00F005B8F6
:1054E00080EA010000F00040704780EA010000F00F
:1054F000004000F03AB912F47F0F04BF0248704731
:1055000080EA010000F031B90000C07F41000B0EBD
:10551000D3F19E0208D950F400034FEA032323FA83
:1055200002F048BF4042704710B500F0D8F800BF05
:1055300049922480002070476FF0004282EA2000E8
:105540007047000010F0004148BF4042B0FA80F3BD
:1055500010FA03F2C3F19D030BD051EAC35101EBE2
:105560001220530638BF704700F1010008BF20F039
:105570000100704750EA010C00F113801CF5000F88
:1055800058BFBCF5000F01D48842704707D710F50B
:10559000000F58BF11F5000F15D48842704789429B
:1055A00070471CF5000F04D5BCF5000FF7D58142FC
:1055B00070474FF0807C1CEB400F38BF1CEB410F55
:1055C00001D28142704710B500F089F89224490059
:1055D0004FF000504FF08051FFF7CABE4FF47F0CE0
:1055E0001CEAD0121EBF1CEAD11392EA0C0F93EAF8
:1055F0000C0F00F0478090EA010F48BF42F4807220
:105600004FF0004C4CEA00204CEA012102EB03026F
:10561000A0FB0113A2F50002002918BF43F001030B
:105620005B0028BF4FEA330342EB22425FEA132CB0
:105630004CEBC2502EBFBCEB436FB2F57C0F7047F2
:105640004FEA036CBCF1004F08BF20F00100B2F537
:105650007C0F38BF70470BD582F0FF0212F5803FF8
:10566000C8BF704700F1C040D8BF00F0004070478D
:1056700000F5000C5FEA4C0C48BF7047B0F1C04029
:1056800000F073B890EA010F0CEAD11348BF42F45E
:105690008072624538BF634504D280EA010000F0A1
:1056A0000040704710B500F01AF800BF8900013EB5
:1056B00000F007B800F009B85FEA410C5FEA1C6C23
:1056C00008D080EA010000F050B85FEA400C5FEAC1
:1056D0001C6CF6D14FF00040A0F5800070470EF131
:1056E000020E2EF0030E5EF8044B244204D44FEA5F
:1056F0004102B2F17F4F11D84FEA4003B3F17F4F1F
:105700000CD80ED14FEAD07CB2F17F4F0CEB4C0C91
:105710000CF1020C08BF4CEBD17C04E04FF0080CFC
:1057200001E04FEAD17C0CEB4C0324FA03F404F0C3
:105730000704B4F1040C06D20EEB840CBDE8104053
:105740004CF0010C6047DFE80CF0070802024FF054
:105750000040A0F5800010BD0846420018BFD2F1FD
:10576000807288BF00F0004010BDFF2141EAD05098
:10577000C005704751EA000C00F113801CF5000FC2
:1057800058BFBCF5000F01D48142704707D711F50F
:10579000000F58BF10F5000F15D4814270478942A1
:1057A00070471CF5000F04D5BCF5000FF7D58842F3
:1057B00070474FF0807C1CEB410F38BF1CEB400F53
:1057C00001D28842704780EA010081EA000180EA44
:1057D0000100FFF7F8BE80F0004090EA010F7FF56E
:1057E0006CAD81F0004100F008B8000090EA010FB4
:1057F00048BF81F000413FF560AD421A04D882F005
:105800000042A0EB020011444FEAD0524FF07F4C0F
:105810001CEA410FA2EBD15318BF9CEA026F4AD099
:105820004FF0004C4CEA00204CEA012121FA03FC25
:10583000B0EB0C0C0FD412F0FE0F36D05FEA4C0028
:105840001DD5001240EBC25038BF70471CF03F0F0F
:1058500018BF70470BE0A2F101025FEA1C2040EB89
:10586000C25038BF70471CF07F0F18BF7047C3F19C
:105870002003994014BF401E20F0010070478008AB
:105880004FEA122308BF7047B0FA80FCA2EB0C026B
:10589000CCF1280C60FA0CF093EA122F04BF00EB55
:1058A000C25070474FEAC3707047130A5FEADC10BA
:1058B00008BF7047F6E79CEA026F04D010EA5C0F5D
:1058C00008BF0020704710B5FFF709FF40DFF63E24
:1058D00081F000407047FEF7ABB900000000803F48
:1058E00000000000000000000000803F3031323333
:1058F0003435363738394142434445464030580004
:105900003031323334353637383961626364656635
:105910004030780004000008000000000000000291
:105920000001000010000000000000000000000066
:1059300002400000000000A0000000000540000040
:10594000000000C8000000000C4000000000409C67
:1059500000000000194000000020BCBE0000000054
:1059600034400000BFC91B8E00000004B540000099
:10597000504BCFD06607E2CF010000006C41000021
:105980003E8251AADFEEA73401000000D942000098
:10599000DCB5A0E23A301F97FFFFFFFFB4450000DF
:1059A000FD25A0C8E9A3C14FFFFFFFFFFF3F000097
:1059B0000000008000000000FF3F000000000080A9
:1059C00000000000105B000800000020AC00000098
:1059D00028010008BC5B0008AC000020140B00008C
:1059E000440100081C00000043000000F8FFFFFF16
:1059F0000C0000000E0000000F0000002E00000050
:105A00001001000043000000F8FFFFFF004040408D
:105A10004040404040404141414141404040404081
:105A2000404040404040404040404040400502022D
:105A300002020202020202020202020202202020EC
:105A40002020202020202002020202020202909048
:105A50009090909010101010101010101010101046
:105A6000101010101010101002020202020288889A
:105A700088888888080808080808080808080808A6
:105A8000080808080808080802020202400000008E
:105A90000000000000000000000000000000000006
:105AA00000000000000000000000000000000000F6
:105AB00000000000000000000000000000000000E6
:105AC00000000000000000000000000000000000D6
:105AD00000000000000000000000000000000000C6
