:10000000F85F0020110400002D5600002D5600005E
:100010002D5600002D5600002D5600002D560000D4
:100020002D5600002D5600002D5600002D560000C4
:100030002D5600002D5600002D5600002D560000B4
:100040002D5600002D5600002D5600002D560000A4
:10040000FFFFFFFFFFFFFFFFFFFFFFFFFEFFFFFFFD
:1004100062B606F061FBFEE7F1B5A2B014001F0062
:10042000049100200D900AE00498229A90470490CD
:10043000002800D1CBE20D98401C0D90641C21785F
:10044000002901D10D98C4E22529EDD100200790A3
:10045000089009900A900B900C9002E00100012096
:100460000843641C21782029F8D023290ED02B2999
:1004700004D02D2907D030290BD00DE00100022037
:10048000084380B2EDE701000420F9E701000820ED
:10049000F6E701001020F3E72A290FD13968396007
:1004A0000A68091D39600F92002A05D551420F9143
:1004B00001000420084380B2641C12E000210F9167
:1004C0000AE00F9A754B9A4205D093009A18520091
:1004D000511830390F91641C21780A00303A0A2AE9
:1004E000EFD321782E2903D00021C9430E911EE0BD
:1004F000641C21782A2907D1396839600A68091DE6
:1005000039600E92641C12E000210E910AE00E9AEE
:10051000624B9A4205D093009A1852005118303914
:100520000E91641C21780A00303A0A2AEFD302A9FE
:1005300008872578290058487844FF305D3000F05E
:10054000E0FE002801D0641C00E0002502A83A303B
:10055000057002A83A300078682804D1217868290B
:1005600001D1622005E06C2807D120786C2804D1E5
:10057000712002A93A310870641C12A806902578EF
:10058000641C280025382AD01C3800D1CFE0001F79
:10059000022800D8CBE0133800D1EFE0093800D1B1
:1005A000C5E0801E00D157E1401E00D12BE1401E66
:1005B000022800D8BBE0001F00D124E1401F00D179
:1005C00086E0401E00D1D9E0401E26D0C01E0BD0D0
:1005D000801E00D1D2E0C01E00D1CFE046E1012054
:1005E0000790252012A998E0386838600568001D3A
:1005F000386005950E9E002E03D5280000F08BFE76
:1006000009E032000021280000F08DFE002801D012
:10061000401B00E03000089034E138683860026820
:10062000001D38600020C0430021104002AA03C210
:1006300012A80590069B3C2502A803C8002904D1F6
:10064000002802D10E9A002A14D06D1E01950207CF
:10065000120F3032D2B23A2A00DB27325A55000943
:100660000A071043090901D1002803D0059A5E1931
:10067000B242EAD33C20401B0890591905910E99CB
:1006800088420FDA081A0A9002A8008F0449014034
:1006900002A80187F6E000BF84680000FFFFFF7F2B
:1006A000EFFF0000002900D4ECE002A938310978FE
:1006B00014220A40102A00D0E4E00F99079A891A00
:1006C0000A9A891A0D1A012D00DADBE00A95D9E0A1
:1006D00002A83A300078622819D0682806D06A2823
:1006E0000CD06C281BD0712808D018E0386838600E
:1006F0000168001D38600D980880C3E038683860D4
:100700000268001D38600D98C11703C2BAE038684E
:1007100038600168001D38600D980870B2E03868D4
:1007200038600168001D38600D980860AAE03A68DA
:10073000D21D072082433A6003CA3A6002AA03C26C
:10074000002903D5012007902D200CE002A8008F7E
:10075000810703D5012007902B2004E0C00704D5B2
:1007600001200790202012A9087012A807994018AC
:100770000590290002A800F0FBF983E002A83A30B6
:1007800002786C2A0BD0712A01D06A2A07D13B6803
:10079000DB1D072083433B6003CB3B6005E03968EA
:1007A00039600868091D3960002102AB03C3682A5B
:1007B00003D102A803C880B20BE0622A03D102A8C9
:1007C00003C8C0B205E0742A01D07A2A04D102A875
:1007D00003C8002102AA03C202A83830007800072B
:1007E00031D502A803C8002901D100282BD0202030
:1007F0002843782827D1302012A9087002200790BA
:1008000012A845701FE0390002A83A30007800F0C5
:10081000E2F802AA03C202A8002904DA0798411CE0
:1008200007912D210DE0008F810704D50798411C09
:1008300007912B2105E0C00705D50798411C0791BA
:10084000202112AA115412A80799401805902900D6
:1008500002A800F0F4F815E001200790386838602D
:100860000168001D386012A801700BE0012007909C
:10087000252012A90870002D04D00798411C07916B
:1008800012A90D540F980799401A0A99401A08990D
:10089000401A0B99401A0999401A0C99401A019074
:1008A00002A838300078400711D42020694608702B
:1008B000002509E001236A4602A9229800F009FDFB
:1008C000002800D083E06D1C01988542F2DB079E72
:1008D00012AD0BE029780498229A904704900028E2
:1008E00075D00D98401C0D906D1C761E002EF1D118
:1008F0003020694608700A9E002508E001236A46F8
:1009000002A9229800F0E5FC002860D16D1CB542D8
:10091000F4DB089E059D0BE029780498229A904705
:100920000490002853D00D98401C0D906D1C761E2D
:10093000002EF1D13020694608700B9E002508E09A
:1009400001236A4602A9229800F0C3FC00283ED188
:100950006D1CB542F4DB099E0598089945180BE01B
:1009600029780498229A9047049000282FD00D9857
:10097000401C0D906D1C761E002EF1D13020694672
:1009800008700C9E002508E001236A4602A92298FF
:1009900000F09FFC00281AD16D1CB542F4DB02A8C0
:1009A00038300078400700D449E5202069460870B7
:1009B000002500E06D1C0198854200DB3FE5012326
:1009C0006A4602A9229800F084FC0028F2D0002098
:1009D000C04323B0F0BD0A00622822D0682819D095
:1009E0006A2808D06C2823D0712804D074281FD01E
:1009F0007A2808D01CE01368DB1D072083431360AE
:100A000003CB13607047116811600868091D1160FD
:100A100000217047116811600868091D116000B25B
:100A20000BE0116811600868091D116040B204E014
:100A3000116811600868091D1160C1177047F3B58E
:100A400083B0006900906846027C6F2A01D10824B7
:100A500006E020211143782901D00A2400E0102467
:100A60003C25039803C806000F00642A01D0692AB8
:100A700007D1002905DA00200021801BB9410600BA
:100A80000F00002F12D1002E10D10398006B002808
:100A90000CD1082C3CD1039838300078000737D5AA
:100AA0003B25302000993B31087031E06D1E0195E7
:100AB000300039002200E31700F041FC3032D2B29E
:100AC0003A2A03DB6846007C5138121800984255D8
:100AD000300039002200E31700F031FC06000F005F
:100AE00001D1002E05D00398C068009949198842A9
:100AF000DCD3082C0CD1039838300078000707D5D8
:100B00000098405D302803D06D1E30200099485574
:100B10003C20401B0399886100994919039AD160D0
:100B20000399096B884209DA081A03990862039845
:100B3000008F0E4901400398018715E0002913D565
:100B400003993831097814220A40102A0CD10399EC
:100B5000496B039A5269891A039A126A891A0D1A03
:100B6000012D01DB0398056205B0F0BDEFFF000029
:100B7000F3B591B006AD03C802AA03C212A800786B
:100B800020210143009161290BD01198006B0028AE
:100B900001D5062003E004D1672902D10120119973
:100BA0000863119841684800400DAA4A904225D137
:100BB000080310D11198006800280CD10320119966
:100BC000886112A8007861381A2842D323487844F3
:100BD0008A3000900BE003201199886112A80078F8
:100BE00061381A2831D31E487844743000900322AB
:100BF00000991198C06800F0D7FBF1E1012817DADD
:100C0000119800F0FFFB012812DB00270026009856
:100C1000612832D11198C06830210170401C411CFC
:100C2000119AD16012A9097861291FD178211EE09B
:100C300011994968884A0A4088491143119A5160BC
:100C40008749461A0027FF43E1E7064878441430F5
:100C5000CCE7054878441030BBE700BFD462000001
:100C6000C8620000C0620000C46200005821017028
:100C700011984069801C11994861002F03D100240C
:100C800068468780A2E10098612800D09FE0119813
:100C9000046B002C01D5212400E0641C24B2601CEC
:100CA0000090119803C804AA03C202A803C8002236
:100CB000002300F0C9FB04A803C802D28022120658
:100CC000514002AA03C2301F6946888000270F7670
:100CD00006AE761C00E0F61D0098012830DB02A865
:100CE00003C80022002300F0C8FB29D21C2102A85F
:100CF00000F0DCFB02A803C800F066FC05000098C9
:100D0000C01F009001280ADB280000F09BFC0200B5
:100D10000B0002A803C800F00CFD02AA03C2F61DD6
:100D2000072004E0761E2907090F31702D11012DCF
:100D300001DB401EF6D5401ECDD4761E3770FAE793
:100D400006A8401C311A06AD6D1CA14200DA0C0049
:100D500024B2200032D4884205DA06A9091849785D
:100D6000082900DB0F2706A9091801E0641E491EA7
:100D7000401E0A78BA42F9D00F2F04D106A90918EB
:100D80004A78521C4A70002806D506AD641C0198AA
:100D900000B2001D6946888024B2601E0ED4291856
:100DA0000A783032D2B23A2A03DB12AB1B783A3BD4
:100DB000D2180A70401E491E0028F1D51198006B08
:100DC000002800D402E1601E11990863FEE002A829
:100DD00003C80022002300F037FB06D202A803C894
:100DE00080221206514002AA03C236B27D487043E7
:100DF0007D4900F02BFD694688800720019909B2E2
:100E0000421A00207949012A20DB049202AA30CA42
:100E100000260F000498C00707D532003B002000D1
:100E2000290000F06DFD04000D00049840100490AE
:100E30003000390032003B0000F062FD06000F0078
:100E400004980028E6D102A830C028E054420026C9
:100E5000674F18E0FF070000FFFF0F800000E03F32
:100E6000FE030000E00707D504A803C832003B00DA
:100E700000F046FD06000F00641004A803C804AA91
:100E80000CCA00F03DFD04AA03C2002CEAD102A85E
:100E900003C832003B0000F0F5FD02AA03C200982F
:100EA000662803D1019800B20A3000E006201199AB
:100EB000096B08180490142801DB132004903020DB
:100EC0006946087606AC641C049801283ADB02A83F
:100ED00003C800F08BFB05000834042628000A2113
:100EE00000F0B7FC0F0028000A2100F0B2FC05005A
:100EF000641E303727700A2100F0ABFC0F00280079
:100F00000A2100F0A6FC0500641E30372770761E0B
:100F1000E4D108340498083804900128D4DB02A8EE
:100F200003C800F063FB00F097FB02000B0002A86F
:100F300003C800F0FEFB00222E4B00F0E1FC02AAE9
:100F400003C2C4E706A8401C201A06AD6D1C6A4601
:100F500005E0401E019909B2491E91806D1C297857
:100F60003029F6D00099662903D1019909B2491CAC
:100F700004E0652901D1012100E00021119A126BE2
:100F8000541824B2A04200DA040024B221001DD477
:100F9000814204DA685C352801DB392000E030202A
:100FA0006A1800E0641E521E491E13788342F9D06D
:100FB000392802D1685C401C6854002906D56D1E92
:100FC000641C019800B2401C69468880019800B2F8
:100FD000009023B22A0012A80178119800F00CF8B2
:100FE00013B0F0BD97750000A086010000002440FA
:100FF0000000F03F84D79741F3B589B015001C007D
:1010000000F0BBFD0190406A0078694608720998BB
:10101000076B012C01DA0124ADA50AA80178202074
:101020000843109E662801D1761C18E0672800D07E
:101030009FE036B20321C9438E4200DA9DE0BE42F2
:1010400000DB9AE0761C099838300078000702D45B
:10105000BC4200DA270036B2BF1B00D50027099832
:10106000C06800900998806900990918019136B20A
:10107000012E2CDA401C3021019A1170012F04DA64
:10108000099938310978090704D56946097A009A1F
:101090001154401C099988617042874200DA7E42EF
:1010A00036B2704209994862BF19A74200DA3C0083
:1010B00024B20998C461220029000098099B9B6909
:1010C000C01800F071F9381B09998862E1E0B44258
:1010D00020DA22002900019800F066F9099989694F
:1010E0000919099A9161301B099A5062012F04DA9B
:1010F000099838300078000709D56846007A099ABF
:10110000D26850540998C069401C0999C86109986F
:101110008762BEE032002900019800F045F9099885
:1011200080698019A41B012F04DA099938310978E4
:10113000090705D56946097A099AD2681154401CF5
:101140000999886124B2A74200DA3C0024B2220047
:10115000A9190998C068099B9B69C01800F024F977
:1011600009988069001909998861381B09994862B2
:101170008FE0612914D1702015E0BC4205DA09998D
:1011800038310978090700D427007F1E00D50027D1
:101190000AA80078672801D1652004E0452002E014
:1011A000412902D150200AA9087009988169481C78
:1011B000099AD26800922A78009B5A54691C012F20
:1011C00007DA099A38321278120702D4099988612D
:1011D0001BE06A46127A009B1A54401C099A9061DF
:1011E000012F12DB641E24B2A74200DA3C0024B2B5
:1011F0002200009B181800F0D7F8099880690019A0
:1012000009998861381B099948620998C068099949
:10121000896945180AA8007828706D1C36B230001C
:1012200003D42B2028706D1C03E02D2129706D1C28
:101230004642002405AF08E00A2203A800F0B8FCEB
:1012400004983870039E641C7F1C31B20129F3DAC4
:10125000022C08DA0AA8007820210143652902D16E
:10126000302028706D1C002C09D1302028706D1C96
:1012700007E0641E05A8005D303028706D1C012C4D
:10128000F7DA0998C068099989694018281A0999F4
:10129000C86109983830007814210140102914D110
:1012A000099840690999896940180999496A40185B
:1012B0000999C96940180999896A40180999496BBF
:1012C000884202DA081A099908620BB0F0BD0000E2
:1012D000300079B50E0014001D00002005E0F06A12
:1012E000401CF0620020641C6D1E002D08D0217887
:1012F000B068009A9047B0600028F0D10020C04349
:1013000076BDC9B200E0401C02788A4202D0002AB1
:10131000F9D100207047010000E0491C0A78002A3A
:10132000FBD1081A7047C9B201E0401C521E002AC6
:1013300003D003788B42F8D17047002070471242E7
:1013400024D0994228D970B500251B4202D00C0048
:10135000002109E00024012649186441944200D389
:10136000A41A7641F8D33100012601E0764109D272
:10137000001864416D41A41A9D41F7D2A4185D4143
:10138000B619F5D3300022002B0070BD1B42D8D116
:1013900008B500F01DFC08BD01D19042D3D2020077
:1013A0000B00002100207047124207D08B0706D0A7
:1013B0000B78491C0370401C521EF7D870478307F6
:1013C00006D00B78491C0370401C521EF9D170479F
:1013D00070B4103A03D378C9103A78C0FBD25307DF
:1013E00001D318C918C001D508C908C0D20704D351
:1013F0000B880380891C801C002A01D50B780370A0
:1014000070BC704730B401004B68802212061A404D
:1014100001201B031B0B4B600BD10B68002B08D169
:101420000DE00B686400DD0F25434D605B000B6031
:10143000401E4C68E302F4D523031B0B4B604B6842
:101440001A434A6030BC704730B4012464054D0033
:10145000EC420BD85D00EC4208D80C001C43640041
:101460000443144304D2994200D1904230BC7047E7
:10147000FCD08B42FAD18242F8E730B401246405F3
:101480004D00EC420BD85D00EC4208D80C001C4328
:1014900064000443144304D28B4200D1824230BC26
:1014A0007047FCD09942FAD19042F8E770B5040039
:1014B0000D0060684000400D3F4EB04207D16068AB
:1014C000000302D12068002816D0022070BD002839
:1014D00004D12000FFF796FF01286BDA012D0DDB08
:1014E000311A8D420AD36068002802D500203349A2
:1014F00001E00020310503C4012070BD4142A94232
:10150000616806DA2E4A0A40281800051043606018
:1015100047E080221206114062681203120B8023FA
:101520005B0313436360401E2D1800202A003532F0
:10153000352A02D36160206070BD00221E23DB4388
:101540009D4204DA20352268636823606060684247
:1015500011D0521E9241D243D20F20231B1A25686C
:101560009D402A432568C54066689E402E432660FC
:101570006368C340636060680843606011488242EA
:1015800006D28020000682420ED12078C0070BD5FB
:101590002068401C20602068002805D16068401C3D
:1015A00060600020C04370BD60688842F9D1206847
:1015B0000028F6D1002070BDFF0700000000F0FFFA
:1015C000FFFF0F8001000080F4464A1805D200F0AA
:1015D0000FF801D580174008604700F009F8012195
:1015E000C907884200D90800404260474A1812D211
:1015F000400DC90208430121C9070843520D40218B
:101600000901521A521C06D452421F3201D4D04052
:101610007047C01770470020704730B40121002286
:101620000368001D002B0BD00468001D0C4202D083
:101630004D466D1E64192260241D1B1FF0D0FAE771
:1016400030BC7047010009D5F446404200F006F86E
:101650000122D20711436047010000BF422212015C
:10166000D21E004207D002D4521E0018FCD5C10A77
:1016700040051205891870478B4200D1824205D976
:101680008446100062468C4619006346DF184C18E9
:10169000640D7F0D3AD0661C760537D0E61B352EDB
:1016A00034DCDB022B43DB0A0C0DC9022943C912CF
:1016B000202E0DDB1700203E06D01F00F741F3401F
:1016C0005F400026012A7741C01871410DD217E012
:1016D0001700F741F2405740F3415A40B340F340FE
:1016E0005A400026801859410AD3A21C52050FD037
:1016F000C207012F724117004008CB071843490861
:10170000641C24054208AF4170416141F0BC704740
:10171000641C21050020F9E76B4010E06B40ABE74B
:10172000F742F3D1E943F1E72442EFD10020002151
:10173000ECE7F0B40125ED070F005F40EED40C009C
:10174000871A9C4105D2C01BA141D219634169404F
:101750006B40AE0ADF184C18F442E1D2640D7F0DE5
:10176000E2D0E61B362ED1DCDB022B43DB0AA4469B
:101770000C0DC9022943C90A012E28DC04D1D60761
:101780005208DF073A435B08EF0A764290419941DD
:1017900014D039423BD1B61940414941761C3942F7
:1017A00004D1761C001849413942FAD0B943674642
:1017B000B74208D9A41B24052143A7E70042EAD178
:1017C0003642E8D1A2E7E40AE10700209EE7202E96
:1017D0000BDD203E1F00F340F7415F40012A00224D
:1017E00057417E42984191410BE01700F741F2408A
:1017F0005740F3415A40B340F3405A407E42904133
:1018000099410A0303D2641EB61940414941002799
:10181000641E24054208AE4178416141F0BC704726
:10182000F446002804D4494200F013F840426047CF
:101830004042002905D45FD000F00BF840424942F5
:101840006047494200F005F84942604703460B43B0
:10185000E6D40022030A8B420BD203098B4219D231
:1018600043088B422ED2411A00D201465241104603
:101870007047FF2209023FD012068B4205D3121295
:1018800009028B4201D31212090203098B4219D3B8
:1018900000E0090AC3098B4201D3CB01C01A5241AF
:1018A00083098B4201D38B01C01A524143098B42F9
:1018B00001D34B01C01A524103098B4201D30B01E2
:1018C000C01A5241C3088B4201D3CB00C01A524107
:1018D00083088B4201D38B00C01A524143088B42CC
:1018E00001D34B00C01A5241884200D3401A5241E2
:1018F000CFD201461046704708B500F06BF908BD1D
:10190000F0B50E005E400125ED072E40B446AE0A4C
:10191000DF184C18F44208D2F7420ED2640D01D001
:101920007F0D12D100206146F0BD05D1F74201D8EC
:101930007F0D05D10020C143F0BDFBD1640DF9D06E
:101940000020C143490549088FE0E419C902DB02C0
:1019500029432B43DB0A460DC00231438E4630B487
:1019600087B295B27D432E0CADB2140C7C43A41902
:10197000260C240425439CB27C43A419190C7943FA
:10198000270CC919A4B20F043C43090C000C97B2F0
:1019900047432E0CBE193543ADB2170C4743360CE6
:1019A000BF19A6B2BF193E043543240C3E0C3619AC
:1019B0009FB24743BF19BCB23E0C89191F0C474365
:1019C0007F183E043443390C704680B297B24743C7
:1019D0002E0CBE193543ADB2170C4743360CBF1958
:1019E000A6B2BF193E043543240C3E0C36199FB2F3
:1019F0004743BF19BCB23E0C89191F0C47437F18DF
:101A00003E043443390C77463F0C90B278432E0C99
:101A100080190604ADB22E43050CA0B22D18120C8D
:101A20007A435019020C80B2240CA4189AB27A435B
:101A3000121914042043120C89181B0C7B43C9187B
:101A400030BCEF0A394203D1B61940414941641E06
:101A50006F12BF0DE41B0BDBFF19BC4211DA24052A
:101A600000274208AE417841614166463143F0BDEE
:101A7000641C05D1401C6141CF0201D34908F4E741
:101A800050E75DE7F0B40E005E400125ED072E4003
:101A9000B446AE0ADF184C18F4423BD2F74241D2AA
:101AA000640D43D07F0D38D0E41BC902DB0229430B
:101AB0002B43CF0ADB0A0600B61A9F4104D2641EEC
:101AC000B6197F41B6185F416812800D24180018BE
:101AD000844222DAE80C0021B6197F41B61A9F41F0
:101AE00002D2B6185F413F1C40414941F4D3241C47
:101AF00021DD2405B6197F41B61A9F4105D337432E
:101B0000C60737430026012F7041614166463143C5
:101B1000F0BC7047FCD1F74205D20020C143490513
:101B20004908F3E704D00020C143F1E77F0DFAD064
:101B300000206146ECE72442FAD1401C61410F03CA
:101B4000F6D30020E2E7010080B5124800F043F828
:101B500011A1016041608160C160016141618161E9
:101B60000EA242628162C162016341630CA2826380
:101B70000DA2C2630164416401BD10B5054800F0C7
:101B80002AF804002068002801D1FFF7DDFF2000BB
:101B900010BD0000240A0020000000002E000000FC
:101BA00066616C736500000074727565000000006A
:101BB0007CB504000E00150030002900FFF746FE3A
:101BC00000904543701B0190684603C803C476BD6E
:101BD0007047000070477047F0B583B02826002496
:101BE00050250020694608700020694608710027CA
:101BF00000206946C8700020694688700020694648
:101C0000487000202B49087000202B4908700020E4
:101C10002A49087000202A4908703B20A54908700D
:101C2000A44800214056002801D500F0E0FC2548DA
:101C3000A0490022895650225143401864B2005DE9
:101C400000281BD12000401CD9490870D848002129
:101C50004056502838DA1B489649002289565022AF
:101C600051434018D24900228956405C01282BD0AC
:101C7000CF480078401CCE490870E7E7CC48047094
:101C8000CB480021405600281ED40E488949002226
:101C90008956502251434018C549002289564018A0
:101CA000401E007800280FD0C1480078401EC0496F
:101CB0000870E5E7170A0020180A0020190A00201A
:101CC0001B0A0020E4E7FF1FB94800214056002806
:101CD00002D50020B6490870B5480021405650286A
:101CE00002DB4F20B2490870B14800214056040081
:101CF000B048704900228956401803214156AD482A
:101D00006C4A0023D2568018062280560918A9482A
:101D1000684A0023D256801809228056081A64B2F5
:101D2000001B052848DBA348624900228956401859
:101D300006214056022148439E495E4A0023D2565E
:101D4000891802228956411A9A485A4A0023D256C3
:101D500080180A228056081A03282DDA55480021D7
:101D60004056322828DA534800214056062823DB03
:101D7000BA48504900228956401801214156B748B7
:101D80004C4A0023D256801806228056081A052194
:101D9000C943884210DB87484649002289564018CB
:101DA000012141568348434A0023D2568018092214
:101DB00080564143002909D164B2002C00D0FBE0D9
:101DC000694602200856002800D1F5E00120694646
:101DD0008870694600200856364900228956401A04
:101DE000012824DB69460020085632490022895622
:101DF000411A3C206B4600229A56801A814216DA1C
:101E00006C486A4600215156425602204243694BB3
:101E1000694600200956022041438C46254800218E
:101E200040566146081A1856101A04004BE06148E3
:101E30002049002289564018032141565D481D4A19
:101E40000023D25680180922805609185948194A89
:101E50000023D25680180622805602225043081AC8
:101E600000F090FC052815DA5248124900228956E4
:101E70004018C1784F480F4A0023D2568018807905
:101E800009184C480B4A0023D2568018407A081A89
:101E9000040018E047480749002289564018817815
:101EA0004448044A0023D256801840790918414812
:101EB00002E000BF150A0020874A0023D25680188E
:101EC000C079081A040064B2002C01D50020040077
:101ED00064B2502C01DB4F20040080487E49002270
:101EE000895650225143401864B2005D002818D131
:101EF0000120794900228956491D40B2814225DBE3
:101F00007649754A0023D25650235A43891864B241
:101F100040B22218895C012901D1241816E0401C26
:101F2000E7E7012040B2092810DA6C496A4A002329
:101F3000D25650235A43891864B240B2221A895C9F
:101F4000012901D1241801E0401CEBE7694600207B
:101F50000856002841D117485F4900228956401889
:101F60000321405664B20221614340180321FFF768
:101F70006DFC1049584A0023D256891848700D4804
:101F800055490022895640180321405602214843F2
:101F900064B200190321FFF759FC06494E4A002399
:101FA000D256891888704C48694602780A7014E045
:101FB000160A002068E7FF1F0020694688706946FE
:101FC00000200856002808D069460420085600283A
:101FD00003D14148694602780A7140483E490022CF
:101FE00089565022514340186DB2405D00281AD1E5
:101FF000681EB0490870AF480021405600282FD411
:102000003648354900228956502251434018A94983
:1020100000228956405C012822D0A6480078401E44
:10202000A4490870E7E7A3480570A248002140567C
:10203000502815DA29482849002289565022514350
:1020400040189C490022895640184078002807D043
:1020500098480078401C97490870E6E7A4E7FF1FFE
:10206000944800214056002802D50020914908706C
:10207000904800214056502802DB4F208D490870BF
:102080008C480021405605008B4813490022895690
:1020900040180321415688480F4A0023D256801821
:1020A00006228056091884480B4A0023D25680180D
:1020B00009228056081A6DB2401B0421C943884288
:1020C00055DA0548002140560A300121C9438842AB
:1020D00006DB012005E000BF150A0020E4E7FF1F32
:1020E00000207549754A0023D256891806228B565E
:1020F00002214B43704A9446704900228956624639
:10210000511802228956591A6B4AC0B21056081A41
:1021100000282CD06A4869490022895640180121BC
:1021200041566748654A0023D256801806228056D9
:10213000081A07281BDA614800214056322816DAAF
:102140005E4800214056052811DB5B485B490022B0
:1021500089564018012140564F2808D05648574903
:10216000002289564018092140564F2809D16DB2E6
:102170004F2D00D0F5E0694601200856002800D117
:10218000EFE00120694648707FB24C48002140567C
:10219000381A01281CDB7FB2484800214056381A03
:1021A0003C217FB2C91B884212DA43487FB2C25732
:1021B00002204243404B7FB2022179438C463F4884
:1021C000002140566146081A1856101A050045E0CD
:1021D00039483A4900228956401803214156364869
:1021E000364A0023D25680180922805609183248F0
:1021F000324A0023D256801806228056081A00F070
:10220000C1FA052815DA2C482C49002289564018B5
:10221000C1782948294A0023D256801880790918A4
:102220002548264A0023D2568018407A081A05000D
:1022300014E02148214900228956401881781E481F
:102240001E4A0023D2568018407909181A481B4AA2
:102250000023D2568018C079081A05006DB2002DEF
:1022600001D5002005006DB2502D01DB4F20050087
:10227000CD481249002289565022514340186DB270
:10228000405D002820D101200C4900228956491DBB
:1022900040B281422DDBC449084A0023D256502364
:1022A0005A4389186DB240B22A1A895C012909D1B2
:1022B0002D1A1EE0160A0020A4E7FF1F150A0020B1
:1022C00068E7FF1F401CDFE7012040B2092810DA51
:1022D000B549C74A0023D25650235A4389186DB2D4
:1022E00040B22A18895C012901D12D1A01E0401C55
:1022F000EBE77FB2002F43D1BE48BD49002289568B
:102300004018032140566DB2022169434018801CD9
:102310000321FFF79BFAB749B54A0023D256891823
:102320004870B448B24900228956401803214056EB
:10233000022148436DB24019801C0321FFF786FA41
:10234000AC49AB4A0023D25689188870A8480021AE
:1023500040567FB2874201D1012000E00020C0B288
:102360000EE00020694648707FB2002F08D0694611
:1023700003200856002803D19D4869460278CA7098
:1023800064B2002C09D06DB24F2D06D064B26DB28C
:1023900060190221FFF75AFA060064B2002C4CD1F2
:1023A0006DB24F2D49D192480021405636283DDA72
:1023B000BF488F49002289564018401E00214056D0
:1023C000062814DBBA488A4900228956401802219F
:1023D000405603214843B649854A0023D2568918FE
:1023E00006228956401A0221FFF730FA040081487C
:1023F0007F49002289564018401E002140564A2835
:1024000014DA7C487A490022895640180221405645
:10241000032148437749764A0023D2568918062279
:102420008956401A0221FFF711FA050064B26DB215
:1024300060190221FFF70AFA060064B2002C10D1DD
:102440006DB24F2D0DD06A48002140560221FFF792
:10245000FDF9281A0C38060076B2002E01D50020AE
:10246000060064B2002C10D06DB24F2D0DD1604823
:10247000002140560221FFF7E9F920180C30060030
:1024800076B2502E01DB4F20060069460220085626
:10249000002804D1694601200856002802D00120F6
:1024A0008449087082485249002289564454514850
:1024B0004F490022895645547F484D49002289568C
:1024C000465464B2002C0CD0374849490022895642
:1024D00050225143401864B20019401E002101707F
:1024E00009E03148424900228956502251434018A0
:1024F00064B2002101554F206DB2401B00280BD063
:1025000029483B49002289565022514340186DB258
:1025100040190021417009E02348354900228956BD
:102520005022514340186DB2002141551E48304998
:102530000022895650225143401876B2002181551D
:1025400064B26DB2AC423CDB8948002140560028A1
:1025500037D1274800788649087085480078244993
:102560000870234800214056002829D4504880494B
:1025700000228956401840784D491D4A0023D25602
:1025800088541C487A4900228956401840781949D5
:10259000174A0023D2568854474875490022895665
:1025A00040184078444901E0E4E7FF1F104A002347
:1025B000D25688540E480078401E0D490870D0E766
:1025C00015E064B2242C02DA6DB22C2D08DA6948C9
:1025D00000214056002803D105480078654908705D
:1025E00003480078401E02490870FFF719FBF7BD49
:1025F000150A0020A4E7FF1FFCB504000D0016001B
:102600000020E4B2002C05D0022C27D01AD3032CD2
:102610003AD044E02F00F6B2FFB2BE4211D301908F
:102620002348FFB2C157009153480021405603216F
:10263000FFF70CF9009909180C31019840187F1C1C
:10264000E9E72CE02900F6B2C9B28E4205D31A4A56
:10265000C9B252568018491CF5E720E02F00F6B2A7
:10266000FFB2BE420FD34549FFB2C957411800918E
:102670004148002140560321FFF7E8F80099081A65
:102680000C387F1CEBE70AE02900F6B2C9B28E4293
:1026900005D3094AC9B252568018491CF5E780B2E1
:1026A000F6B2EDB2711B491CFFF7D0F8C0B2F6BD0F
:1026B00068E7FF1F1B0A00202CE7FF1F10B500244E
:1026C000E4B2002C51D12E48052140562C4923223A
:1026D000895602225143401829491922895603225A
:1026E0005143401A00F04EF80A283EDA24480521EA
:1026F0004056022148432249232289564018204946
:102700000F22895603225143401A00F03BF80A2851
:102710002BDA1B4800214056032148431849282240
:102720008956401816490A22895604225143401AF4
:102730000621C943884202DA0220040015E010484D
:1027400000214056032148430D492822895640184C
:102750000B490A22895604225143401A082802DBF9
:102760000320040001E0012004002000C0B210BDDD
:10277000170A0020180A0020150A0020A4E7FF1FEE
:102780002CE7FF1F002800D5404270470121C206F8
:10279000D20E9140014A11607047000000E100E054
:1027A00038B5E62400F066FC38480168082041434B
:1027B000002001F03FF83649262001F0ADF8162040
:1027C000FFF7E4FF33492F2001F0A6F81F20FFF7A1
:1027D000DDFF31492E2001F09FF83049102001F033
:1027E0009BF82F480078C0B21021FFF72FF80D009A
:1027F000EDB2280001F0B4F802000021302001F011
:1028000079FB284A0021002001F03BFB264801F01B
:1028100001FC032001F05CFD0028FAD1002001F04A
:1028200049F9FA20800001F087FD2048007801284E
:10283000FBD100201D4908701D480078012806D1F1
:1028400002201B49087018481A49086005E0012059
:10285000174908701848174908601548007801287A
:1028600006D1962292001049144800F047FB05E07B
:10287000962292001049114800F040FBFFF7ACF996
:10288000E4B2002C1CD0641E94E000BFF4FAFF1FD9
:10289000AF2F0000FD2F00001D3000006D30000044
:1028A00090F00F40B46F000014050020210A0020B2
:1028B00080E6FF1F100500206C070020E4E7FF1FE3
:1028C000C148C24933228956401880214901405CE1
:1028D00000282CD0BC48BD492F2289564018BC493D
:1028E000405C002823D0B848B8492C2289564018AB
:1028F000B849405C00281AD0B348B4492A22895606
:102900004018B549405C002811D0AF48AF49282293
:1029100089564018B149405C002808D0AA48AB4904
:10292000262289564018AE49405C002842D1A6486C
:10293000AC49332289564018FE210901405C002829
:102940002CD0A148A7492F2289564018A649405C9F
:10295000002823D09C48A3492C2289564018A3491B
:10296000405C00281AD098489E492A22895640186F
:102970009F49405C002811D093489A4928228956E3
:1029800040189C49405C002808D08F489549262271
:10299000895640189849405C00280BD19748007828
:1029A000012807D1964800214056002802D0032074
:1029B00092490870924800214056012800D0DFE07B
:1029C0000C220C210020FFF717FE7F49C0B2081827
:1029D000EE218900405C002826D00F220F21002024
:1029E000FFF70AFE7849C0B208189521C900405C7B
:1029F000002819D0122212210020FFF7FDFD724994
:102A0000C0B20818B321C900405C00280CD01822BD
:102A100018210020FFF7F0FD6B49C0B20818EF2124
:102A2000C900405C00283BD16E480C2140566749E4
:102A30000C228956401A152832DB6A480F2140566D
:102A400062490F228956401A152829DB6548122150
:102A500040565E4912228956401A152820DB6148EB
:102A600018214056594918228956401A152817DB53
:102A700062480078012813D162480021405600289E
:102A80000ED102205D4908700021002001F087FC72
:102A90005D480168FA2040004143012000F0CAFE71
:102AA0000C220C210220FFF7A7FD4749C0B20818ED
:102AB000F2218900405C002826D00F220F2102203D
:102AC000FFF79AFD4049C0B208189721C900405C41
:102AD000002819D0122212210220FFF78DFD3A4959
:102AE000C0B20818B521C900405C00280CD01822DB
:102AF00018210220FFF780FD3349C0B20818F121E8
:102B0000C900405C00283BD136480C2140562F4973
:102B10000C228956401A152832DB32480F214056C4
:102B20002A490F228956401A152829DB2D481221DF
:102B30004056264912228956401A152820DB29487A
:102B400018214056214918228956401A152817DBAA
:102B50002A480078012813D12A480021405600282D
:102B60000ED10020254908700021012001F017FC3A
:102B700025480168FA2040004143012000F05AFE38
:102B800001F06AFC984801689848006801F040FC30
:102B9000EDB228000821FEF759FE042904DA0320CB
:102BA0001649087000F032F8EDB228000421FEF753
:102BB0004DFE022901DA00F05FF9EDB2082D00DBCD
:102BC00033E600F015F930E6E4E7FF1F68E7FF1F82
:102BD000BF0E0000CE0D00002F0D00008E0C000077
:102BE000ED0B0000A4E7FF1FA10E0000B20D0000D6
:102BF000110D0000720C0000D30B000020E4FF1F39
:102C00001A0A00201B0A0020F4FAFF1FF0B5A1B039
:102C10001AA8009000200600F6B23C2E00DBE1E08E
:102C20003E206946087100200500EDB2502D34DACF
:102C30002800C0B28F49F6B2895700B209B2884263
:102C400005D12A2001A9EDB24919487023E02800D6
:102C5000C0B2A949F6B2895700B209B2884208D079
:102C60002800C0B28249F6B2895700B209B2884240
:102C700005D1232001A9EDB2491948700BE07B482A
:102C8000F6B2502171434018EDB2405D303001A9D9
:102C9000EDB2491948706D1CC7E7202001A95131D8
:102CA0000870202001A952310870202001A9553157
:102CB0000870202001A956310870202001A959313F
:102CC0000870202001A95A310870202001A95D3127
:102CD0000870202001A95E310870202001A961310F
:102CE0000870202001A9623108700A2001A963310F
:102CF00008708148F6B280570A21FEF7A7FD3030F0
:102D000001A9533108707C48F6B280570A21FEF7BA
:102D10009DFD303101A8543001705648F6B28057FD
:102D20000A21FEF793FD303001A957310870514850
:102D3000F6B280570A21FEF789FD303101A85830DC
:102D400001704B48F6B280570A21FEF77FFD303004
:102D500001A95B3108704648F6B280570A21FEF798
:102D600075FD303101A85C300170F6B230000A21E7
:102D7000FEF76CFD303001A95F310870F6B230000B
:102D80000A21FEF763FD303101A860300170002098
:102D90000700FFB2042F23DA19201AA908700020B7
:102DA0000400E4B2192C0CDA01A8FFB2192179430E
:102DB000E4B20919405C1AA9E4B209194870641C0C
:102DC000EFE71A21009801F06FFE012803D101F00E
:102DD0009CFE0028FBD0022001F0AEFA7F1CD8E751
:102DE000761C19E721B0F0BDC0FAFF1FA8FAFF1F3B
:102DF000F8B50027002600240025FFB2382F33DA6B
:102E00000837FFB238000821FEF720FD0100C9B2E3
:102E1000182000F037FE00200600F6B2502EECDA43
:102E20000020040001200500EDB2082D0CDA0F4847
:102E3000FFB2EDB2791B502251434018F6B2805DCB
:102E4000241864006D1CEFE70848FFB25021794355
:102E50004018F6B280197A49405C24182000C0B2AC
:102E600000F0A9FD761CD8E7F1BD0000E4E7FF1FE4
:102E7000A4E7FF1F2CE7FF1F10B584B003206946AD
:102E800048700320C043694688706E48006802217C
:102E9000FEF7DCFC6946C8706B4800681821FEF735
:102EA000D5FC69460871694800681821FEF7CEFC18
:102EB00069464871664800681C21FEF7C7FC6946F0
:102EC00088710320C0436946C871032069460872AF
:102ED000082069460870684604000821200001F0B7
:102EE000E3FD012803D101F010FE0028FBD00120F2
:102EF00001F022FA1FBD000068E7FF1F78B56B469E
:102F0000544C25881D801400621E002C4ED00C7875
:102F10002300491C6C46DBB21D00ED11645D04709A
:102F2000401C6C46DBB21D00AD112E00F607F60FFB
:102F3000A45D0470401C6C46DBB21D006D112E00B8
:102F4000F607F60FA45D0470401C6C46DBB21D0052
:102F50002D112E00F607F60FA45D0470401C6C4680
:102F6000DBB21D00ED102E00F607F60FA45D047015
:102F7000401C6C46DBB21D00AD102E00F607F60FAC
:102F8000A45D0470401C6C46DBB21D006D102E0069
:102F9000F607F60FA45D0470401C6C46DBB21D0002
:102FA000ED07ED0F645D0470401CACE771BD80B5AA
:102FB00029480068012816D1472001F02DFF00287C
:102FC00004D101F08EFF1F49086004E001F089FF81
:102FD00041421C48016001F08BFF1F48006801213D
:102FE00001431D4801601D480068012805D10120EA
:102FF0001B490870012000F05AFC01BD10B50024E7
:103000001220040017480068E040C00705D50120E1
:10301000A0401449086001F08FFD10BD38B50024B0
:10302000114805680020C0430F49086006200400CD
:103030002800E040C00701D501F034F831BD0000A0
:1030400080FDFFFFE0E7FF1FB0FAFF1FA8FAFF1F98
:10305000C0FAFF1F461B00000C7103401C710340A7
:1030600020E4FF1FA0B00440A090044080B501F010
:1030700051F801BD10B50124042001F073F90820B6
:1030800001F0F0F800F0D8FDE1214902002001F044
:103090004BFF01F0D1FB02F0E3F80023BE4A002110
:1030A000012002F06FF90023BB4A0121012002F048
:1030B00069F9BA4BC8220021002002F063F900220E
:1030C000B749022001F0CEFE00220021472001F086
:1030D000D9FD042001F0FCF8002800D09EE3032075
:1030E00001F0F6F8002813D1E4B2062C02D0E4B2C5
:1030F0000C2C02D1002000F0DDFC641CE4B2072C93
:1031000001DB01200400032001F0E2F80028FAD0DE
:10311000022001F0DDF8002813D1E4B2012C02D026
:10312000E4B2072C02D1002000F0C4FC641EE4B21B
:10313000002C01D106200400022001F0C9F800286B
:10314000FAD0E4B2072C00DB02E2B54A00210020ED
:1031500000F0C8FDB34A0221062000F0C3FDD14AA9
:103160000321062000F0BEFDCE4A0421062000F017
:10317000B9FDCD4A0521062000F0B4FDCB4A062159
:10318000062000F0AFFDCA4A0721062000F0AAFD84
:10319000C848006800F0D8FB02000221402000F07F
:1031A000A9FEC5480021405600F0CEFB02000321D5
:1031B000402000F09FFEC1480021405600F0C4FBB3
:1031C00002000421402000F095FEBD480021405639
:1031D00000F0BAFB02000521402000F08BFEB94848
:1031E0000021405600F0B0FB02000621402000F014
:1031F00081FED4480021405600F0A6FB02000721C2
:10320000402000F077FEE4B2012C0ED000D260E73F
:10321000032C00D183E045D3052C00D104E100D27A
:10322000C0E0062C00D14FE153E7C7A202210020E5
:1032300000F058FDC5A20321002000F053FDC3A2F9
:103240000421002000F04EFDC0A20521002000F066
:1032500049FDBEA20621002000F044FDBBA20721CB
:10326000002000F03FFD012001F032F8002809D1D4
:103270009048006814308F490860012001F028F858
:103280000028FAD0002001F023F8002809D189484D
:103290000068143887490860002001F019F80028F8
:1032A000FAD016E7A9A20221002000F01BFDA6A279
:1032B0000321002000F016FDA4A20421002000F04C
:1032C00011FDA2A20521002000F00CFD9FA2062105
:1032D000002000F007FD9DA20721002000F002FD64
:1032E000012000F0F5FF002809D173480078401D47
:1032F00071490870012000F0EBFF0028FAD000208F
:1033000000F0E6FF002809D16B480078401F6A49A9
:103310000870002000F0DCFF0028FAD0D9E68BA26C
:103320000221002000F0DEFC88A20321002000F032
:10333000D9FC85A20421002000F0D4FC83A2052141
:10334000002000F0CFFC81A20621002000F0CAFC82
:103350007EA20721002000F0C5FC012000F0B8FF8C
:10336000002809D155480078401D544908700120B3
:1033700000F0AEFF0028FAD0002000F0A9FF0028DE
:1033800009D14E480078401F4C490870002000F0D9
:103390009FFF0028FAD09CE610270000FC3A0000AE
:1033A000FFFF000069A20221002000F09BFC67A241
:1033B0000321002000F096FC64A20421002000F00C
:1033C00091FC61A20521002000F08CFC5FA2062187
:1033D000002000F087FC5DA20721002000F082FCA5
:1033E000012000F075FF002809D135480078401D04
:1033F00033490870012000F06BFF0028FAD000204C
:1034000000F066FF002809D12D480078401F2C49A4
:103410000870002000F05CFF0028FAD059E600BFD9
:10342000D46E00008C6F000048A20221002000F042
:1034300059FC46A20321002000F054FC43A20421C1
:10344000002000F04FFC41A20521002000F04AFCC2
:103450003DA20621002000F045FC3CA207210020EF
:1034600000F040FC012000F033FF002809D115488E
:103470000078401D13490870012000F029FF002842
:10348000FAD0002000F024FF002809D10D48007870
:10349000401F0C490870002000F01AFF0028FAD0E5
:1034A00017E600BF946F00009C6F0000A46F00003F
:1034B000AC6F0000B4FAFF1F10E4FF1F11E4FF1F00
:1034C00012E4FF1F13E4FF1F20A20221002000F0DE
:1034D00009FC1EA20321002000F004FC1BA2042111
:1034E000002000F0FFFB19A20521002000F0FAFBEC
:1034F00016A20621002000F0F5FB13A207210020F0
:1035000000F0F0FB012000F0E3FE002809D10D4897
:103510000078401D0B490870012000F0D9FE0028FA
:10352000FAD0002000F0D4FE002809D10548007828
:10353000401F04490870002000F0CAFE0028FAD09D
:10354000C7E500BF140A00203E0000002000000074
:10355000B44A0021002000F0C5FBB3A202210620DE
:1035600000F0C0FBB0A20321062000F0BBFBAEA21E
:103570000421062000F0B6FBABA20521062000F0D6
:10358000B1FBA9A20621062000F0ACFBA6A20721F0
:10359000062000F0A7FBE4B2072C0DD000D298E57E
:1035A000092C6FD03BD30B2C00D1D1E000D29CE092
:1035B0000C2C00D1FFE08CE59CA20221002000F041
:1035C00091FB9BA20321002000F08CFB98A2042118
:1035D000002000F087FB96A20521002000F082FB6E
:1035E00093A20621002000F07DFB91A2072100207C
:1035F00000F078FB012000F06BFE002804D10120D0
:1036000000F066FE0028FAD0002000F061FE0028DD
:1036100004D1002000F05CFE0028FAD059E584A215
:103620000221002000F05EFB80A20321002000F0B8
:1036300059FB7FA20421002000F054FB7CA205214D
:10364000002000F04FFB7AA20621002000F04AFB88
:1036500077A20721002000F045FB012000F038FE92
:10366000002804D1012000F033FE0028FAD0002009
:1036700000F02EFE002804D1002000F029FE0028D2
:10368000FAD026E56AA20221002000F02BFB68A2F6
:103690000321002000F026FB64A20421002000F09A
:1036A00021FB63A20521002000F01CFB60A2062183
:1036B000002000F017FB5EA20721002000F012FBA3
:1036C000012000F005FE002804D1012000F000FEDA
:1036D0000028FAD0002000F0FBFD002804D10020D3
:1036E00000F0F6FD0028FAD0F3E451A202210020F8
:1036F00000F0F8FA4EA20321002000F0F3FA4CA2E9
:103700000421002000F0EEFA48A20521002000F07C
:10371000E9FA47A20621002000F0E4FA44A20721BA
:10372000002000F0DFFA012000F0D2FD002804D1D3
:10373000012000F0CDFD0028FAD0002000F0C8FDE7
:10374000002804D1002000F0C3FD0028FAD0C0E416
:1037500037A20221002000F0C5FA35A20321002083
:1037600000F0C0FA32A20421002000F0BBFA30A21F
:103770000521002000F0B6FA2CA20621002000F05E
:10378000B1FA2BA20721002000F0ACFA012000F0D2
:103790009FFD002804D1012000F09AFD0028FAD0F6
:1037A000002000F095FD002804D1002000F090FDDD
:1037B0000028FAD08DE41EA20221002000F092FA27
:1037C0001BA20321002000F08DFA19A20421002081
:1037D00000F088FA16A20521002000F083FA14A256
:1037E0000621002000F07EFA10A20721002000F040
:1037F00079FA012000F06CFD002804D1012000F0CE
:1038000067FD0028FAD0002000F062FD002804D1F6
:10381000002000F05DFD0028FAD05AE4002000F0FE
:1038200049F910BDD46E00003A0000003E000000CF
:103830002000000038B504000D00002D03D1242124
:10384000294801F0DFFE294800688021090401436E
:1038500026480160002026490860681E254964B298
:10386000102262438850234864B2102161434018FB
:10387000C068012101431F4864B2102262438018CE
:10388000C1601C4864B21021614340188068012166
:103890008843184964B21022624389188860032063
:1038A000144964B2102262438918886031BD1149FD
:1038B00040B2102242438918C96801220A430D49C7
:1038C00040B210234343C918CA600A4940B21022CB
:1038D00042438918896801229143064A40B2102365
:1038E0004343D218916070472C6D00003C80044027
:1038F000007003400071034010B5040020008021D7
:103900008900FDF7A3FF002903D01E210B4801F019
:1039100079FE0B48046010BD38B504000D0008485E
:1039200000680849884203D03021044801F06AFE4B
:10393000044864B204216143455031BDCC6D0000A0
:1039400008ED00E000E0FF1F9D2102000AD5F446CB
:10395000524200F007F80122D207104360470000EE
:103960009D2102000AD002D4491E9218FCD5C90537
:10397000100A1206524100D3012A48417047000044
:1039800080B501220121992001F07CF90122012159
:103990009D2001F077F9012201219E2001F072F9AA
:1039A00001220121982001F06DF9002201219F20C0
:1039B00001F068F901BD00B50821554A126880235D
:1039C000DB051343524A1360514A1268514B1340AE
:1039D0004F4A13600A00511ED2B2002A1ED00206BE
:1039E00007D54B4A126880239B041343484A13604F
:1039F00005E0474A1268484B1340454A1360444A61
:103A0000126880235B041343414A1360404A1268E2
:103A1000404B13403E4A13604000DBE700BD00B559
:103A200008213B4A12683D4B1340394A1360384A1B
:103A30001268384B1340364A13600A00511ED2B246
:103A4000002A1ED0020607D5314A126880239B0443
:103A500013432F4A136005E02D4A12682E4B134082
:103A60002B4A13602A4A126880235B041343284AB6
:103A70001360274A1268274B1340254A1360400001
:103A8000DBE700BD38B505000C0020005038C0B29F
:103A9000FFF7C5FF2900C9B2090910200843C0B2C9
:103AA000FFF7BDFF2907090F01200843C0B2FFF748
:103AB000B6FF31BD70B5040000200500EDB2082D41
:103AC00017DA28005038C0B2FFF7A9FF0120FFF72E
:103AD000A6FF1020FFF7A3FF00200600F6B2802EFD
:103AE00005DA2000C0B2FFF766FF761CF6E76D1C12
:103AF000E4E770BD00B580B2002808D0784A110014
:103B00000A00511E92B2002AFAD1401EF3E700BD0E
:103B100000F10F40FFFFFFFEFFFFFFFDFFFFFFBFB4
:103B200010B504002020FFF77AFF2000C0B2FFF795
:103B300076FF10BD10B5040040202043C0B2FFF74F
:103B40006EFF10BD10B504008120FFF768FF200054
:103B5000C0B2FFF764FF10BD10B504008D20FFF761
:103B60005EFF10202043C0B2FFF759FF10BD10B513
:103B70000400A0202043C0B2FFF751FF10BD10B5D4
:103B80000400A4202043C0B2FFF749FF10BD10B5C8
:103B90000400A6202043C0B2FFF741FF10BD10B5BE
:103BA0000400A820FFF73BFF2000C0B2FFF737FF5B
:103BB00010BD10B50400AE202043C0B2FFF72FFFA8
:103BC00010BD10B50400C0202043C0B2FFF727FF8E
:103BD00010BD10B50400D320FFF721FF2000C0B2B4
:103BE000FFF71DFF10BD10B50400D520FFF717FF2C
:103BF0002000C0B2FFF713FF10BD10B50400D9209C
:103C0000FFF70DFF2000C0B2FFF709FF10BD10B590
:103C10000400DA20FFF703FF02202043C0B2FFF7C1
:103C2000FEFE10BD10B50400DB20FFF7F8FE2000FB
:103C3000C0B2FFF7F4FE10BD80B5FFF7A1FE444807
:103C40000068802149040143414801604048006800
:103C5000404901403E4801603220FFF74BFF3C489D
:103C60000068802189050143394801600020FFF781
:103C7000A0FF8020FFF7B7FF3F20FFF790FF002055
:103C8000FFF7A7FF0020FFF755FF0420FFF764FFB1
:103C90000220FFF745FF0120FFF769FF0820FFF72B
:103CA00090FF1020FFF7B3FFCF20FFF74BFFF1206D
:103CB000FFF7A3FF4020FFF7B5FF0020FFF75FFFEE
:103CC0000020FFF764FF0120FFF773FF0020FFF7DC
:103CD000F1FE00210020FFF7D5FE01BD000000002D
:103CE00037050000F4B582B004000F0000206946DB
:103CF0000870002500260298F6B28057002825D0CB
:103D000068460299F6B2895720390170E4B27F2CD7
:103D100002DB002004007F1C3900C9B22000C0B2C1
:103D2000FFF7B0FE00200500EDB2062D0BDA6F485C
:103D300069460978062251434018EDB2405DFFF70D
:103D40003AFE6D1CF0E7A41D761CD4E7F7BD000019
:103D500000F10F40FFFFFFDFF5B581B00F00002439
:103D6000002601250298F6B28057002800D187E08E
:103D700000200400012005005D48E4B2005D8028B9
:103D80001DDB5B48E4B2005D0299F6B2895700B2D0
:103D900009B2884211D15648E4B20019407802991C
:103DA000F6B289190122895600B209B2884204D1BB
:103DB000E4B20E206043050001E0A41CDCE7684685
:103DC0000079772803DB0020694608717F1C3900E1
:103DD000C9B268460079FFF755FEADB2012D26D075
:103DE0003900C9B268460079FFF74CFE0020040094
:103DF000E4B20E2C07DA6248ADB2405DFFF7DBFD9E
:103E00006D1C641CF4E73900491CC9B2684600798E
:103E1000FFF738FE00200400E4B20E2C29DA5848DF
:103E2000ADB2405DFFF7C7FD6D1C641CF4E7761C66
:103E30003900C9B268460079FFF724FE002004006B
:103E4000E4B2102C04DA0020FFF7B5FD641CF7E79C
:103E50003900491CC9B268460079FFF713FE0020FB
:103E60000400E4B2102C04DA0020FFF7A4FD641C67
:103E7000F7E76846694609790E310171B61C71E7AA
:103E8000F7BDF8B505000F0016000024E4B2305766
:103E900000282AD0E4B230577F2815D1E4B2305D33
:103EA00069460870E4B230194078694648700020CD
:103EB000694688706A463900C9B22800C0B2FFF767
:103EC0004BFF0E35A41CE1E7E4B2305D6946087093
:103ED0000020694648706A463900C9B22800C0B25D
:103EE000FFF700FF0835641CD0E7F1BDB0680000A3
:103EF000D31B0000F0B583B007000E0015002800AA
:103F000001F0AAFB0400002C02D4202069460870AE
:103F1000002C04D52D206946087060420400200062
:103F2000FA218900FDF792FC0A21FDF78FFC303160
:103F30006846417020006421FDF788FC0A21FDF7E6
:103F400085FC30316846817020000A21FDF77EFC37
:103F50000A21FDF77BFC30316846C17020000A2140
:103F6000FDF774FC303168460171002069464871E4
:103F70006A463100C9B23800C0B2FFF7B3FEF7BDE0
:103F8000D21B00000121C206D20E9140A04A11604E
:103F900070470121C206D20E91409E4A11607047BF
:103FA00070B49D4C40B2102545436419A568802427
:103FB00064042C43984D40B210264643AD19AC60C2
:103FC0001C02240A944D40B210264643AD19AC6041
:103FD000914C40B21025454361518F4C40B21025A1
:103FE0004543641962608D4C2478802525438B4CB1
:103FF0002570894C40B2102545436419E56880243A
:10400000E4052C43844D40B210264643AD19EC60C4
:1040100070BC704710B504000020814908708148C9
:10402000046000F099F80028FBD000F002F80020AE
:1040300010BD00B583B09620800001900120009053
:104040000723784802687849002001F052FB734842
:1040500000784006400E71490870744800684000BE
:104060004008724908600020FFF78CFF1E20FFF710
:1040700090FF6E4800688021090601436B4801608B
:104080000020FFF77FFF6A49072001F0F3FB694931
:10409000062001F0EFFB61480078802101435F4872
:1040A000017007BD80B564480021405604281BD12B
:1040B0000320614908701E20FFF76BFF80205F49D5
:1040C00008605A480068802109060143574801608A
:1040D0000020FFF757FF96239B0052480268524981
:1040E0000020FFF75DFF05E01E20FFF752FF0220D2
:1040F00051490870504800214056022809D1042037
:104100004D4908700020C0434C4908601E20FFF74D
:1041100039FF01BD80B5454800684000400843496B
:1041200008600020FFF72EFF01204349087001209E
:104130003B490870424800688021490401434048D7
:10414000016004203C4908700020C0433B490860DE
:104150001E20FFF717FF01BD10B582B0002400201C
:104160006946087001F0FEFB8021122001F0A0FDDD
:10417000002804D1334801F02DFE002046E0322013
:1041800000F0DAF80B220121684601F0C9FD002891
:1041900004D12D4801F01EFE002037E0684601786A
:1041A0002A4801F017FE2A4801782A4801F012FE39
:1041B00068460078212828D100200400244800788F
:1041C000A4B280B284421BD22348A4B2022161432C
:1041D000401841782048A4B202226243805C80B239
:1041E00001F066FD002809D11B48A4B202216143F9
:1041F000415C1A4801F0EEFD002007E0641CDDE799
:10420000174801F0E7FD012000E0002016BD000086
:1042100000E100E080E100E0008100400010024089
:10422000210A00201005002012F10F400C810040EF
:10423000020102001201090081E6FF1FA090044064
:1042400008810040EC6E00005C6F0000146E0000FE
:10425000E8E6FF1F6C6E000084E6FF1F046F00009D
:10426000386E000010B5040064B2082C0DDA01228B
:104270000021224864B2005D00F004FD03211F48C4
:1042800064B2005D01F01EFB14E008200400200071
:10429000441E40B200280DD001220021174864B20C
:1042A000005D00F0EFFC0321144864B2005D01F0F2
:1042B00009FBECE710BD10B50400104864B2005DC6
:1042C00000F0AAFD002801D1002000E0012010BD6F
:1042D00010B50400200040B2FFF7EDFF00280AD11E
:1042E0000F2000F029F8200040B2FFF7E4FF00287B
:1042F00001D1002000E0012010BD000064E6FF1F96
:1043000010B50400002C16D080204004844203D352
:1043100029210F4801F076F900200E4908600E4867
:10432000046000200D49086005200A49086009481A
:104330000068C003FBD510BD10B504002000441E6A
:10434000002804D006480068FFF7DAFFF6E710BD42
:10435000B06C000010E000E014E000E018E000E0C5
:10436000ECFAFF1F10B5040064B2042C07DA012236
:104370000121264864B2005D00F084FC0EE00420B8
:1043800004002000441E40B2002807D00122012171
:104390001E4864B2005D00F075FCF2E710BD38B550
:1043A00005000C006DB2042D07DA2100C9B21748D0
:1043B0006DB2405D00F0CDFC0EE004200500280049
:1043C000451E40B2002807D02100C9B20F486DB287
:1043D000405D00F0BEFCF2E731BD10B5040064B2F0
:1043E000042C05DA094864B2005D00F0F5FC0CE02D
:1043F000042004002000441E40B2002805D00348D9
:1044000064B2005D00F0E8FCF4E710BD6CE6FF1F4D
:1044100038B504000D00002C0AD400220021012030
:1044200001F06EF822000121012001F069F809E095
:1044300062420021012001F063F8002201210120E5
:1044400001F05EF803482A180021002001F058F816
:1044500031BD0000FC3A0000FEB5DA4800680C21CE
:104460004843D9490860FEF729F9D8490870D74868
:1044700000214056002800D1D3E0D4480021405606
:1044800001284CD1D24800214056002847D1D148BC
:104490000068D149884205DACE4800681E30CD490F
:1044A000086002E0CC48CB49086009220521CB48CE
:1044B0000078FEF7A1F8040010220A21C74800780E
:1044C000FEF79AF8060019221121C4480078FEF779
:1044D00093F8050024221A21C0480078FEF78CF8D2
:1044E000E4B2273C00214C43F6B2273E3C214E4328
:1044F000A11BEDB2273D00225543491BC0B227380E
:10450000002250430C1A31222521B4480078FEF7CE
:1045100073F8273800214843201AB1490860AB4896
:104520000021405602283AD1AE48AA490860092223
:104530000521AA480078FEF75FF8060010220A213C
:10454000A6480078FEF758F8050019221121A34863
:104550000078FEF751F8040024221A219F480078C1
:10456000FEF74AF8A04900228956F6B2273E714369
:104570009E4A0023D256EDB2273D6A43891A9C4ACF
:104580000023D256E4B2273C6243891A994A002399
:10459000D256C0B227384243881A914908608B48E6
:1045A00000214056032800D0B1E08E4889490860B8
:1045B0000922052189480078FEF71EF8060010221E
:1045C0000A2186480078FEF717F805001922112104
:1045D00082480078FEF710F8040024221A217F4850
:1045E0000078FEF709F8804900228956F6B2273E86
:1045F00071437E4A0023D256EDB2273D6A43891AA1
:104600007B4A0023D256E4B2273C6243891A794A96
:104610000023D256C0B227384243881A7049086036
:1046200075E06B4800214056002825D17248694941
:10463000086031222E2169480078FDF7DDFF040073
:104640001C221A2165480078FDF7D6FFE4B2273C0A
:1046500000214C43C0B2273832214843241A0A2291
:1046600008215E480078FDF7C7FF273846214843F8
:10467000201A5B4908604AE0C820C000554908601C
:104680000922052155480078FDF7B6FF07001022E2
:104690000A2152480078FDF7AFFF060019221121C8
:1046A0004E480078FDF7A8FF050024221A214B4848
:1046B0000078FDF7A1FF040031222521474800784A
:1046C000FDF79AFF484900228A565142FFB2273F20
:1046D0007943464A0023D256F6B2273E7243891ADE
:1046E000434A0023D256EDB2273D6A43891A414A14
:1046F0000023D256E4B2273C6243891A3F4A002382
:10470000D256C0B227384243881A3549086031482A
:1047100000683B49096840183A4908602F4800780A
:10472000032813D038480290384801902648006882
:1047300000903448036836480268364801683648B5
:10474000006801F059FB3549086019E01D48006810
:10475000C82803DB32483149086006E01948006880
:104760002721C94348432D4908600320FFF735FE40
:104770000320FFF7ADFD002802D101201749087082
:104780001748006816490968264A1268891A0622DD
:1047900051434018244908601148006821490860C5
:1047A000214800682149884202DB21481E490860EF
:1047B0001D4800681F49884202DA1E481A490860ED
:1047C000F7BD00BFE0E7FF1FA4FAFF1F1A0A002091
:1047D000170A0020ACFAFF1F8C0A000020E4FF1F1C
:1047E000B8FAFF1FA406000010E4FF1F11E4FF1F2A
:1047F00012E4FF1F13E4FF1F6C070000140A0020DF
:10480000B4FAFF1FB0FAFF1F28230000D8DCFFFF17
:1048100018E4FF1F1CE4FF1F14E4FF1FA8FAFF1F8A
:10482000C0E0FFFFBCFAFF1FC0FAFF1F290A00000B
:10483000280A0000D8F5FFFF80B5964B0022012121
:10484000012001F0F1FB00220121852000F01AFA7D
:1048500000220021522000F015FA8F49522001F069
:1048600031F88E480068202188438C490860032174
:10487000232000F035F84021252000F031F80F21E9
:10488000262000F02DF80121212000F029F8012137
:10489000222000F025F8052281492A2000F047F85F
:1048A0002021312000F01CF8FF21E22000F018F850
:1048B00005227C49302000F03AF80F21242000F036
:1048C0000FF8FF21E12000F00BF800F093F8734897
:1048D0000068202101437148016000F050F802BDDA
:1048E00030B583B005000C006846057101A844701E
:1048F0000220009001AB01AA0121012001F0F6FB8A
:10490000684600793EBD30B583B005000C006846AE
:1049100005710220009001AB01AA0121012001F0E4
:10492000E5FB01A840782070684600793EBD31B5AE
:1049300084B00D0014000394012002900020019027
:10494000009504AB04AA0121012001F013FC684684
:10495000007C05B030BD31B584B00D001400039467
:104960000120029001950020009004AB04AA0121CF
:10497000012001F0FFFB6846007C05B030BD10B59A
:1049800088B005A86A490CC90CC00839083830201D
:1049900069460874052003900120029000200190D0
:1049A00005A80090002304AA0121012001F0E2FBE8
:1049B000102069460874052003900120029005A884
:1049C000019000200090002304AA0121012001F0A1
:1049D000D1FB00200400E4B2052C08DA05A8E4B2FB
:1049E000005DC22801D0002002E0641CF3E7012032
:1049F00008B010BD80B529480068202188432749A8
:104A0000086001212120FFF76BFF01212220FFF721
:104A100067FF052222492A20FFF789FF0F21202066
:104A2000FFF75EFFFF212720FFF75AFFFF21E2205B
:104A3000FFF756FF1948006820210143174801601D
:104A400002203C49087001BD80B51448006820214F
:104A5000884312490860052212493020FFF767FF9A
:104A600005220F492A20FFF762FF0E212020FFF7C1
:104A700037FF0A48006820210143084801600120EF
:104A80002C490870754800900098411E009100283C
:104A9000FAD101BD20BCBE0003000A0000F10F40A6
:104AA00078E6FF1F70E6FF1F38B504000D000020F8
:104AB00070490870002C01D0002D01D1002023E0A6
:104AC0006D48006800281ED1681E40096B490860C7
:104AD0006948046017480078012801D0FFF7B4FF47
:104AE0006348006820218843614908602022210032
:104AF000A020FFF71CFF5E480068202101435C48AE
:104B00000160012000E0002032BD00B55A48006875
:104B100000280BD159480068002807D15548007873
:104B2000002801D0012002E0022000E0002000BDAA
:104B3000BC6F00001C0A002010B582B06946072037
:104B4000FFF7E1FE684601782720FFF7C9FE6846B7
:104B50000078400639D546480068202188434449FA
:104B600008603F480078022825D020223D483F4970
:104B700009782023594341186120FFF7ECFE3B4898
:104B80000078401C3949087038480078502802DB0A
:104B90000020364908703448007804003348007813
:104BA000E4B2A04203D102202D49087007E00120A1
:104BB0002B49087003E0FF21E220FFF791FE2C480B
:104BC0000068202101432A48016068460078800679
:104BD0002FD52A480068002809D1002026490860FE
:104BE00027480078022824D0FFF704FF21E024485A
:104BF0000078012801D0FFF727FF1F480068203008
:104C00001D4908601D480068401E1C49086018487E
:104C10000068202188431649086020221648016850
:104C2000A020FFF784FE12480068202101431048AD
:104C3000016068460078C0060ED501200D49087055
:104C4000FF21E120FFF74CFE00200B490860002007
:104C50000A490860FFF7CEFE13BD0000FF0F0000F9
:104C60001F0A0020F8FAFF1F1D0A00201E0A00205C
:104C700000F10F40200A0020F8040020FC0400206E
:104C80001C0A002070B504000D0016006DB2002D46
:104C900015D17248E4B22100491104225143405811
:104CA0006E49E4B22200521104235A4389584969DB
:104CB0000122E306DB0E9A409143416142E06748DE
:104CC000E4B2210049110422514340586349E4B23F
:104CD0002200521104235A43895849690122E306EC
:104CE000DB0E9A400A434261F6B2002E15D15B48B2
:104CF000E4B22100491104225143405800680121C7
:104D0000E206D20E914088435449E4B22200521187
:104D100004235A438958086014E05048E4B2210043
:104D2000491104225143405801680120E206D20E85
:104D3000904008434949E4B22200521104235A43E7
:104D400089580860802149002000C0B200F092FD1F
:104D500070BD38B504000D004048E4B2210049118F
:104D60000422514340584069E106C90EC840C007BB
:104D700003D469213A4800F045FCEDB2002D15D16D
:104D80003648E4B2210049110422514340580068DA
:104D90000121E206D20E914088433049E4B222005C
:104DA000521104235A438958086014E02B48E4B296
:104DB0002100491104225143405801680120E206B4
:104DC000D20E904008432549E4B222005211042338
:104DD0005A438958086031BD10B504001F48E4B239
:104DE000210049110422514340584069E106C90E8F
:104DF000C840C00703D48121194800F003FC1748BC
:104E0000E4B2210049110422514340580121E20635
:104E1000D20E9140C16010BD10B504000F48E4B23D
:104E2000210049110422514340584069E106C90E4E
:104E3000C840C00703D59221094800F0E3FB0748AA
:104E4000E4B2210049110422514340580169E006AF
:104E5000C00EC1400800C007C00F10BDE0E5FF1F35
:104E6000046D000070B504000D001600274800789E
:104E70008021014325480170254800680121014334
:104E80002348016064B2012C05D1C021C900132060
:104E900000F0F0FC0CE064B2022C05D1C0218900C6
:104EA000452000F0E7FC03E033211A4800F0AAFB9C
:104EB00000201B490860232017490860ADB217483D
:104EC000056076B2012E01D1082000E0002064B216
:104ED000210130220A401043432101431048016060
:104EE00070BD00200F4908600E48006880B270470E
:104EF0000B48006801218843094908600848006898
:104F0000012101430648016070470000005006403F
:104F100038800440846C0000040004400800044011
:104F2000000004400C000440F1B584B00F00AE480E
:104F300069468881694610200856002803D0022857
:104F400025D012D335E0A94800688021C90001436B
:104F5000A6480160C02189000F2000F08BFCC02111
:104F600089000E2000F086FC23E0A0480068802124
:104F7000090101439D480160C0218900432000F0E0
:104F800079FCC0218900442000F074FC11E09748AE
:104F9000006880214901014394480160C0218900D3
:104FA000622000F067FCC0218900632000F062FCF1
:104FB000FFE7694610200856002800D0ABE08C4877
:104FC00000688C4901408A480160894800688A4924
:104FD00001438748016089480078F32101408748F0
:104FE0000170002086490870864800688649484359
:104FF0000221FCF72BFC029004200400E4B2212CD7
:1050000064DA0298E4B22100491C7943FCF721FCE0
:105010000500ADB280208001854255DA0298ADB21C
:10502000E4B22100491C6943FCF713FC019001988C
:10503000C01B012803DB01983900461A02E00198E1
:10504000C01B4642B6B2002E05D168460580E4B2C8
:10505000684644803AE068468089B6B2864206D205
:105060006846868168460580E4B2684644806D1CC7
:10507000ADB280208001854226DA0298ADB2E4B25A
:105080002100491C6943FCF7E4FB01900198C01B17
:10509000012803DB01983900461A02E00198C01B81
:1050A0004642B6B2002E05D168460580E4B2684695
:1050B00044800BE068468089B6B2864204D26846D6
:1050C0000580E4B268464480641C97E75C48007839
:1050D000E02101400C006846008880B2000AC0064A
:1050E000C00E20435649087068460088554908702C
:1050F00055480078E02101400C0068464088C00611
:10510000C00E2043504908703C4800780C210143F0
:105110003A48017066E04D486A4610215156042213
:1051200051434058C178F320084048496B4610224B
:105130009A5604235A438958C870002143486B4645
:1051400010229A5604235A438058817040480068C0
:10515000FA21890048430290029810217943FCF714
:1051600078FB69460880684600888021890188426A
:1051700002DB38486946088034486A461021515697
:105180000422514340580078E02101400C00684659
:10519000008880B2000AC106C90E21432B486B4625
:1051A00010229A5604235A43805801706846018899
:1051B00026486B4610229A5604235A438058417061
:1051C00022486A4610215156042251434058C17862
:1051D0000C2008431D496B4610229A5604235A435B
:1051E0008958C87005B0F0BDFFFF0000348004404E
:1051F00004800440FFFFFFF30000010403A0064009
:1052000002A00640E8FAFF1F40420F0000B540B27E
:10521000002806D1104A12781206FBD50F4A1170E9
:105220000DE00A4A40B204234343D25812791206D1
:10523000F7D5064A40B204234343D258D17100BD8A
:1052400000A0064001A006400AA0064054E6FF1F49
:10525000F4FAFF1FFF1F000004A0064007A006404D
:1052600000B504200100481E00290CD00649042284
:10527000424389582331490920225143034A0423D8
:105280004343D150EEE700BD706F000000050020E1
:1052900038B504000D0064B2002C03D0022C55D0A8
:1052A00039D36EE095480068802149040143934852
:1052B00001606DB2002D08D0022D12D00BD3042D49
:1052C0001BD014D3052D1ED023E08021C9006020FF
:1052D00000F0D0FA1EE0C0218900992000F0CAFA3F
:1052E00018E0C02189009D2000F0C4FA12E0C0211E
:1052F00089009E2000F0BEFA0CE0C02189009F20AA
:1053000000F0B8FA06E0C02189009A2000F0B2FA55
:1053100000E036E035E079480068802189040143E7
:10532000764801606DB2002D02D0012D06D00BE051
:10533000C0218900202000F09DFA06E0C0218900EC
:10534000212000F097FA00E01BE01AE06B480068AB
:105350008021C9040143694801606DB2002D02D06B
:10536000012D06D00BE0C0218900012000F082FA57
:1053700006E0C0218900022000F07CFA00E000E095
:10538000FFE731BDFCB583B006000F0076B2002EFA
:1053900002D17FB2062F0CDB76B2012E02D076B29C
:1053A000022E02D17FB2022F03DBD8218B4800F0FE
:1053B00029F9390049B2300040B2FFF769FF884847
:1053C000006888494843401001900198000C0399F7
:1053D000FCF73FFA040000200500A4B22000284199
:1053E000012801DB6D1CF8E7EDB2082D03DBF3218A
:1053F0007A4800F007F90198E8400399FCF729FA88
:10540000040076B2002E03D0022E17D00BD320E07A
:105410000498A4B22100491C48437349FCF719FAC7
:105420006946088015E00498A4B22100491C48434D
:105430006E49FCF70EFA694608800AE00498A4B2A7
:105440002100491C48436421FCF703FA694608809F
:10545000FFE7674876B20421714340587FB20821C4
:1054600079434018624976B20422724389587FB268
:1054700008227A438918C96804229143C1605C48B4
:1054800076B20421714340587FB208217943401815
:105490002821C160574800685749014055480160BC
:1054A0005448006880214904014352480160EDB22C
:1054B0006907490F082008434D4976B20422724318
:1054C00089580860A4B24A4876B204217143405812
:1054D0008460474876B20421714340587FB2082166
:1054E000794340186946098801610020404976B235
:1054F000042272438958486005B0F0BD3C800440E6
:10550000F8B505000F00160000246DB2002D02D181
:105510007FB2062F0DDB6DB2012D02D06DB2022DD0
:1055200002D17FB2022F04DBFF2130312B4800F083
:1055300069F86DB2002D03D0022D13D009D319E004
:105540002E48864204D39A214900244800F05AF894
:1055500010E02B48864204D39C2149001F4800F0EC
:1055600051F807E0652E04D39E2149001B4800F046
:1055700049F8FFE71E486DB204216943405880682E
:105580000400002CF6D06DB2002D03D0022D11D0F6
:1055900008D317E02000401C70431349FCF759F969
:1055A00000900FE02000401C70431049FCF751F9B7
:1055B000009007E02000401C70436421FCF749F98B
:1055C0000090FFE70A486DB20421694340587FB25A
:1055D00008217943401800990161F1BD7C6D0000FC
:1055E000E8FAFF1F40420F0050C3000010270000E0
:1055F00048E6FF1F04800440FFFFFFFC51C300008A
:105600001127000038B504000D002A0021000E48C3
:1056100000F0E0FBFEE738B504000D00210049B2C0
:105620000020FFF7F3FD200032BD704710B507489A
:1056300004680748E4B2092161434218E4B221003A
:10564000044800F0C7FB10BDF06D000004ED00E061
:1056500024E4FF1F486C00000122D2070118090E44
:105660007F3910D449421F310FD4001805D2C00130
:105670001043C84000D5D0437047C0011043C84014
:1056800005D440427047002070470042F3D5100017
:1056900070470000F8B505000F0028008009460794
:1056A000760F202046436846290010398906890E66
:1056B000082251434170684640783018040068461B
:1056C000082179436118491E017068460078E4B2E8
:1056D000A0420DD3002200212000C0B2FFF7D2FA71
:1056E000812149002000C0B200F0C4F8641CECE73E
:1056F000F1BDFEB504000D00694620200F567FB2B3
:10570000012F01D101260AE07FB2022F01D102262A
:1057100005E07FB2002F01D1042600E000267FB211
:10572000012F05D14848854202D34848A8421CD2DF
:105730007FB2022F09D14448854206D34448A8428B
:1057400003D3A807800F03280FD17FB2002F08D101
:105750003D48854205D33F48A84202D32800800730
:1057600003D060213C48FFF74DFF099880210902D2
:10577000884203D362213848FFF744FF3748006866
:105780008021490001433548016035480068022105
:105790000143334801600020324964B20855324861
:1057A00064B210216143401881688020400408439E
:1057B0002D4964B210226243891888602A4864B275
:1057C0001021614345500198274964B21022624379
:1057D000891848607FB23805C021890301407FB233
:1057E0007804C022D20202400A43204810431E49D6
:1057F00064B2102262438918C86009980002000A46
:10580000194964B210226243891888606846007A98
:10581000C0B24009313080210143124864B20155C1
:1058200013496846007A00F025F83100C9B2280013
:10583000FFF730FF0B4864B2005D4006400E094997
:1058400064B20855F7BD000010F00F4013F10F408F
:1058500012F10F4010F10F40DC6C0000408004405A
:105860003C8004400010024000810040800008603D
:105870000001010010B4324A126880239B0004002A
:10588000E4B26409A34013432D4A13602D4AC0B209
:1058900003005B1104246343D258A0320123C406E1
:1058A000E40EA3401360274AC0B203005B11042436
:1058B0006343D258C0B2C306DB0E04246343D15005
:1058C00010BC704710B41E4A126880239B0004006D
:1058D000E4B26409A3401343194A1360194AC0B2E1
:1058E00003005B1104246343D258A0320123C40691
:1058F000E40EA34013600A00134911400A00114945
:10590000C0B203005B1104246343C958C0B2C3068C
:10591000DB0E04246343CB58E021C9001940114336
:10592000084AC0B203005B1104246343D258C0B2DA
:10593000C306DB0E04246343D15010BC7047000043
:10594000388004402CE6FF1FFFF8FFFF80B5694652
:105950000880694609884A1E6B461A8089B2002968
:10596000F7D101BD80B5012201211120FFF78AF98D
:10597000012201211020FFF785F943211120FFF7B3
:10598000A1FF43211020FFF79DFF01BD80B5A24874
:1059900000688021490201439F4801609E480068D9
:1059A0008021890201439C480160C8204000FFF724
:1059B000CDFFBA480068BA490140B8480160C82024
:1059C0004000FFF7C3FFB74800680100C903C90FD3
:1059D000002908D1B1480068802149020143AF483D
:1059E0000160002027E0AD480068802149020143A2
:1059F000AA48016088480068A949014086480160BA
:105A0000C8204000FFF7A2FF83480068A649014074
:105A100081480160A34800680100C903C90F00293B
:105A200008D09E4800688021490201439B480160DC
:105A3000002000E0012002BD80B5774800689A4947
:105A400001407548016074480068954901407248FA
:105A50000160C8204000FFF779FF6F48006880218F
:105A6000890201436C480160C8204000FFF76EFFC7
:105A70006948006880214902014367480160C820E5
:105A80004000FFF763FF01BD80B5634800688649A9
:105A9000014061480160C8204000FFF757FF5E48A1
:105AA00000687F4901405C480160C8204000FFF762
:105AB0004DFF594800688021890201435648016022
:105AC000C8204000FFF742FF534800687649014074
:105AD00051480160C8204000FFF738FF01BD80B584
:105AE0004D480068704901404B480160C8204000A3
:105AF000FFF72CFF484800688021490201434648CF
:105B00000160C8204000FFF721FF43480068802162
:105B10008902014340480160C8204000FFF716FF9A
:105B20003D480068604901403B480160C820400092
:105B3000FFF70CFF01BD80B5374800685A490140A6
:105B40003548016055480068554901405348016097
:105B5000C8204000FFF7FAFE2F4800688021890224
:105B600001432D480160C8204000FFF7EFFE4D487B
:105B700000680100C903C90F00290ED0474800681A
:105B80008021490201434548016023480068464995
:105B900001402148016000200DE04048006880215C
:105BA000490201433D4801601B4800683E490140ED
:105BB00019480160012002BD38B5040008252800FD
:105BC000451EC0B2002826D0200607D5124800681E
:105BD0008021490201431048016005E00E48006839
:105BE0002F4901400C4801606400C8204000FFF7C5
:105BF000ADFE094800688021890201430648016022
:105C0000C8204000FFF7A2FE034800682649014073
:105C100001480160D3E731BD00F00F4038B50824DA
:105C200000251E4800681E4901401C4801602000F4
:105C3000441EC0B2002820D06D001C4800681A49DC
:105C400001401A480160C8204000FFF77FFE174856
:105C5000006880218902014314480160C820400087
:105C6000FFF774FE0F4800680100C903C90F00293F
:105C7000DDD0280001250543D9E7084800688021C8
:105C8000490201430548016008480068064901408F
:105C900006480160EDB2280032BD000014F00F404C
:105CA000FFFFFEFF10F00F40FFFFFDFF00F00F4071
:105CB00070B504000E0000253100C9B2200080B28A
:105CC00000F00AF8002805D16D1CEDB2142DF3D1B7
:105CD000002000E0012070BD38B505000C00FFF782
:105CE00055FE002801D1002019E04220FFF764FF93
:105CF000FFF721FF002803D1FFF79EFE00200EE0F2
:105D00002800C0B2FFF758FFFFF715FF2000C0B210
:105D1000FFF752FFFFF70FFFFFF78EFE012032BDA6
:105D2000F8B505000F00160000243200D2B2390089
:105D300089B2280000F00AF8002805D1641CE4B2FA
:105D40001E2CF2D1002000E00120F2BD70B504004D
:105D50000D001600FFF71AFE002801D1002037E0E1
:105D60004220FFF729FFFFF7E6FE002803D1FFF7E7
:105D700063FE00202CE03000C0B2FFF71DFFFFF7EC
:105D8000DAFEFFF759FEFFF701FE002801D10020DF
:105D90001EE04320FFF710FFFFF7CDFE002803D1E0
:105DA000FFF74AFE002013E0ADB2002D0DD0FFF743
:105DB00035FF2070ADB2012D02D1FFF790FE01E05A
:105DC000FFF762FE641C6D1EEEE7FFF735FE012053
:105DD00070BD00000EB400B582B003A900916B46FF
:105DE00002000121034878440A30FAF715FB0299B2
:105DF00006B0084741110000F7B581B01C000A9DAC
:105E00000B9E00270998001B2B49086001982A491E
:105E100009684843294908602948016800910298A7
:105E20002549096848430A21FBF710FD0099081825
:105E300024490968244A12685143401A20490860DD
:105E40001F4800682149884203DBFA20C0001C4932
:105E500008600398E11B48431D4908601748006823
:105E6000201A17490968401A194909684018194940
:105E7000086018480068864202DA174806600AE09F
:105E800014480068A84202DA1348056003E011488C
