:020000040800F2
:10000000903500202D020008674800081D3E0008BA
:100010005D470008BD230008FF60000800000000E5
:100020000000000000000000000000005F51000818
:10003000692D0008000000001B4D000871520008E7
:10004000470200084702000847020008470200086C
:10005000470200084702000847020008470200085C
:10006000470200084702000847020008470200084C
:10007000470200084702000847020008470200083C
:10008000470200084702000847020008470200082C
:10009000470200084702000847020008470200081C
:1000A000470200087155000847020008470200088F
:1000B00047020008C95600081D58000847020008FA
:1000C00047020008470200084702000847020008EC
:1000D00047020008D15D000847020008595E000889
:1000E000B12D000847020008470200084702000837
:1000F00047020008470200084702000847020008BC
:1001000047020008470200084702000847020008AB
:10011000470200084702000847020008470200089B
:10012000470200084702000847020008470200088B
:1001300000F002F800F06AF80AA090E8000C82448F
:100140008344AAF10107DA4501D100F05FF8AFF26C
:10015000090EBAE80F0013F0010F18BFFB1A43F0A5
:1001600001031847F0B5000010B600000A444FF034
:10017000000C10F8013B13F0070408BF10F8014B06
:100180001D1108BF10F8015B641E05D010F8016B4B
:10019000641E01F8016BF9D113F0080F1EBF10F8AF
:1001A000014BAD1C0C1B09D16D1E58BF01F801CBD2
:1001B000FAD505E014F8016B01F8016B6D1EF9D555
:1001C0009142D6D37047000000230024002500266A
:1001D000103A28BF78C1FBD8520728BF30C148BFAA
:1001E0000B60704766290AF07A82642900F07080FB
:1001F000002070471FB500F0D7FC0400002000214C
:1002000009F00EF9E0601FBD10B510BD00F0F8FD5B
:100210001146FFF7EFFF07F0C7FE00F016FE03B42C
:10022000FFF7F2FF03BC06F006F80000094880471C
:1002300009480047FEE7FEE7FEE7FEE7FEE7FEE7C8
:10024000FEE7FEE7FEE7FEE704480549054A064BE0
:10025000704700007552000831010008902F0020FF
:10026000903500209031002090310020704710B56B
:100270004C1084EA530404D54042C1F1000138BF58
:10028000491E1B4204D55242C3F1000338BF5B1E16
:1002900000F056F914F0804F04D04042C1F1000143
:1002A00038BF491E14F0004F04D05242C3F100037E
:1002B00038BF5B1E10BD00000FB4044910B503AA7F
:1002C000029800F03DFC10BC5DF814FB1800002003
:1002D0002DE9F0410646002410687529314616A51F
:1002E00010D0AFF30080002802DA404213A507E0E7
:1002F00031688A0701D512A502E0490704D511A586
:10030000012401E0AFF3008000210A2206F1240756
:1003100009E0B0FBF2FCB0FBF2F302FB1C00303052
:1003200078541846491C0028F3D123462A46304603
:10033000BDE8F04100F086B9000000002D0000008B
:100340002B000000200000002DE9F05F89460446E4
:100350004FF0000ADFF874B1FB44C0F820A020463B
:10036000E1688847002874D0252806D0D4E9012107
:100370009047206A401C2062F1E700265F46204635
:10038000E16888472028054607DB312D05D278191A
:1003900010F8200C08B10643F1E7B00701D526F0AC
:1003A0000406C4F81CA00027C4F818A02A2D09D000
:1003B000284605F039FF38B304EB8708303DC8F80C
:1003C000185019E059F8041B204604EB870291618C
:1003D000E1688847012F054618D1E069002820DA36
:1003E00026F020061DE0D8F8180000EB800005EB91
:1003F00040003038C8F818002046E16888470546B4
:1004000005F012FF0028EED1012F0AD02E2D08D1C1
:100410002046E16888477F1C0546022F46F02006EB
:10042000C4DBA069002803DA404246F00106A0615F
:10043000F00701D026F010066C2D0BD0682D09D0E6
:100440004C2D39D06A2D35D0742D35D07A2D33D03E
:1004500016E038E0E1682F4620468847B842054656
:1004600009D16C2F26D04FF48060E1680643204606
:100470008847054604E06C2F1AD04FF4807006437D
:100480000DB3A5F14100192802D8203546F40066C5
:100490004A462946204626604E46FFF7A3FE80B115
:1004A00001280BD0F61D26F0070000F1080956E7D9
:1004B0004020E4E78020D8E70020D6E706F10409D1
:1004C0004DE7284652E7206ABDE8F09F0EB20000D3
:1004D00040EA010310B59B070FD1042A0DD310C8C1
:1004E00008C9121F9C42F8D020BA19BA884201D913
:1004F000012010BD4FF0FF3010BD1AB1D30703D05B
:10050000521C07E0002010BD10F8013B11F8014B10
:100510001B1B07D110F8013B11F8014B1B1B01D12C
:10052000921EF1D1184610BD02F0FF0343EA0322E8
:1005300042EA024200F018BB7047704770477047AC
:1005400053EA020C00F069802DE9F04B4FF00006F1
:10055000002B1FBFB3FA83F503FA05F424FA05F65E
:100560005E4012BF1643B2FA82F502FA05F4C5F1F5
:1005700020051EBF22FA05FC44EA0C04203556EA89
:10058000044C4FEA144418BF641C4FF000084FF0AD
:100590000009904271EB030C39D3002919BFB1FA5D
:1005A00081F701FA07F6B0FA80F700FA07F6C7F10B
:1005B00020071EBF20FA07FC46EA0C062037B6FBD0
:1005C000F4FCA7EB0507103F07F01F0BCBF120064B
:1005D0000CFA0BFB2CFA06F644BFB3460026202F7C
:1005E000A4BF5E464FF0000B5BEA060C08BF4FF05D
:1005F000010B19EB0B09ABFB027C48EB0608C01B97
:1006000006FB02CC0BFB03CC71EB0C01C1E70B46E4
:10061000024641464846BDE8F08B13B54FF0000056
:100620004FF00001AFF30080BDE81C40704710B5EB
:1006300000F0BEFA006810BD10B5044600F0B8FA2C
:10064000046010BD2DE9F0470D46994692460446D8
:1006500000F124080168880604D5E06921F0100142
:10066000216000E00120A84201DD471B00E00027D7
:10067000A1697A1902EB0900081AA0612078C00666
:1006800002D42046AFF30080002608E0D4E901211F
:100690001AF806009047206A401C761C20624E45DE
:1006A000F4DB2078C0060AD52046AFF3008006E0D0
:1006B000D4E9012130209047206A401C2062381E76
:1006C000A7F10107F4DC07E0D4E9012118F80500DF
:1006D0009047206A401C2062281EA5F10105F3DC2A
:1006E0002046AFF300802078000602D50220BDE846
:1006F000F0870120FBE770472DE9FF4F0C461E46AF
:100700004FF0FF378BB0D2E90001DDF860800A902E
:100710008A46C1F30A5505B93D46002108464FF007
:100720000000BAF1000F00F4400005DA00EB800091
:100730004FF4400101EA50004FEA9059B9F1010F1E
:1007400000DDB9460A9850EA4A000ED044F610502F
:10075000A5F2FF3545432F14B8F1000F1ED07542A6
:10076000291E1EDDC9F100021CE0B8F1010F4FF097
:10077000000001D0302103E0F24305E02154401C89
:10078000B042FBDB30460022002121540B99C1F816
:100790000880C1E900200FB0BDE8F08FBD1B6D1CC3
:1007A000DEE74A4600DA694206A800F08BFA06AB9B
:1007B00093E8070003AB83E8070050460A9900F06E
:1007C0008DFB8DE80700A0F500501F3800900398BE
:1007D000002D09DD42F21F014A46084403A9039097
:1007E000684600F0ECFD08E0A0F500504A461F38CE
:1007F00003A90390684600F0F6FD8DE807000004A9
:10080000000C03D04FF0FF30410800E01046B8F173
:10081000000F03D00022009215461EE0751E05D47D
:1008200000F0CAF9303262556D1EF9D5B346012287
:10083000084302D000227F1C04E02078302801D138
:1008400000227F1E002A099786D01DE0112D07DAAD
:1008500000F0B2F9303262556D1C50EA0102F5D158
:10086000084302D00098C8B10EE00021681E05E0E0
:10087000235C625C63542254401E491C8142F7DBB6
:10088000AB46A81B401E0990002004F80B000B98F3
:10089000099AC0F80880C0E9002B7CE711264FF0C8
:1008A000000859E72DE9F04F88460446D21D22F092
:1008B000070191B0D1E90001CDE90A0105F038FC4A
:1008C00002460B98C00F01D02D2007E02068810759
:1008D00001D52B2002E0202101EAC000032A099063
:1008E00001D0072A05DB03464146204600F0AAF95D
:1008F0000BE12078800601D5E06900E00620B8F120
:10090000650F814606D0B8F1660F18D0B8F1670FB1
:1009100070D131E00020B9F1110F009001DB1123FB
:1009200001E009F101030AAA01A90CA8FFF7E4FEFE
:10093000DDE90C70002609F10105834647E001203E
:100940004B4600904FF000470AAA01A90CA8FFF7F8
:10095000D3FEDDE90DB00C995D46002610B909F112
:1009600001000D18B9EB050003D4C0F1FF3609F101
:100970000105A5EB09002BE0B9F1010F01DA4FF0F9
:1009800001090020B9F1110F0090484601DD112343
:1009900000E003460AAA01A90CA8FFF7ADFEDDE9B5
:1009A0000C704D4600268346207800070AD4AB45DC
:1009B00000DA5D4601A8012D04DD411911F8011C82
:1009C000302907D04F4502DA17F1040F04DA01206D
:1009D00082460FE06D1EEEE7002F02DCED1B3E4469
:1009E00003E0781CA84200DD7D1CB81B00F1010A61
:1009F0004FF000472078000703D4AA4501DB4FF0F1
:100A0000FF3A0021B7F1004F0DF143088DF8431074
:100A100024D002202B23002F01DA7F422D230A212C
:100A2000021EA0F1010000DC5FB197FBF1FC97FB17
:100A3000F1F201FB1C7C17460CF1300C08F801CDDB
:100A4000EEE7A8F1010003702188090501D54521D1
:100A500000E06521A0F1010800F8011C09980FA928
:100A6000A1EB0807FF1D00B10120411901EBEA705D
:100A7000A1693844081A401EA0612078C00602D43B
:100A80002046AFF30080099828B1D4E901219047AE
:100A9000206A401C20622078C00622D52046AFF391
:100AA00000801EE0002E04DBB34502DD01A8805D5E
:100AB00000E03020D4E901219047206A401C2062E8
:100AC000761CAAF101005FEA000A0AD100F06CF876
:100AD000C0680168405CD4E901219047206A401C4D
:100AE0002062281EA5F10105DCDC07E0D4E9012124
:100AF00018F8010B9047206A401C2062381EA7F1AD
:100B00000107F3DC2046AFF30080032011B043E679
:100B100001694A1C02610878704700B58FB0CDE9C1
:100B200001310021059105497944CDE903101146B1
:100B30006846FFF709FC0FB000BD0000E5FFFFFFAE
:100B4000074B70B50D467B44FFF7E7FF0446284688
:100B500000F026F910B14FF0FF3070BD204670BD97
:100B6000976D00004FF000020429C0F0128010F0D1
:100B7000030C00F01B81CCF1040CBCF1020F18BF78
:100B800000F8012BA8BF20F8022BA1EB0C0100F00C
:100B90000DB95FEAC17C24BF00F8012B00F8012BDE
:100BA00048BF00F8012B7047004870474C2F0020C9
:100BB000004870472C2F002030B5B0F10A024FEAF0
:100BC000900E71F100034EEA817EB0EB0E0061EBF6
:100BD00091014FEA101E4EEA017E10EB0E0041EB30
:100BE00011114FEA102E4EEA016E10EB0E0041EB90
:100BF00011214FEA104E4EEA014E10EB0E0041EB70
:100C00001141401841F100014FEAD00040EA417023
:100C10004FEAD10110EB80054FEA810444EA907459
:100C200044EB01046D1944EB0404521BA3414FF043
:100C3000000348BF0A3200D530BD401C41F100011D
:100C400030BD00002DE9F0411F460446032601682F
:100C5000072A01F4006004DB08B116A505E016A51B
:100C600003E008B115A500E015A521F010002060F3
:100C7000A069C01EA0610FB1401EA0612046AFF365
:100C800000804FB1D4E9012138469047206A401CCA
:100C90002062C01C206206E0206AFAE7D4E9012144
:100CA00015F8010B9047761EF8D22046AFF300806E
:100CB000BDE8F0814E414E006E616E00494E460027
:100CC000696E66002DE9F047814616468AB03348C2
:100CD00078440DC88DE80D0030487844801C03AC82
:100CE0000DC884E80D0041F69B300844372190FB85
:100CF000F1F290FBF1F5A5F1800501FB12041B3C1C
:100D000002D56442012000E00020DFF890A0804678
:100D10000027FA44AAF1BE0A0DE0E00709D03246E6
:100D2000684607EB47010AEB810100F05CFB8DE8A8
:100D3000070064107F1C002CEFD1184F7F44AC3F9C
:100D400018E0E80714D007EB04100DF1180A90E83A
:100D50000E008AE80E00C068F04201D19819089090
:100D6000324606A903A800F03EFB03AB83E8070068
:100D70006D10641C002DE4D132466946B8F1000FB5
:100D800003A802D000F01BFB01E000F02CFBC9E936
:100D90000001C9F808200AB0BDE8F08718AA0000D1
:100DA000007B00F0800070474FF0000200B5134652
:100DB00094469646203922BFA0E80C50A0E80C507B
:100DC000B1F12001BFF4F7AF090728BFA0E80C502C
:100DD00048BF0CC05DF804EB890028BF40F8042B25
:100DE00008BF704748BF20F8022B11F0804F18BF92
:100DF00000F8012B70470000004870472C2F00209E
:100E00007546FFF7F9FFAE4605006946534620F0E8
:100E10000700854618B020B5FFF716FABDE8204058
:100E20004FF000064FF000074FF000084FF0000BA6
:100E300021F00701AC46ACE8C009ACE8C009ACE859
:100E4000C009ACE8C0098D46704710B50446AFF341
:100E500000802046BDE81040FFF7E1B94FF0013CAB
:100E600050F8042B51F8043B9A4221D1A2EB0C0319
:100E7000934313EACC1317D150F8042B51F8043BD9
:100E80009A4215D1A2EB0C03934313EACC130BD176
:100E900050F8042B51F8043B9A4209D1A2EB0C0301
:100EA000934313EACC13DBD04FF00000704700BF30
:100EB000D01A01BAB1FA81F101F0180122FA01F059
:100EC000CB40C1F12001DBB2C0B2C01A2CFA01F351
:100ED000D11A914311EAC311E6D170475FEA400C81
:100EE00008BF91F0000F4FEA8C234FEAC12243EA7A
:100EF00051514FEA1C5018BF00F5F0404FEA300046
:100F000018BF41F000415FEA6C5C00F02980BCF141
:100F1000FF3F08BF40F080407047130C06BF12042B
:100F20004FF0100C4FF0000C130E04BF12020CF126
:100F3000080C130F04BF12010CF1040C930F04BF33
:100F400092000CF1020CD30F04BF52000CF1010C03
:100F500011464FF00002A0F11F00A0EB0C007047FB
:100F600011F0004F08BF704731F000413FF4D5AF9A
:100F70000B0C06BF09044FF0100C4FF0000C0B0EC9
:100F800004BF09020CF1080C0B0F04BF09010CF19E
:100F9000040C8B0F04BF89000CF1020CCB0F04BFB3
:100FA00049000CF1010CCCF12003A0EB0C0022FA5B
:100FB00003F302FA0CF241EA030100F10100704769
:100FC00020F07F4C80EA030023F07F47ACEB07035F
:100FD00003F57C5300F0004003F1FF032DE9804945
:100FE0004FEA154B09B44FEA144325EA0B4E24EAA5
:100FF00003480FF2042606EB132749083E785FEA00
:10100000320203FB0667C7F5000707FB06F64FEA47
:1010100054374FEAD64606F1020607FB066CCCF1C0
:10102000005C4FEA1C472CEA074C07FB06F40CFB5C
:1010300006F504EB15464FEA961634BF00204FF034
:1010400000404FEAD13706FB07FC4FEA1C4C0CFB73
:101050000BF7D21B03FB0CF761EB07010CFB0EF740
:10106000B0EB074072EB17420CFB08F734BFA2EB62
:101070000742B2EB074261EB17414FEA0C444FEADB
:10108000910706FB07FC4FEA1C4C0CFB0BF7B0EB7F
:10109000C74072EB573203FB0CF734BFA2EBC742D9
:1010A000B2EBC74261EB57310CFB0EF7B0EBC70058
:1010B00072EB57720CFB08F734BFA2EBC702B2EB1E
:1010C000C70261EB5771039F4FEA816141EA9211B8
:1010D00004EBCC044FEAD1374FEA826206FB07FCEF
:1010E00042EA90124FEA80604FEA1C4C0CFB0BF76F
:1010F000D21B03FB0CF761EB07010CFB0EF7B0EB07
:10110000074072EB17420CFB08F734BFA2EB074213
:10111000B2EB074261EB17414FEA8C554FEA91075A
:1011200004EB9C2406FB07FC4FEA1C4C0CFB0BF762
:10113000B0EBC74072EB573203FB0CF734BFA2EBA6
:10114000C742B2EBC74261EB57310CFB0EF7B0EB75
:10115000C70072EB57720CFB08F734BFA2EBC70253
:10116000B2EBC70261EB577115EB4C254FEA816179
:1011700041EA92114FEA82624FEAD13742EA901275
:1011800006FB07FC44F100044FEA80604FEA1C4C68
:101190000CFB0BF7D21B03FB0CF761EB07010CFBFD
:1011A0000EF7B0EB074072EB17420CFB08F734BFA9
:1011B000A2EB0742B2EB074261EB174115EB1C159E
:1011C0004FEA813141EA92414FEA823242EA90424B
:1011D0004FEA80304FEA0C7644F1000448EA0343BA
:1011E0004EEA0B484FF0000EB2EB080C71EB030710
:1011F00024BF624639464EEB0E0E4FF0000B00182E
:10120000524149414BEB0B0BB2EB080C71EB03075E
:101210007BF1000B24BF624639464EEB0E0E4FF0B9
:10122000000B0018524149414BEB0B0BB2EB080C81
:1012300071EB03077BF1000B24BF624639464EEB8E
:101240000E0E51EA020718BF46F0010616EB0E76A5
:1012500055F1000254F1000103D5BDE88901BDE854
:101260000088BDE88901BDE80048B619524141EB4C
:101270000101A3F10103704780807F7E7D7C7B7A32
:101280007978777676757473727171706F6E6E6D32
:101290006C6C6B6A6A6968686766666564646363D8
:1012A00062616160605F5F5E5E5D5D5C5C5B5B5A5E
:1012B0005A595958585757565655555554545353CB
:1012C00052525251515050504F4F4F4E4E4D4D4D26
:1012D0004C4C4C4B4B4B4A4A4A4949494848484771
:1012E00047474746464645454544444444434343AF
:1012F0004342424242414141002B26D4770021D053
:101300001CB54FEA370703B44FF010004FF010013F
:101310004FF000000FBCBDE810400BF1010BBBF11A
:10132000010F08BF5FEA170722BF12F1010211F196
:1013300001014FF0004143F1000300F0004043EA97
:1013400000007047F9D35708DAE746EA064613F17A
:10135000400F4FEA16461FDD13F1200FDFBF164383
:101360000A46002120335B42C8D0C3F1200746EA79
:10137000064602FA07F74FEA164646EA0706C3F1A1
:10138000200722FA03F201FA07F721FA03F14FF0DE
:10139000000342EA0702B1E746EA020646EA0646C9
:1013A0004FEA164646EA0106BCBF46EA0646360C38
:1013B0004FF000034FF000024FF000019EE72DE9CF
:1013C000C048934630B491E8380007C831EA400C71
:1013D00048BF34EA430C03D5FFF7F2FDFFF78CFF5B
:1013E000F0BCBDE800882DE9C048934630B491E8D0
:1013F000380007C810F0804F08BF13F0804F03D1AA
:1014000000F005F8FFF778FFF0BCBDE8008820F099
:101410007F4780EA030023F07F4C07EB0C03A3F522
:101420007C5300F00040A3F1FE0392F0000F00F0A7
:10143000B38095F0000F00F077802DE901494FEA65
:1014400011404FEA144621EA004800FB06FC24EA5A
:10145000064708FB06F607FB08F800FB07F718EB42
:1014600006484CEB164C4FEA124B18EB07484FEA74
:1014700015464CEB174022EA0B4E0BFB06FC25EA07
:1014800006470EFB06F607FB0EFE0BFB07F71EEBEF
:10149000064E4CEB164C4FF000061EEB074E4CEB85
:1014A000174B18EB0B0840F1000018EB0E0B58EB34
:1014B000000840F100008F1A4FF000013CBFC94303
:1014C000661B14BFB5EB040C00213CBFC943F61BDF
:1014D0004FEA17444EEA8E0E27EA04454FEA1C47AE
:1014E00004FB07622CEA074C05FB07F70CFB05F62B
:1014F00004FB0CFC16EB074642EB174216EB0C46BE
:1015000042EB1C421BEB060658EB0202414146EA45
:101510009E0601D5BDE80189B619524141EB010192
:10152000A3F10103BDE801894FEA14454FEA1147D1
:1015300024EA054621EA074C05FB07F406FB07F7FA
:101540000CFB06F105FB0CFC11EB074144EB1744C7
:101550004FEA124711EB0C4144EB1C4422EA074CC2
:1015600005FB07F206FB07F70CFB06F605FB0CFC78
:1015700016EB074642EB174216EB0C4642EB1C45B6
:101580006A1854F1000148BF7047B619524141EB47
:101590000101A3F10103704795F0000F37D04FEA26
:1015A00011424FEA144721EA024624EA074C02FBA3
:1015B00007F106FB07F70CFB06F402FB0CFC14EB2F
:1015C000074441EB17414FEA154714EB0C4441EB3C
:1015D0001C4125EA074C02FB07F506FB07F70CFB4D
:1015E00006F602FB0CFC16EB074645EB174516EB1F
:1015F0000C4645EB1C42121951F1000148BF7047DF
:10160000B619524141EB0101A3F1010370474FEAC2
:1016100014454FEA114724EA054621EA074C05FB29
:1016200007F106FB07F70CFB06F24FF0000605FB7F
:101630000CFC12EB074241EB174112EB0C4251EB51
:101640001C4148BF7047921841EB0101A3F101030F
:101650007047000086B00020039004900590009031
:10166000019002905D4800885D49097801EB4101D5
:101670005C4A22F81100594840885949097801EB21
:10168000410102EB4101488054488088544909785F
:1016900001EB410102EB4101888053480088504929
:1016A000097801EB4101514A22F811004E48408867
:1016B0004B49097801EB410102EB410148804A485E
:1016C00080884749097801EB410102EB410188809C
:1016D00043480078401C4249087000204449087083
:1016E00044E04349097801EB41013E4A32F91110C7
:1016F0000398084403903E49097801EB410102EB4D
:101700004101B1F90210049808440490384909785D
:1017100001EB410102EB4101B1F9041005980844C5
:1017200005903349097801EB4101304A32F9111033
:101730000098084400902E49097801EB410102EB22
:101740004101B1F902100198084401902849097833
:1017500001EB410102EB4101B1F904100298084488
:10176000029023480078401C2149087020480078E6
:101770001428B6DB1421039890FBF1F000B21D4948
:1017800008801421049890FBF1F000B219494880B8
:101790001421059890FBF1F000B2164988801421BD
:1017A000009890FBF1F000B21349088014210198D1
:1017B00090FBF1F000B2104948801421029890FB90
:1017C000F1F000B20C49888005480078142802D155
:1017D00000200349087006B0704700007800002020
:1017E000D00000209C020020840000201403002070
:1017F000D100002090000020960000200FB5B1B06D
:10180000002020901F901E90FE480168006808F09C
:10181000F3FD1D90FC480168FA48006808F0ECFDF3
:101820001C90FA480168F748006808F0E5FD1B9035
:10183000F7480168F348006808F0DEFD1A90F248A6
:101840000168006808F0D8FD1990F0480168EE487A
:10185000006808F0D1FD1890ED480168EA4800687A
:1018600008F0CAFD1790E9480168006808F0C4FD57
:101870001690E7480168E548006808F0BDFD15903E
:10188000E3480168006808F0B7FD149037990846EE
:1018900008F0B2FD0E903699084608F0ADFD0C90A8
:1018A0003499084608F0A8FD0B900C9908F0A4FBA9
:1018B0000D900E9908F0A0FB0F9008F071FBCDE998
:1018C000100107F0B5FCCDE9120107F0BFFD2F9024
:1018D0002F99349808F0FEFB34902F99369808F031
:1018E000F9FB36902F99379808F0F4FB37903A9926
:1018F000084608F081FD0E903999084608F07CFDF5
:101900000C903899084608F077FD0B900C9908F078
:1019100073FB0D900E9908F06FFB0F9008F040FBE1
:10192000CDE9100107F084FCCDE9120107F08EFD2E
:101930002F902F99389808F0CDFB38902F9939982F
:1019400008F0C8FB39902F993A9808F0C3FB3A90F9
:101950001B99179808F050FB0C904FF080403A9973
:1019600008F04AFD0B900C9908F046FD0D9008F028
:1019700017FBCDE910011A99189808F03BFE089062
:101980004FF08040399908F037FD0790089908F02A
:1019900033FD099008F004FBCDE90C01149808F020
:1019A000FFFACDE90401169808F0FAFA0022994BE3
:1019B000CDE9000108F018F9CDE90201DDE90423C1
:1019C00008F004FACDE908014FF08040389908F09A
:1019D00013FD059008F0E4FACDE90601DDE90823DE
:1019E00007F0CEFFCDE90A01DDE90C2307F060FD29
:1019F000CDE90E01DDE9102307F05AFDCDE9120112
:101A000007F024FD2E901C99159808F0F3FD0C901A
:101A10004FF080403A9908F0EFFC0B900C9908F0D9
:101A2000EBFC0D9008F0BCFACDE91001149808F019
:101A3000B7FACDE90401199808F0B2FA0022754B03
:101A4000CDE9000108F0D0F8CDE90201DDE9042379
:101A500008F0BCF9CDE908014FF08040399908F051
:101A6000CBFC059008F09CFACDE90601DDE90823DE
:101A700007F086FFCDE90C011A99189808F0BCFA16
:101A800008904FF08040389908F0B6FC079008990C
:101A900008F0B2FC099008F083FACDE90A01DDE90B
:101AA0000C2307F005FDCDE90E01DDE9102307F059
:101AB000FFFCCDE9120107F0C9FC2D90169808F043
:101AC0006FFACDE90801199808F06AFA0022514B23
:101AD000CDE9040108F088F8CDE90601DDE9082325
:101AE00008F074F9CDE90C014FF080403A9908F004
:101AF00083FC099008F054FACDE90A01DDE90C23D2
:101B000007F03EFFCDE910011C99159808F074FA12
:101B10000A904FF08040399908F06EFC09900A99BC
:101B200008F06AFC0C901B99179808F063FD0A9066
:101B30004FF08040389908F05FFC09900A9908F04E
:101B40005BFC0B900C9908F057FA0D9008F028FAFE
:101B5000CDE90E01DDE9102307F0AAFCCDE9120161
:101B600007F074FC2C902D99084608F045FC0E9067
:101B70002E99084608F040FC0D900E9908F03CFAAA
:101B80000F9008F00DFACDE9100107F051FBCDE9F7
:101B9000120107F05BFC2B902C982A901B99179848
:101BA00008F028FD4FF08041139008F025FC2990A3
:101BB00015991C9808F020FA4FF08041139008F016
:101BC0001BFC289019991D9808F014FD1290169985
:101BD00008F010FD1390149908F00EFA27901B9945
:101BE000179808F007FD0C904FF080402A9908F0F4
:101BF00003FC0B900C9908F0FFFB0D9008F0D0F956
:101C00000AE0000034000020380000203C000020E2
:101C1000400000200000E03FCDE91001149808F0DA
:101C2000BFF9CDE90801169808F0BAF90022FE4B79
:101C3000CDE9040107F0D8FFCDE90601DDE908236D
:101C400008F0C4F8CDE90C014FF080402B9908F062
:101C5000D3FB099008F0A4F9CDE90A01DDE90C23D2
:101C600007F08EFECDE90E01DDE9102307F020FC20
:101C7000CDE9120107F0EAFB269015991C9808F0AF
:101C8000BBF911904FF080402A9908F0B5FB1090F5
:101C9000119908F0B1FB13901A99189808F0AAFC52
:101CA00011904FF080402B9908F0A6FB10901199ED
:101CB00008F0A2FB1290139908F09EF9259016984F
:101CC00008F06EF9CDE90801199808F069F90022C9
:101CD000D54BCDE9040107F087FFCDE90601DDE929
:101CE000082308F073F8CDE90C014FF080402A99E1
:101CF00008F082FB099008F053F9CDE90A01DDE90B
:101D00000C2307F03DFECDE9100117991B9808F050
:101D100073F90C904FF080402B9908F06DFB0B90FD
:101D20000C9908F069FB0D9008F03AF9CDE90E0125
:101D3000DDE9102307F0BCFBCDE9120107F086FBBB
:101D4000249025993A9808F057FB119024993998D6
:101D500008F052FB1090119908F04CFC1390289950
:101D6000379808F049FB11902799369808F044FB02
:101D70001090119908F03EFC1290139908F03CF96C
:101D800023902499389808F037FB119026993A98B7
:101D900008F032FB1090119908F02CFC1390279951
:101DA000349808F029FB11902999379808F024FB02
:101DB0001090119908F01EFC1290139908F01CF96C
:101DC00022902699399808F017FB11902599389898
:101DD00008F012FB1090119908F00CFC139029994F
:101DE000369808F009FB11902899349808F004FB04
:101DF0001090119908F0FEFB1290139908F0FCF86E
:101E000021908A49239808F0F7FA1390209908F056
:101E1000F3F820908549229808F0EEFA13901F9964
:101E200008F0EAF81F908149219808F0E5FA13902C
:101E30001E9908F0E1F81E904FF07F50239908F0AA
:101E4000DBFA1290319908F0D7F81390209908F036
:101E5000D3F831904FF07F50229908F0CDFA1290CC
:101E6000329908F0C9F813901F9908F0C5F832901C
:101E70004FF07F50219908F0BFFA1290339908F083
:101E8000BBF813901E9908F0B7F83390684833995F
:101E9000006808F0B1FA119066483299006808F0BD
:101EA000ABFA0F906448006880F000400D903199C3
:101EB00008F0A2FA0E900F9908F09CFB109011996F
:101EC00008F098FB5949129008F096FA13905B4875
:101ED0000168139808F090F85849086054483299FE
:101EE000006808F089FA119052483399006808F0A8
:101EF00083FA0F9051480168319808F07DFA0E90EE
:101F00000F9908F079F81090119908F073FB474980
:101F1000129008F071FA139047480168139808F07E
:101F20006BF84549086042480168319808F064FA46
:101F3000119041483399006808F05EFA0F903F48CD
:101F40003299006808F058FA0E900F9908F052FB89
:101F50001090119908F050F83449129008F04CFA9A
:101F6000139034480168139808F046F83149086026
:101F700008460168319808F03FFA11902E483299CE
:101F8000006808F039FA0F902C483399006808F07F
:101F900033FA0E900F9908F02FF81090119908F06D
:101FA00029FB2249129008F027FA13902048016873
:101FB000139808F021F81E49086008460168006877
:101FC00008F01AFA0E901B480168006808F014FA2D
:101FD0000C9019480168006808F00EFA0A9017483A
:101FE0000168006808F008FA09900A9908F004F8F6
:101FF0000B900C9908F000F80D900E9907F0FCFF7B
:102000000F9007F0CDFFCDE9100107F011F9CDE9F0
:10201000120107F01BFA2F9008482F99006808F06A
:1020200059F8064908600BE00000E03F6F12033AE0
:10203000400000203C000020380000203400002038
:102040005B482F99006808F045F8594908605948DD
:102050002F99006808F03EF85649086056482F99B5
:10206000006808F037F8544908604FF0804016992E
:1020700008F0C2F909904FF04040199908F0BCF9F6
:102080000890099908F0B6FA4FF07E510A9007F0CF
:10209000B3FF0B9007F084FFCDE90E014FF08040B5
:1020A0001C9908F0A9F90A904FF08040159908F0A2
:1020B000A3F909900A9907F09FFF0B9007F070FFB2
:1020C000CDE90C01DDE90E2304F054FB4FF0C042D2
:1020D0003A4BCDE9100107F053FCCDE9120107F0AE
:1020E000B5F9374908604FF080401B9908F084F932
:1020F0000C904FF04040179908F07EF90B900C9926
:1021000007F07AFF0D9007F04BFFCDE90E0104F0C8
:10211000E9F881F000414FF0C042284BCDE91001B1
:1021200007F02EFCCDE9120107F090F92449486030
:102130004FF08040149908F05FF909904FF040404B
:10214000169908F059F90890099908F053FA4FF0D8
:102150007E510A9007F050FF0B9007F021FFCDE968
:102160000E014FF080401A9908F046F90A904FF09E
:102170008040189908F040F909900A9907F03CFF4F
:102180000B9007F00DFFCDE90C01DDE90E2304F003
:10219000F1FA4FF0C042094BCDE9100107F0F0FB16
:1021A000CDE9120107F052F90549886035B000BD4C
:1021B000380000203C0000204000002066A64C4073
:1021C0008C030020002023E0002100EB4002124B92
:1021D00023F8121000EB400203EB4202518000EBA7
:1021E000400203EB4202918000EB40020B4B23F8CC
:1021F000121000EB400203EB4202518000EB400260
:1022000003EB42029180064A116051609160401CCC
:102210001428D9DB704700009C0200201403002022
:10222000840400202DE9FE4F00F0B0F800F0AEF875
:10223000029000F08FF800F08DF80190384909887D
:102240000298401A374909884843C4133648B0F900
:102250000000C0023549B1F90010214490FBF1F5AE
:1022600004EB050909F10800001131490860A9F5DE
:102270007A6707FB07F000132E49B1F900104843B5
:10228000C4122D48B0F900007843C51204EB050ACA
:102290002A49B1F900100AEB8101881CC11700EB33
:1022A0009171891000912648B0F9000078434413D9
:1022B00007FB07F000132349B1F900104843051448
:1022C0006019801C4FEAA00A1F4800880AF50041E7
:1022D00048434FEAD03BDDE90010401A4CF2503140
:1022E00000FB01F8B8F1004F04D24FEA4800B0FB00
:1022F000FBF602E0B8FBFBF04600301200FB00F4F6
:1023000040F6DE3060430414104870430514601931
:1023100000F6CF6006EB20100D490860BDE8FE8F87
:10232000AC010020AA010020A4010020A601002089
:10233000B0010020A00100209A0100209801002097
:102340009C0100209E010020A801002043E3FFFF24
:10235000B401002010B5002401F034FEEE2001F09D
:1023600003FE01F077FEF42001F0FEFD01F072FEA5
:10237000342001F0F9FD01F06DFE01F047FEF6207A
:1023800002F01FFA0446A4B2204610BD10B501F0B9
:1023900019FEEE2001F0E8FD01F05CFEF42001F0F2
:1023A000E3FD01F057FE2E2001F0DEFD01F052FEAC
:1023B00001F02CFEF62002F004FA10BD00BFFEE78B
:1023C0000FB400B597B001200990089007900690CF
:1023D00005900490189803901B980290039908F0B8
:1023E00009F91590159807F0DBFD21F00041002256
:1023F000FE4BCDE9020107F0C1FB02D2002009909B
:1024000001E0012009900F99159807F0F5FD4FF0B4
:102410008041029007F05EFE0390F5480168039842
:1024200007F0EAFDF2490860F249F148006808F057
:10243000AFF802D2EF48EE490860EF49EC48006877
:1024400007F0A6FF02D2EC48E9490860EB480068B3
:102450000390159907F0D0FFE84948600F99159847
:1024600008F0C8F80390E548006901460290039817
:1024700007F0C2FFE1494861099807F075FF029033
:10248000DE48806801460190029807F0B5FF03908E
:10249000D7480168039807F0AFFFD849C8600846DD
:1024A00040690290084640680190029907F0A4FD37
:1024B0000390D248C06801460290039807F09CFD43
:1024C000CE49886108468069019007F069FD02469F
:1024D0000B46CDE90201CAA0FDF7EEFE15980F905C
:1024E000199803901C980290039908F083F81490AF
:1024F000149807F055FD21F000410022BB4BCDE9B7
:10250000020107F03BFB02D20020089001E001200D
:1025100008900E99149807F06FFD4FF080410290DB
:1025200007F0D8FD0390BB480168039807F064FDED
:10253000B8490860AF49B748006808F029F802D2E6
:10254000AC48B4490860AC49B248006807F020FFC5
:1025500002D2A948AF490860AF48006803901499B7
:1025600007F04AFFAC4948600E99149808F042F809
:102570000390A948006901460290039807F03CFFC8
:10258000A5494861089807F0EFFE0290A2488068CC
:1025900001460190029807F02FFF03909D480168C3
:1025A000039807F029FF9C49C860084640690290DB
:1025B000084640680190029907F01EFD0390964876
:1025C000C06801460290039807F016FD92498861A1
:1025D00014980E901D98039090480168039808F095
:1025E00009F81390139807F0DBFC21F0004100225A
:1025F0007E4BCDE9020107F0C1FA02D2002007901C
:1026000001E0012007900D99139807F0F5FC4FF0B9
:102610008041029007F05EFD0390814801680398B5
:1026200007F0EAFC7E49086072497D48006807F0BF
:10263000AFFF02D26F487A4908606F497848006856
:1026400007F0A6FE02D26C4875490860754800681C
:102650000390139907F0D0FE724948600D991398C2
:1026600007F0C8FF03906F48006901460290039885
:1026700007F0C2FE6B494861079807F075FE0290AB
:102680006848806801460190029807F0B5FE039003
:1026900063480168039807F0AFFE6249C8600846C6
:1026A00040690290084640680190029907F0A4FC36
:1026B00003905C48C06801460290039807F09CFCB8
:1026C0005849886113980D905748006803904B480B
:1026D00080690290039907F08DFF1290129807F01D
:1026E0005FFC21F000410022404BCDE9020107F0E0
:1026F00045FA02D20020069001E0012006900C99D4
:10270000129807F079FC4FF08041029007F0E2FC4C
:10271000039046480168039807F06EFC434908603F
:1027200043494248006807F033FF02D240483F491E
:10273000086040493D48006807F02AFE02D23D4843
:102740003A4908603C4800680390129907F054FE2B
:10275000394948600C99129807F04CFF03903648AD
:10276000006901460290039807F046FE324948612D
:10277000069807F0F9FD02902F4880680146019005
:10278000029807F039FE039028480168039807F083
:1027900033FE2949C86008464069029008464068EF
:1027A0000190029907F028FC03902348C068014675
:1027B0000290039807F020FC1F49886112980C9042
:1027C000194840680390144880690290039907F003
:1027D00011FF1190119807F0E3FB21F00041002256
:1027E000024BCDE9020107F0C9F927E000003940AA
:1027F000F00000200000A0410000A0C1A4030020C0
:102800000D0A50495443486F75743A2566200D0AE5
:1028100000000000F4000020C0030020E8000020B9
:10282000F8000020DC03002098030020FC000020BA
:102830000000F0410000F0C1F803002002D20020A7
:10284000059001E0012005900B99119807F0D4FB49
:102850004FF08041029007F03DFC03909A480168D8
:10286000039807F0C9FB98490860984996480068A2
:1028700007F08EFE02D29548934908609449924829
:10288000006807F085FD02D291498F4801609148A8
:1028900000680390119907F0AFFD8E4948600B99CD
:1028A000119807F0A7FE03908A480069014602903C
:1028B000039807F0A1FD87494861059807F054FD8A
:1028C00002908448806801460190029807F094FDC8
:1028D00003907D480168039807F08EFD7D49C8602C
:1028E000084640690290084640680190029907F046
:1028F00083FB03907748C06801460290039807F075
:102900007BFB7449886111980B9073488068039031
:10291000724880690290039907F06CFE109010983D
:1029200007F03EFB21F0004100226D4BCDE9020192
:1029300007F024F902D20020049001E00120049065
:102940000A99109807F058FB4FF08041029007F069
:10295000C1FB039063480168039807F04DFB614990
:1029600008605A495F48006807F012FE02D25748D3
:102970005C49086056495B48006807F009FD02D2CF
:10298000534958480160584800680390109907F06F
:1029900033FD554948600A99109807F02BFE0390C3
:1029A0005148006901460290039807F025FD4E4901
:1029B0004861049807F0D8FC02904B4880680146B3
:1029C0000190029807F018FD0390464801680398AB
:1029D00007F012FD4449C860084640690290084665
:1029E00040680190029907F007FB03903E48C068D9
:1029F00001460290039807F0FFFA3B49886110985E
:102A00000A9034488069039007F05AFC00B23749B5
:102A100008800846B0F90000C82802DDC821334804
:102A200001803248B0F9000010F1C80F03DA6FF0EE
:102A3000C7012E4801802E488069039007F040FCB2
:102A400001B22C4801802A488069019007F0A8FA59
:102A500002460B46CDE9020127A0FDF72DFC2548D3
:102A6000B0F9001026A0FDF727FC2248B0F90000BD
:102A7000C82802DDC8211F4801801E48B0F90000A7
:102A800010F1C80F03DA6FF0C7011A480180164829
:102A90008069039007F014FC00B21B4908800846C7
:102AA000B0F90000C82802DDC82117480180164887
:102AB000B0F9000010F1C80F03DA6FF0C700124937
:102AC000088017B05DF814FB000100200000F04101
:102AD0000000F0C11404002098030020DC03002053
:102AE000000039400401002030040020DE000020F6
:102AF000F8030020E00000200D0A2566200D0A00E2
:102B00000D0A2564200D0A00E200002070B504467D
:102B10004C4801684C48006807F06EFA4A49086062
:102B20004A4800884A490988084400B24849088050
:102B30004648408847490988084400B2454908800A
:102B40004248808844490988084400B242490880C4
:102B50004248008842490988084400B24049088038
:102B60003E4840883F490988084400B23D490880F2
:102B70003A4880883C490988084400B23A490880AC
:102B80003A480068401C3949086008460068A0427D
:102B900057D1002008602E48B0F9000090FBF4F0F7
:102BA00000B2334908800020294908802948B0F93B
:102BB000000090FBF4F000B22D4948800020254928
:102BC00008802548B0F9000090FBF4F000B22849D5
:102BD00088800020204908802148B0F9000090FB3F
:102BE000F4F000B22349088000201D4908801D48E8
:102BF000B0F9000090FBF4F000B21E4948800020BC
:102C0000184908801848B0F9000090FBF4F000B2B1
:102C100018498880002014490880204607F0A4FB4A
:102C2000054629460848006807F054FA124908602A
:102C3000002005490860114908700121104802F080
:102C400044FE70BD8C000020B40000205400002021
:102C5000A8000020AA000020AC0000205A0000209C
:102C6000A2000020A4000020A6000020B000002048
:102C7000660000206C0000209C000020A0000020C6
:102C80000004004070B52F4800882F490988401A79
:102C900000B22E4908802B4840882B494988401AA9
:102CA00000B22A49488027488088888028480088C0
:102CB00028490988401A00B22749088024484088DA
:102CC00024494988401A00B2234948802048808816
:102CD00020498988401A00B21F4988801F49B1F9EC
:102CE000000007F029FB05461D480168284607F04B
:102CF00081FC044607F0E4FA00B21A49088017493B
:102D0000B1F9020007F018FB05461548416828464E
:102D100007F070FC044607F0D3FA00B2114948806E
:102D20000E49B1F9040007F007FB05460C4881681D
:102D3000284607F05FFC044607F0C2FA00B20949D2
:102D4000888070BD540000206600002078000020BC
:102D50005A0000206C0000207E000020600000204F
:102D6000900200208400002070470EB50E21012043
:102D700000F040FB4FF48040019000208DF80800E7
:102D800008208DF8090001208DF80A0001A800F044
:102D900047F828208DF8000000208DF80100012060
:102DA0008DF802008DF80300684601F05DFD0EBD50
:102DB00010B54FF4804000F01FF801280BD100201F
:102DC000074908600749C1F8A40101200449091D09
:102DD0000860054908704FF4804000F007F810BD06
:102DE000A081214200802142C601002001490860E3
:102DF0007047000014040140014600200022074BE8
:102E00001B6803EA0102054B14331B680B4013B126
:102E10000AB1012000E000207047000000040140DA
:102E2000002123498279002A3AD00A4612680368B1
:102E30009A430B461A600A1D126803689A430B1DD9
:102E40001A60027911440A6803681A430A60184A32
:102E50000832126803689A43154B08331A601A1D2A
:102E6000126803689A43124B0C331A604279102A95
:102E70000ED11A1F126803681A430D4B08331A60EB
:102E80001A1D126803681A43094B0C331A600DE0CF
:102E90000749427911440A6803681A430A6005E049
:102EA000027911440A6803689A430A607047000077
:102EB000000401402DE9F05F9E49B1F9000007F0E0
:102EC0003BFA04469C480168204607F061FA1ED28E
:102ED0009949086807F064F80646984A984B06F046
:102EE0004FFD804689469349B1F9000006F0F4FC95
:102EF0000646924A934B06F043FD824642464B46B5
:102F000006F0D6FA044606F0A1FA8B490860894912
:102F1000B1F9000007F010FA0446874841682046DE
:102F200007F036FB1ED28449486807F039F8064698
:102F3000824A834B06F024FD04460D467D49B1F9D3
:102F4000000006F0C9FC06467C4A7E4B06F018FDE0
:102F5000804622462B4606F0ABFA824606F076FA09
:102F6000754948607349B1F9020007F0E5F9044674
:102F700071488168204607F00BFA1ED26E498868B6
:102F800007F00EF806466D4A6D4B06F0F9FC044654
:102F90000D466849B1F9020006F09EFC0646674AF4
:102FA000684B06F0EDFC804622462B4606F080FA80
:102FB000824606F04BFA604988605E49B1F902002A
:102FC00007F0BAF904465C48C168204607F0E0FA09
:102FD0001ED25949C86806F0E3FF0646574A584BC7
:102FE00006F0CEFC04460D465249B1F9020006F047
:102FF00073FC0646514A534B06F0C2FC80462246FB
:103000002B4606F055FA824606F020FA4A49C86077
:103010004849B1F9040007F08FF9044646480169B0
:10302000204607F0B5F91ED24349086906F0B8FFFB
:103030000646424A424B06F0A3FC04460D463D4973
:10304000B1F9040006F048FC06463C4A3D4B06F048
:1030500097FC804622462B4606F02AFA824606F066
:10306000F5F9354908613349B1F9040007F064F90D
:10307000044631484169204607F08AFA1ED22E499B
:10308000486906F08DFF06462C4A2D4B06F078FC69
:1030900004460D462749B1F9040006F01DFC06461A
:1030A000264A284B06F06CFC804622462B4606F04A
:1030B000FFF9824606F0CAF91F4948611E4A516865
:1030C000106806F099FF804606F06AFF0646002267
:1030D0004FF0804306F0A8FA044606F0B7F91A4903
:1030E0000860154AD168906806F086FF804606F0B1
:1030F00057FF064600224FF0804306F095FA04463B
:1031000006F0A4F9104948600B4A5169106906F0AD
:1031100073FF804606F044FF064600224FF08043CE
:1031200006F082FA044606F091F907498860BDE886
:10313000F09F000060000020B80000209A99999943
:103140009999E93F9999C93F9002002000B589B04B
:10315000224B234A2349244804F0A2FF03AA04A9CE
:1031600005A801F031F8BDF9140020490880BDF927
:1031700010004880BDF90C00888006AA07A908A89D
:1031800001F04AF8BDF9200019490880BDF91C007A
:103190004880BDF91800888000F0DEFF01A801F02A
:1031A00039FB9DF805009DF8041040EA012000B2AB
:1031B000104908809DF807009DF8061040EA01209C
:1031C00000B20C4988809DF809009DF8081040EA7B
:1031D000012000B20749488009B000BD400000202E
:1031E0003C00002038000020340000205400002063
:1031F0005A000020600000202DE9F04F87B001F058
:103200008DFD3849B1F9040007F096F804463549B8
:10321000B1F9020007F090F805463249B1F9000013
:1032200007F08AF806463049B1F9040007F084F83F
:1032300007462D49B1F9020007F07EF880462A4979
:10324000B1F9000007F078F828490690B1F90400B8
:1032500007F072F82649059007F0CEF88146234919
:10326000B1F9020007F068F82149059007F0C4F8A9
:1032700082461E49B1F9000007F05EF81C4905902E
:1032800007F0BAF88346CDE90087CDE902650494DA
:103290004A465146069BFEF7B1FA1449B1F90000BF
:1032A00007F04AF80446134907F0A6F812490860E7
:1032B0000E49B1F9020007F03FF804460D4907F046
:1032C0009BF80D4948600949B1F9040007F034F84A
:1032D0000446084907F090F80749886007B0BDE840
:1032E000F08F000096000020900000207E0000205B
:1032F00089A18B3AF1FF793D9803002010B588B081
:103300002D48006802902C48406803902A48806845
:1033100004902A480068059028484068069027488D
:1033200080680790DDE90601CDE9000102A80FC819
:10333000FFF746F8224800882249098808442249B4
:1033400009880844214908800846018820A0FCF724
:10335000B3FF1B48008822490988401A1A49098886
:10336000401A1A4948801648008816490988401AA8
:10337000154909880844154988800846818819A09C
:10338000FCF79AFF0E4800881549098808440E4941
:103390000988401A0D49C8800C46E48823B20C46BF
:1033A000A48822B20C46648821B2084C248820B23A
:1033B00001F0D6F908B010BD8C0300208404002071
:1033C0005C010020E0000020E2000020D40000208A
:1033D0000D0A6D6F746F725B305D2564200D0A00FD
:1033E000DE0000200D0A6D6F746F725B325D256424
:1033F000200D0A0030B500228B071C0F0F2303FAA3
:1034000004F20B4B8C1053F824309343084C8D106E
:1034100044F8253023468C1053F824308C07240FB1
:1034200000FA04F42343024C8D1044F8253030BDDB
:10343000080001402DE9F041024600250026002049
:1034400000230024002791F803C00CF00F0591F829
:1034500003C00CF0100CBCF1000F03D091F802C0B7
:103460004CEA050591F800C0BCF1000F31D014689A
:1034700000202BE04FF0010C0CFA00F3B1F800C073
:103480000CEA03069E4220D183004FF00F0C0CFA89
:1034900003F7BC4305FA03FC4CEA040491F803C0AB
:1034A000BCF1280F06D14FF0010C0CFA00FCC2F859
:1034B00014C00AE091F803C0BCF1480F05D14FF0E9
:1034C000010C0CFA00FCC2F810C0401C0828D1D333
:1034D0001460B1F800C0BCF1FF0F34DD5468002067
:1034E0002EE000F1080C4FF0010808FA0CF3B1F8D7
:1034F00000C00CEA03069E4221D183004FF00F0C5E
:103500000CFA03F7BC4305FA03FC4CEA040491F8F7
:1035100003C0BCF1280F05D100F1080C08FA0CF823
:10352000C2F8148091F803C0BCF1480F07D100F134
:10353000080C4FF0010808FA0CF8C2F81080401C83
:103540000828CED35460BDE8F0810000F0B50A46EB
:10355000002300240021002500F00046B6F1004FB2
:1035600002D11D4EF16901E01B4E7168C0F30345A5
:1035700083B200F44016B6F5401F08D121F0706107
:10358000154E766826F07066134F7E6012E000F4E8
:103590008016B6F5801F06D1032606FA05F4A1436E
:1035A00041F0706106E0460D360103FA06F6B143BC
:1035B00041F0706122B1460D360103FA06F631433F
:1035C00000F00046B6F1004F02D1034EF16101E078
:1035D000014E7160F0BD0000000001404161704784
:1035E0000161704770B50024FD48008800F4004078
:1035F00000287DD0FA480088C4B20020F949085557
:1036000008460078332818D1F749F848006806F0D2
:10361000F3FCF6490860F648026808460168F54878
:10362000006801F0CBFAF148006806F0B9FC0546E5
:103630002A460B46F0A0FCF73FFEEA480078342803
:1036400018D1E949E948006806F0D4FFE749086065
:10365000E748026808460168E648006801F0AEFAEB
:10366000E248006806F09CFC05462A460B46E2A0AC
:10367000FCF722FEDB480078352818D1DA49E24809
:10368000006806F0B9FCE0490860E04802680846B6
:103690000168DF48006801F083FADB48006806F043
:1036A0007FFC05462A460B46DAA0FCF705FECD480E
:1036B0000078362818D1CC49D348006806F09AFF24
:1036C000D1490860D148026808460168D0480068BE
:1036D00001F066FACC48006806F062FC05462A460E
:1036E0000B46CCA0FCF7E8FDBE480078372800E088
:1036F00001E318D1BC49CB48006806F07DFCC949FC
:103700000860C948026808460168C848006801F0B6
:1037100039FAC448006806F043FC05462A460B46C1
:10372000C3A0FCF7C9FDAF480078382818D1AE49CE
:10373000BC48006806F05EFFBA490860BA480268F3
:1037400008460168B948006801F01CFAB5480068ED
:1037500006F026FC05462A460B46B5A0FCF7ACFD54
:10376000A0480078392818D19F49B548006806F06C
:1037700043FCB3490860B348026808460168B24890
:10378000006801F0F1F9AE48006806F009FC054652
:103790002A460B46ADA0FCF78FFD924800783128F1
:1037A0001DD190484078322819D18F49AB48006824
:1037B00006F020FFA9490860A94802680846016888
:1037C000A848006801F0C2F9A448006806F0E8FBC8
:1037D00005462A460B46A4A0FCF76EFDC1E18148D0
:1037E000007831281DD17F484078312819D17E4991
:1037F0009A48006806F000FC9849086098480268FA
:10380000084601689748006801F0A0F993480068ED
:1038100006F0C6FB05462A460B4693A0FCF74CFD76
:103820009FE17048007831281DD16E4840783028DB
:1038300019D16D498248006806F0DCFE80490860B5
:1038400080480268084601687F48006801F08CF9EA
:103850007B48006806F0A4FB05462A460B467BA081
:10386000FCF72AFD7DE15F48007831281DD15D48D5
:103870004078332819D15C497F48006806F0BCFBCA
:103880007D4908607D4802687D4801687A48006883
:1038900001F0A2F97848006806F082FB05462A4646
:1038A0000B4678A0FCF708FD5BE14E480078312814
:1038B0001DD14C484078342819D14B496E480068D6
:1038C00006F098FE6C4908606C4802686C48016814
:1038D0006948006801F080F96748006806F060FBFD
:1038E00005462A460B4667A0FCF7E6FC39E13D4851
:1038F000007831281DD13B484078352819D13A4904
:103900003C48006806F078FB3A490860384802688D
:10391000364801683748006801F050F935480068BA
:1039200006F03EFB05462A460B465BA0FCF7C4FCAE
:1039300017E12C48007831281DD12A4840783628D4
:1039400019D129492B48006806F054FE294908601E
:1039500027480268254801682648006801F02EF9CA
:103960002448006806F01CFB05462A460B464AA080
:10397000FCF7A2FCF5E01B48007831281DD119485E
:103980004078372819D118492148006806F034FBDF
:103990001F4908601D4802681B4801681C480068F0
:1039A00001F0FEF81A48006806F0FAFA05462A46C1
:1039B0000B463EA0FCF780FCD3E00A480078312893
:1039C0007ED10848407838287AD1074910480068E5
:1039D00006F010FE0E4908600C4802680A4870E0C4
:1039E000B8010020A0040020CDCCCC3D1401002063
:1039F000440100202C0100200D0A524F4C4C6F75E1
:103A000074493A25660D0A0018010020480100207B
:103A1000300100200D0A524F4C4C6F7574443A250A
:103A2000660D0A001C0100204C010020340100201A
:103A30000D0D524F4C4C696E503A25660D0A000030
:103A40002001002050010020380100200D0D524FB0
:103A50004C4C696E493A25660D0A0000240100208D
:103A6000540100203C0100200D0D524F4C4C696E5A
:103A7000443A25660D0A000028010020400100207C
:103A8000100100200D0D50495443486F7574503A91
:103A900025660D0A000000000D0D50495443486F83
:103AA0007574493A25660D0A000000000D0D504955
:103AB0005443486F7574443A25660D0A00000000AF
:103AC00010E001688C48006801F06AF88A480068D4
:103AD00006F066FA05462A460B46AFF23000FCF7C0
:103AE000EBFB3EE08548007831281DD183484078C3
:103AF000392819D182498348006806F07DFA814946
:103B0000086081480268814801687E48006801F0C9
:103B100039F87C48006806F043FA05462A460B4609
:103B20007BA0FCF7C9FB1CE074480078312818D151
:103B300073497B48006806F05FFA79490860794864
:103B40000268084601687848006801F045F8744842
:103B5000006806F025FA05462A460B4673A0FCF7D6
:103B6000ABFB6648007832281DD164484078302885
:103B700019D163496348006806F03CFD614908605B
:103B800061480268614801685E48006800F0FAFF19
:103B90005C48006806F004FA05462A460B465CA01D
:103BA000FCF78AFBA4E05548007832281DD1534821
:103BB0004078312819D152496048006806F01CFA53
:103BC0005E4908605E4802685E4801685B480068BC
:103BD00000F0CAFF5948006806F0E2F905462A4697
:103BE0000B4659A0FCF768FB82E044480078322875
:103BF0001DD142484078322819D141494F480068C8
:103C000006F0F8FC4D4908604D4802684D480168CF
:103C10004A48006800F0A8FF4848006806F0C0F96C
:103C200005462A460B4648A0FCF746FB60E03348B1
:103C3000007832281DD131484078332819D13049D5
:103C40004548006806F0D8F94349086043480268CF
:103C5000434801684048006800F078FF3E4800682B
:103C600006F09EF905462A460B463EA0FCF724FBCB
:103C70003EE02248007832281DD120484078342880
:103C800019D11F493448006806F0B4FC3249086075
:103C900032480268324801682F48006800F056FF39
:103CA0002D48006806F07CF905462A460B462DA0F3
:103CB000FCF702FB1CE011480078322818D11049AB
:103CC0001748006806F096FC154908601548026818
:103CD000084601681448006800F07EFF104800683C
:103CE00006F05EF905462A460B4610A0FCF7E4FAFA
:103CF00000202049088070BD30010020A004002071
:103D0000CDCCCC3D340100204C0100201C01002012
:103D10000D0D5049544348696E503A25660D0A000E
:103D20001001002040010020280100200D0A524F00
:103D30004C4C6F7574503A25660D0A00380100200E
:103D400050010020200100200D0D504954434869C6
:103D50006E493A25660D0A003C01002054010020FE
:103D6000240100200D0D5049544348696E443A2502
:103D7000660D0A00B80100200648007800F08000B7
:103D800028B1054908880021024A117070470020B7
:103D9000FCE70000BA010020BC01002010B5094872
:103DA000007800F0800050B107480488214607A041
:103DB000FCF782FA002003490870204610BD00205D
:103DC000FCE70000BE010020C00100204849474830
:103DD000323A25642075730D0A00000010B50948B9
:103DE000007800F0800050B107480488214607A001
:103DF000FCF762FA002003490870204610BD00203D
:103E0000FCE70000C2010020C401002048494748E7
:103E1000333A25642075730D0A00000000BFFEE7E9
:103E200010B500200E4908600E48406820F0704030
:103E30000C4948600846406840F040504860002007
:103E40000949C1F8BC0100F011F8012004490860DB
:103E500000F00CF800200449C1F8B80110BD0000C2
:103E6000B8012242001001400000224210B5022099
:103E700002F036FF10BD000008B50121102000F04F
:103E800081FF4FF44040ADF8000010208DF8030092
:103E900003208DF8020069460448FFF7CBFA4FF47F
:103EA00040410248FFF79CFB08BD000000100140A4
:103EB00010B500200E4908600E48406820F07040A0
:103EC0000C4948600846406840F040504860012076
:103ED0000949C1F8BC01FFF7C9FF01200449086086
:103EE000FFF7C4FF00200449C1F8B80110BD00006D
:103EF000B8012242001001400000224270B5054680
:103F000000241648406820F0704014494860084674
:103F1000406840F000404860002614E0002010494E
:103F20000860FFF7A3FF01200E49C1F8B801600641
:103F3000040E0B487C38006808B1601CC4B2FFF75F
:103F400095FF701CC6B2082EE8DB15B9FFF7B0FF6D
:103F500001E0FFF765FF204670BD00000010014042
:103F6000B80122420000224270B50446124840685F
:103F700020F07040104948600846406840F04050CA
:103F8000486000200D490860002512E0E0090B4957
:103F9000091D08606006040E01200949C1F8B80136
:103FA000FFF764FF002005490860FFF75FFF681C0A
:103FB000C5B2082DEADB70BD00100140B8012242F5
:103FC0000000224210B50E48406820F070400C49B5
:103FD00048600846406840F0405048600120094968
:103FE00008600949C1F8B801FFF740FF0020054902
:103FF0000860FFF73BFF00200349C1F8B80110BD7E
:1040000000100140BC0122420000224210B50E48BF
:10401000406820F070400C4948600846406840F015
:10402000405048600020094908600949C1F8BC01B6
:10403000FFF71CFF0120054908600549C1F8BC01D4
:10404000FFF714FF10BD000000100140B80122422C
:104050000000224210B500241448406820F070404F
:10406000124948600846406840F00040486001201E
:104070000F490860FFF7FAFE01200E49C1F8B801A8
:10408000FFF7F4FE07E0601CC4B2FA2C03DDFFF773
:10409000BDFF012010BD0648803800680028F2D11D
:1040A0000349091F086000BFF4E700000010014049
:1040B000BC0122420000224210B5AA2000F081FB80
:1040C0001A490880AC2000F07CFB19490880AE201A
:1040D00000F077FB17490880B02000F072FB16490A
:1040E0000880B22000F06DFB14490880B42000F075
:1040F00068FB13490880B62000F063FB1149088073
:10410000B82000F05EFB10490880BA2000F059FB8F
:104110000E490880BC2000F054FB0D490880BE20E9
:1041200000F04FFB0B49088010BD000098010020F3
:104130009A0100209C010020A8010020AA01002073
:10414000AC0100209E010020A0010020A20100205F
:10415000A4010020A601002010B57021002001F06C
:10416000D0FFA021012001F0CCFF0021022001F0AE
:10417000C8FF10BD08B50121182000F003FE4FF460
:104180008050ADF8000010208DF8030003208DF85A
:10419000020069460A48FFF74DF94FF4805108487C
:1041A000FFF71EFA4FF40050ADF8000069460548CD
:1041B000FFF740F94FF400510248FFF711FA08BD2C
:1041C000000C0140001001402DE9FC4104460D4661
:1041D00016466B4606223B21682000F0E9F90746A7
:1041E000BFB99DF801009DF8001040EA012000B21F
:1041F00020809DF803009DF8021040EA012000B2E3
:1042000028809DF805009DF8041040EA012000B2C6
:1042100030803846BDE8FC812DE9FC4104460D465E
:1042200016466B4606224321682000F0C1F9074676
:10423000BFB99DF801009DF8001040EA012000B2CE
:1042400020809DF803009DF8021040EA012000B292
:1042500028809DF805009DF8041040EA012000B276
:1042600030803846BDE8FC8110B500200E4908605A
:104270000E48006820F470200C4908600846006869
:1042800040F44030086000200949C1F8900100F076
:1042900011F801200449086000F00CF800200449DE
:1042A000C1F8940110BD00009401214200080140B2
:1042B0000000214210B5022002F012FD10BD0000E6
:1042C00008B50121042000F05DFD3020ADF80000AC
:1042D00010208DF8030003208DF802006946044881
:1042E000FFF7A8F830210248FFF77AF908BD00006F
:1042F0000008014010B500200E4908600E48006813
:1043000020F470200C4908600846006840F44030F2
:10431000086001200949C1F89001FFF7CBFF012097
:1043200004490860FFF7C6FF00200449C1F8940162
:1043300010BD00009401214200080140000021420C
:1043400070B5054600241648006820F47020144912
:1043500008600846006840F400200860002614E069
:10436000002010490860FFF7A5FF01200E49C1F8A1
:1043700094016006040E0B488438006808B1601C84
:10438000C4B2FFF797FF701CC6B2082EE8DB15B960
:10439000FFF7B0FF01E0FFF767FF204670BD0000A8
:1043A00000080140940121420000214270B50446FA
:1043B0001248006820F47020104908600846006820
:1043C00040F44030086000200D490860002512E0EC
:1043D000E0090B49091F08606006040E0120094925
:1043E000C1F89401FFF766FF002005490860FFF758
:1043F00061FF681CC5B2082DEADB70BD00080140F2
:10440000940121420000214210B50E48006820F4BA
:1044100070200C4908600846006840F4403008608D
:104420000120094908600949C1F89401FFF742FFDA
:10443000002005490860FFF73DFF00200349C1F84F
:10444000940110BD0008014090012142000021426A
:1044500010B50E48006820F470200C49086008462A
:10446000006840F4403008600020094908600949AC
:10447000C1F89001FFF71EFF0120054908600549BA
:10448000C1F89001FFF716FF10BD000000080140C1
:10449000940121420000214210B500241448006814
:1044A00020F47020124908600846006840F400209B
:1044B000086001200F490860FFF7FCFE01200E494B
:1044C000C1F89401FFF7F6FE07E0601CC4B2FA2CB5
:1044D00003DDFFF7BDFF012010BD064880380068EE
:1044E0000028F2D10349091D086000BFF4E700006D
:1044F00000080140900121420000214210B5FFF761
:10450000DFFE80216B2000F0D7F8642002F0C2FBB0
:1045100000216B2000F0D0F8032000F08BF8012080
:1045200000F080F8C82000F0AAF80021382000F040
:10453000C3F80021232000F0BFF80221372000F04B
:10454000BBF8C0216A2000F0B7F8752000F013F81E
:104550000446682C0BD101216B2000F0ADF800213E
:104560006C2000F0A9F8322000F089F801E0012069
:1045700010BD0020FCE770B50446FFF745FFD020D2
:10458000FFF714FFFFF788FF2046FFF70FFFFFF745
:1045900083FFFFF739FFD120FFF708FFFFF77CFF0C
:1045A0000020FFF7CDFE0546FFF752FF284670BDFD
:1045B0002DE9F04106460F4614461D46FFF724FF3D
:1045C000002141EA4601C8B2FFF7F0FEFFF764FFA1
:1045D00020B1FFF73DFF0120BDE8F0813846FFF72D
:1045E000E5FEFFF759FFFFF70FFF012101EB460141
:1045F000C8B2FFF7DBFEFFF74FFF0DE0012C04D13F
:104600000020FFF79DFE287003E00120FFF798FED1
:104610002870601EC4B26D1C002CEFD1FFF718FF8C
:104620000020D9E710B50446E006010E1C2000F07A
:1046300043F810BD10B50446E006010E1B2000F043
:104640003BF810BD70B504460025BC2C01DB0125EC
:1046500010E0622C01DB02250CE02A2C01DB032593
:1046600008E0142C01DB042504E00A2C01DB0525FD
:1046700000E0062529461A2000F01EF870BD70B52E
:104680000446B4F57A7F01DD4FF47A74042C00DA25
:1046900004244FF47A7090FBF4F0401EC5B2294612
:1046A000192000F009F80546264604EBD671C1F33F
:1046B0004F00FFF7C7FF70BD70B505460C46FFF70A
:1046C000A3FED020FFF772FEFFF7E6FE18B1FFF75A
:1046D000BFFE012070BD2846FFF768FEFFF7DCFE35
:1046E0002046FFF763FEFFF7D7FE18B1FFF7B0FED5
:1046F0000120EFE7FFF7ACFE0020EBE72DE9F041EA
:1047000005460E4617469846FFF77EFE002141EA11
:104710004501C8B2FFF74AFEFFF7BEFE20B1FFF722
:1047200097FE0120BDE8F0813046FFF73FFEFFF71E
:10473000B3FE00240CE018F80400FFF737FEFFF783
:10474000ABFE18B1FFF784FE0120EBE7601CC4B29A
:10475000BC42F0DBFFF77CFE0020E3E700BFFEE792
:104760002DE9FC4104460D4616461F4640F6AC5066
:10477000844200DD044640F6AC50854200DD05462B
:1047800040F6AC50864200DD064640F6AC5087420B
:1047900000DD0746002C00DA0024002D00DA002599
:1047A000002E00DA0026002F00DA00272B462246D2
:1047B000472144F61F60CDE9006700F031FABDE8FB
:1047C000FC812DE9F0410446FFF7FCFBEE20FFF7EA
:1047D000CBFBFFF73FFC2046FFF7C6FBFFF73AFC99
:1047E000FFF7F0FBEF20FFF7BFFBFFF733FC0120E3
:1047F000FFF784FB05460020FFF780FB0646FFF726
:1048000005FC032002F046FA46EA052007B23846C6
:10481000BDE8F08170B50546FFF7D4FB3C20FFF7FB
:10482000A3FBFFF717FC0320FFF79EFBFFF712FC2B
:10483000FFF7C8FB3D20FFF797FBFFF70BFC0024B9
:104840000CE0052C04D10020FFF758FB285503E0AD
:104850000120FFF753FB2855601CC4B2062CF0DB87
:10486000FFF7D4FB70BD704770B5002100230F2205
:10487000C47804B3154C246804F4E064C4F5E0641F
:10488000210AC1F10403CA40447804FA03F1847890
:104890001440214309010E4C0678A155047804F018
:1048A0001F050124AC4005786D11AD0005F1E02530
:1048B000C5F8004109E0047804F01F050124AC406C
:1048C000044D0678761145F8264070BD0CED00E0E9
:1048D00000E400E080E100E002490143024A116087
:1048E000704700000000FA050CED00E010B5002153
:1048F000094800F0EAFF00240BE0FEF727FCFDF773
:1049000091FC04F0BBFC054908600A20FEF7FEF8A4
:10491000641C0A2CF1DD10BD000400408C00002056
:1049200010B500242146552000F0FAFB10BD70B5EB
:10493000802422255E2621464F2000F0F1FB2146EF
:10494000502000F0EDFB0021512000F0E9FB29464A
:10495000522000F0E5FB3146532000F0E1FB2146F8
:10496000542000F0DDFB9E21582000F0D9FB70BDE3
:1049700010B540242146562000F0D2FB10BD0000A7
:1049800038B500250121042000F0FCF901210820A0
:1049900000F0F8F94EF22030ADF8000010208DF84C
:1049A000030003208DF8020069463048FEF742FDFF
:1049B0004EF220312D48FEF713FE4FF4F850ADF8BB
:1049C000000048208DF8030069462948FEF732FDB3
:1049D0000121052000F0D6F901212648FEF7B6FD99
:1049E0004FF46040ADF8000048208DF803006946A0
:1049F0001F48FEF71FFD00F04FFA8021122000F043
:104A00008FFB08B1012038BD322002F043F90B20A2
:104A100000F0D4FA0446732C01D00220F3E70A20F8
:104A200000F0CCFA0446762C01D00220EBE70025FA
:104A30000AE0114A02EB450251780F4A12F81500BC
:104A400000F06EFB681C85B2A82DF2D340F2DC505A
:104A500002F020F900F012F8FFF769FFFFF760FF9E
:104A6000FFF786FF00F01BF80020CCE7000C0140A8
:104A700000080140000430001AB4000870B5E724B3
:104A8000002500262146132000F04AFB294601207C
:104A900000F046FB3146022000F042FB70BD70B5CD
:104AA0000424C025802621463A2000F039FB2946FF
:104AB000682000F035FB3146672000F031FB70BD07
:104AC0002DE9F04705460E469046994605EB48000D
:104AD0001FFA80FA06EB490087B2B7F5447F02DD82
:104AE000A7F5447087B2032000F068FA044604F08A
:104AF000F0040AF00301284661F39F0004432146B5
:104B0000032000F00DFBC5F38701192000F008FB1E
:104B1000CAF387011A2000F003FB322000F04EFA9E
:104B2000044604F0C00407F00701304661F3DF00DB
:104B30000443C6F3C701172000F0F2FAC7F3C70118
:104B4000182000F0EDFABDE8F0870000034B186173
:104B5000034B1961034B1A6170470000F8030020F2
:104B60001404002030040020034B9860034B99602C
:104B7000034B9A6070470000F803002014040020E3
:104B800030040020034B1860034B1960034B1A607C
:104B900070470000F80300201404002030040020B7
:104BA000034B1861034B1961034B1A6170470000F6
:104BB000A4030020C0030020DC030020034B986006
:104BC000034B9960034B9A6070470000A4030020D8
:104BD000C0030020DC030020034B1860034B196066
:104BE000034B1A6070470000A4030020C00300209C
:104BF000DC03002008B50121052000F0C3F80F20D8
:104C0000ADF8000018208DF8030003208DF8020095
:104C100069460248FEF70EFC08BD0000000801408E
:104C20002DE9F04387B004460D4617461E46DDE9E0
:104C30000E890121084600F085F8ADF81440ADF862
:104C400010500120ADF816000020ADF8120004A9A4
:104C50004FF0804001F06AF86020ADF800000120BC
:104C6000ADF80200B8B2ADF806000020ADF80800BB
:104C700069464FF0804000F0AFFE0821C80600F002
:104C800000FF6020ADF800000120ADF80200B0B2D6
:104C9000ADF806000020ADF8080069464FF08040EE
:104CA00000F0F8FE0821C80600F053FF6020ADF8C0
:104CB00000000120ADF802001FFA88F0ADF80600F0
:104CC0000020ADF8080069464FF0804000F04EFF2C
:104CD0000821C80600F0A7FF6020ADF80000012001
:104CE000ADF802001FFA89F0ADF806000020ADF81B
:104CF000080069464FF0804000F09EFF0821C8067A
:104D000000F0D8FF0121880700F0D0FD01218807BD
:104D100000F0DBFD07B0BDE8F083704710B501E09F
:104D2000FFF7E4FD064800780128F9D0FEF70EFAF7
:104D3000FEF7C0F8FDF7A6FFFCF78CFC10BD0000E5
:104D4000A000002029B1064AD2690243044BDA616F
:104D500004E0034AD2698243014BDA6170470000E4
:104D60000010024029B1064A12690243044B1A613D
:104D700004E0034A12698243014B1A617047000044
:104D80000010024029B1064A92690243044B9A611D
:104D900004E0034A92698243014B9A617047000024
:104DA0000010024029B1064AD2680243044BDA607F
:104DB00004E0034AD2688243014BDA607047000086
:104DC0000010024030B500210022002400232D4DA8
:104DD0006D6805F00C0121B1042905D0082923D103
:104DE00005E0294D056022E0274D05601FE0254DB7
:104DF0006D6805F47012234D6D6805F4803402254A
:104E000005EB92421CB9214D554305600BE01D4D49
:104E10006D6805F400351DB11C4D5543056002E079
:104E2000194D5543056002E0174D056000BF00BFF6
:104E3000144D6D6805F0F0010909154D6B5C0568AE
:104E4000DD4045600F4D6D6805F4E061090A104DC5
:104E50006B5C4568DD4085600A4D6D6805F4605106
:104E6000C90A0B4D6B5C4568DD40C560054D6D683A
:104E700005F44041890B074D6B5CC568B5FBF3F544
:104E8000056130BD0010024000127A0000093D00AB
:104E90001E0000202E00002008B501210920FFF788
:104EA00071FF01211648FEF751FB1020ADF80000FC
:104EB00048208DF8030003208DF802006946114850
:104EC000FEF7B8FA10210F48FEF78AFB0820ADF86C
:104ED000000010208DF8030069460A48FEF7AAFA80
:104EE00008210848FEF77CFB0648006820F4702083
:104EF000044908600846006840F44030086008BD76
:104F000000043000000C014010B5322001F0E8FE32
:104F100001200B4908600B49C1F88C01322001F0D7
:104F2000DFFE00200649091F0860322001F0D8FE8C
:104F300000200449C1F89001322001F0D1FE10BDDB
:104F4000908121420080214270B5002418480068F9
:104F500020F47020164908600846006840F40020DC
:104F60000860082515E0322001F0BAFE0120114941
:104F700008606006040E1048D0F8100108B1601CEB
:104F8000C4B2322001F0ACFE00200A490860681E5D
:104F9000C5B2002DE7DC0648006820F47020044903
:104FA00008600846006840F440300860204670BD44
:104FB000000C01408C8121420080214270B50446E2
:104FC000002500F023F8422000F054F8642001F09E
:104FD00087FE204600F04EF8642001F081FE00F0CC
:104FE0002FF8642001F07CFE00F010F8432000F060
:104FF00041F8642001F074FEFFF7A6FF0546FFF7B5
:1050000083FF00F01DF8284670BD000010B5012098
:10501000094908600949C1F88C01322001F060FE9D
:10502000002005490860322001F05AFE00200349A3
:10503000C1F88C0110BD0000908121420080214206
:1050400010B5002009490860322001F049FE012016
:105050000749C1F88C01322001F042FE01200349CA
:105060000860322001F03CFE10BD0000908121421A
:105070000080214270B5044600261BE004F0800049
:1050800018B101202349086002E00020214908608E
:105090006006040E322001F023FE01201D49091F85
:1050A0000860322001F01CFE00201B49C1F88C0171
:1050B000701CC6B2082EE1DB1848006820F470208E
:1050C000164908600846006840F400200860322055
:1050D00001F006FE01200F49091F0860322001F08F
:1050E000FFFD0D48D0F8100108B1012500E00025B2
:1050F00000200849091F08600848006820F4702053
:10510000064908600846006840F4403008602846B8
:1051100070BD00009081214200802142000C0140BE
:1051200070B505460C460026FFF770FF4220FFF7DA
:10513000A1FF00B10126642001F0D2FD2846FFF74F
:1051400099FF00B10126642001F0CAFD2046FFF757
:1051500091FF00B10126FFF773FF304670BD704725
:1051600010B500F001F810BD0CB5002001900090C2
:105170003348006840F480303149086000BF30484F
:10518000006800F4003000900198401C01900098E5
:1051900018B90198B0F5A06FF1D12948006800F462
:1051A000003010B10120009001E000200090009834
:1051B000012843D12348006840F0100021490860CD
:1051C0000846006820F0030008600846006840F0C8
:1051D000020008601A48406819494860084640685B
:1051E00048600846406840F480604860084640686F
:1051F00020F47C1048600846406840F4E81048609D
:105200000846006840F08070086000BF0C480068E5
:1052100000F000700028F9D00948406820F0030031
:10522000074948600846406840F00200486000BFF7
:105230000348406800F00C000828F9D10CBD0000BC
:105240000010024000200240042808D14FF0E02165
:10525000096941F004014FF0E022116107E04FF0CD
:10526000E021096921F004014FF0E022116170474B
:105270007047000010B51348006840F00100114964
:10528000086008464068104908400E4948600846D2
:1052900000680E4908400B4908600846006820F481
:1052A000802008600846406820F4FE0048604FF403
:1052B0001F008860FFF754FF4FF00060044908604A
:1052C00010BD0000001002400000FFF8FFFFF6FED6
:1052D00008ED00E0F0B50C46154600220021068CD2
:1052E0004FF6FE773E400684028B018C4FF60C761B
:1052F00032407E1C06EA03162E433243104EB04263
:105300000ED0104EB0420BD0B0F1804F08D00E4EF0
:10531000B04205D00D4EB04202D00D4EB04206D183
:105320004FF6FD76314044F00106314305E04FF67B
:10533000F576314044F00106314302830184F0BD2B
:10534000002C0140003401400004004000080040EF
:10535000000C0040F0B50C46154600220021002646
:10536000078C4FF6EF7C07EA0C070784028B018C51
:105370004FF6FF7707EA041640F6FF473A404FF62C
:10538000FF7707EA03373A434FF6FF7707EA052727
:105390003A43114FB8420ED0104FB8420BD0B0F183
:1053A000804F08D00E4FB84205D00E4FB84202D001
:1053B0000D4FB84206D14FF6DF77394046F010075F
:1053C000394305E04FF65F77394044F01007394321
:1053D00002830184F0BD0000002C01400034014034
:1053E0000004004000080040000C0040F0B50C46EE
:1053F0001546002200210026078C4FF6FF6C07EAB5
:105400000C070784828B018C4FF6FF7707EA04268E
:105410004FF60C773A404FF6FF7707EA03172F4312
:105420003A43114FB8420ED0104FB8420BD0B0F1F2
:10543000804F08D00E4FB84205D00E4FB84202D070
:105440000D4FB84206D14FF6FF57394046F48077EA
:10545000394305E04FF2FF57394044F48077394330
:1054600082830184F0BD0000002C01400034014023
:105470000004004000080040000C0040F0B50C465D
:105480001546002200210026078C4EF6FF7C07EA15
:105490000C070784828B018C4FF6FF7707EA0436EE
:1054A00040F6FF473A404FF6FF7707EA05273A43B1
:1054B0004FF6FF7707EA03373A43114FB8420ED051
:1054C000104FB8420BD0B0F1804F08D00E4FB84209
:1054D00005D00E4FB84202D00D4FB84206D14DF65E
:1054E000FF77394046F48057394305E047F6FF57C8
:1054F000394044F48057394382830184F0BD000071
:10550000002C01400034014000040040000800402D
:10551000000C00407FB505460C460121C802FFF78C
:1055200031FCADF80850ADF804400020ADF80A0099
:10553000ADF8060001A90D4800F0F8FB0122114664
:105540000A4800F03FFA19208DF8000001208DF87C
:1055500001008DF802008DF803006846FFF784F91A
:105560000121024800F0B1F97FBD0000002C01408C
:1055700010B501210C4800F0BDF9A0B100200B4985
:1055800008600121084800F09DF901F05BFA01F084
:1055900055FA01F05BFAFDF72FFEFDF7AFFE012093
:1055A0000349C1F8B40110BD002C0140B4012242EE
:1055B0000000224230B585B005460C46012102208C
:1055C000FFF7C0FB01210420FFF7DCFBC020ADF892
:1055D000100028208DF8130004A93748FDF72AFF92
:1055E000C0213548FDF7FAFF0320ADF81000282050
:1055F0008DF8130004A93148FDF71CFF03212F4843
:10560000FDF7ECFFADF80850ADF804400020ADF810
:105610000A00ADF8060001A9294800F087FB002028
:10562000284908804880012088800020C88008819F
:10563000234800F071F904202249088000204880A6
:10564000012088800020C88008811D4800F064F98E
:1056500008201C4908800020488001208880002004
:10566000C8800881164800F057F90C2015490880B9
:1056700000204880012088800020C88008811048D0
:1056800000F04AF91D208DF8000000208DF801007F
:105690008DF8020001208DF803006846FFF7E4F85A
:1056A00001221F21064800F08DF90121044800F075
:1056B0000CF905B030BD000000080140000C0140AD
:1056C000000400405009002010B54D48007800F05B
:1056D000800060BB02214B4800F00CF938B3484809
:1056E000007800F0400078B14548007840F0800034
:1056F00043490870434800F0F4F84349088000210A
:10570000404800F0B5F912E000203D4908703E49DC
:10571000088000213B4800F0DAFA3948007840F070
:105720004000374908700221364800F0A1F9374897
:10573000007800F0800060BB0421324800F0DAF805
:1057400038B33248007800F0400078B12F48007834
:1057500040F080002D4908702A4800F0C5F82C4917
:1057600008800021274800F0E7F912E000202749CF
:105770000870274908800021224800F0A8FA234831
:10578000007840F040002149087002211D4800F0D7
:10579000D3F92048007800F0800060BB0821194848
:1057A00000F0A8F838B31B48007800F0400078B14A
:1057B0001848007840F0800016490870114800F041
:1057C00096F81549088000210E4800F01FFA12E0F3
:1057D000002010490870104908800021094800F095
:1057E00076FA0C48007840F040000A49087002211F
:1057F000044800F00BFA0F21024800F063F810BDD6
:10580000BA01002000040040BC010020BE010020BD
:10581000C0010020C2010020C401002010B50121F8
:10582000094800F067F868B10848008840F4004073
:10583000064908800121044800F044F8002102488C
:1058400000F043F810BD000000080040B80100203F
:105850007FB505460C4601210420FFF773FAADF829
:105860000450ADF800400020ADF80600ADF802008D
:1058700069460D4800F05AFA012211460A4800F024
:10588000A1F80121084800F020F81E208DF80C0036
:1058900002208DF80D008DF80E0001208DF80F000C
:1058A00003A8FEF7E1FF7FBD0008004021B1028898
:1058B00042F08002028004E002884FF67F731A40B3
:1058C00002807047CA430282704721B1028842F0C9
:1058D0000102028004E002884FF6FE731A40028043
:1058E00070470146888E70470146088F7047014611
:1058F000888F704730B50246002000230024158AA7
:1059000005EA0103958905EA010413B10CB10120F0
:1059100000E0002030BD000070B505460C4624486C
:1059200085420ED0234885420BD0B5F1804F08D078
:105930002148854205D02148854202D02048854231
:1059400000D100E000BF208850B92389A288618877
:105950002846FFF7BFFCE188284600F0BAF925E0A9
:10596000208804280AD12389A28861882846FFF765
:10597000F1FCE188284600F0B5F917E020880828F6
:105980000AD12389A28861882846FFF72FFDE18884
:10599000284600F0B4F909E02389A28861882846E6
:1059A000FFF76CFDE188284600F0B2F970BD0000F9
:1059B000002C014000340140000400400008004079
:1059C000000C00401AB183890B43838102E0838974
:1059D0008B4383817047000070B5002400220023B0
:1059E000058C4FF6FE7635400584028C8388048B47
:1059F0004FF68F752C40B51E2C400D882C43751E1C
:105A00002A400D892A434D882A43144DA8420BD0C1
:105A1000134DA84208D0134DA84205D0124DA842FC
:105A200002D0124DA84213D14FF6F7752A404D8986
:105A30002A434FF6FB752A408D882A434FF6FF65AF
:105A40002B404FF6FF552B408D892B43CD892B439F
:105A500083800483CD888586028470BD002C01403C
:105A60000034014000400140004401400048014032
:105A70000A460021018C4FF6FD7319401143018441
:105A800070470A460021018B4FF6F7731940114306
:105A90000183704770B5002400220023058C4FF667
:105AA000EF7635400584028C8388048B48F6FF75B9
:105AB0002C404FF6FF452C400D884FF6FF7606EA46
:105AC00005252C434FF6DF752A400D8906EA05159A
:105AD0002A434D8806EA05152A43154DA84202D0EF
