:10000000F85F002011040000B13F0000B13F000084
:10001000B13F0000B13F0000B13F0000B13F000020
:10002000B13F0000B13F0000B13F0000B13F000010
:10003000B13F0000B13F0000B13F0000B13F000000
:10004000B13F0000B13F0000B13F0000B13F0000F0
:10040000FFFFFFFFFFFFFFFFFFFFFFFFFEFFFFFFFD
:1004100062B603F09BFCFEE7F8B50125042000F06E
:10042000D1FB082000F0EEFB00F0FBFCE1214902CB
:10043000002001F035F801F021F9BD4C0023220025
:100440000021012001F0B7FB00232200012101203F
:1004500001F0B1FBB74BC8220021002001F0ABFB3B
:100460000022B549022001F039FC0022002147207A
:1004700001F078FCB14801F0A1FCB1A7B1A4B24EE3
:10048000042000F00EFC002800D095E3032000F0CB
:1004900008FC00280FD1062D01D00C2D01D100F051
:1004A0006AFC6D1CEDB2052D00DB0125032000F078
:1004B000F8FB0028FAD0022000F0F3FB00280FD14F
:1004C000012D01D0072D01D100F055FC6D1EEDB2BC
:1004D000002D00D10425022000F0E3FB0028FAD013
:1004E000072DBB4A00DBF9E10021002000F0FEFCF3
:1004F000B84A0221062000F0F9FCB74A0321062081
:1005000000F0F4FCB54A0421062000F0EFFCB44AE8
:100510000521062000F0EAFCB24A0621062000F080
:10052000E5FCB04A0721062000F0E0FC3268022119
:10053000402000F048FFB2680321402000F066FF31
:1005400072680421402000F03EFFA048006801F0DE
:10055000F7FC02000521402000F0F8FE681E052887
:100560008ED802A14000095E8F4400BF0C009E009F
:100570003001E0019C0206033A000221002000F055
:10058000B5FC22000321002000F0B0FC2200042171
:10059000002000F0ABFC22000521002000F0A6FCAA
:1005A00022000621002000F0A1FC220007210020EB
:1005B00000F09CFC012000F074FB00280ED1306894
:1005C00001F0DAFC8CA20CCA01F0EFFC01F0C1FDD5
:1005D0003060012000F065FB0028FAD0002000F018
:1005E00060FB002800D04BE7306801F0C5FC84A216
:1005F0000CCA01F0DAFC01F0ACFD3060002000F024
:1006000050FB002800D03BE7F8E722000221002041
:1006100000F06CFC3A000321002000F067FC22008F
:100620000421002000F062FC22000521002000F0DF
:100630005DFC22000621002000F058FC220007216A
:10064000002000F053FC012000F02BFB00280ED10D
:10065000B06801F091FC64A20CCA01F0A6FC01F0A4
:1006600078FDB060012000F01CFB0028FAD00020CB
:1006700000F017FB002800D002E7B06801F07CFC16
:100680005BA20CCA01F091FC01F063FDB060002098
:1006900000F007FB002800D0F2E6F8E72200022174
:1006A000002000F023FC22000321002000F01EFCAB
:1006B0003A000421002000F019FC2200052100204E
:1006C00000F014FC22000621002000F00FFC2200A4
:1006D0000721002000F00AFC012000F0E2FA0028C7
:1006E0000ED1706801F048FC43A20CCA01F05DFC19
:1006F00001F02FFD7060012000F0D3FA0028FAD03D
:10070000002000F0CEFA002800D0B9E6706801F0B1
:1007100033FC3BA20CCA01F048FC01F01AFD7060EA
:10072000002000F0BEFA002800D0A9E6F8E700BFDC
:1007300010270000CA3A0000FFFF00002CE4FF1F52
:100740003E0000002000000010E4FF1F22000221F4
:10075000002000F0CBFB22000321002000F0C6FBAC
:1007600022000421002000F0C1FB3A0005210020F6
:1007700000F0BCFB22000621002000F0B7FB2200A5
:100780000721002000F0B2FB012000F08AFA0028C7
:1007900009D10E48006832300C490860012000F091
:1007A00080FA0028FAD0002000F07BFA002800D060
:1007B00066E606480068323804490860002000F008
:1007C00070FA002800D05BE6F8E700BF60FBFF1F6F
:1007D000E83E0000003F0000083F0000103F00001E
:1007E000183F0000203F00007B14AE47E17A843FB1
:1007F0007B14AE47E17A84BF9A9999999999B93F48
:100800009A9999999999B9BF22000221002000F084
:100810006DFB22000321002000F068FB2200042170
:10082000002000F063FB22000521002000F05EFBA9
:100830003A000621002000F059FB22000721002089
:1008400000F054FB012000F02CFA002804D1012014
:1008500000F027FA0028FAD0002000F022FA002841
:1008600000D00DE6002000F01CFA002800D007E6BA
:10087000F8E722000221002000F038FB22000321CB
:10088000002000F033FB22000421002000F02EFBAA
:1008900022000521002000F029FB22000621002073
:1008A00000F024FB3A000721002000F01FFB01208C
:1008B00000F0F7F9002804D1012000F0F2F9002837
:1008C000FAD0002000F0EDF9002800D0D8E5002093
:1008D00000F0E7F9002800D0D2E5F8E70021002079
:1008E00000F004FBB6A20221062000F0FFFAB4A239
:1008F0000321062000F0FAFAB1A20421062000F03C
:10090000F5FAAFA20521062000F0F0FAACA206210C
:10091000062000F0EBFAAAA20721062000F0E6FA72
:10092000E81F052800D9ABE501A14000095E8F440E
:100930000A007400DE004801B2011C023A000221E4
:10094000002000F0D3FA22000321002000F0CEFAAC
:1009500022000421002000F0C9FA22000521002015
:1009600000F0C4FA22000621002000F0BFFA2200A5
:100970000721002000F0BAFA012000F092F90028C7
:1009800004D1012000F08DF90028FAD0002000F0F9
:1009900088F9002800D073E5002000F082F90028D3
:1009A00000D06DE5F8E722000221002000F09EFA59
:1009B0003A000321002000F099FA220004210020CF
:1009C00000F094FA22000521002000F08FFA2200A6
:1009D0000621002000F08AFA22000721002000F002
:1009E00085FA012000F05DF9002804D1012000F013
:1009F00058F90028FAD0002000F053F9002800D060
:100A00003EE5002000F04DF9002800D038E5F8E779
:100A100022000221002000F069FA220003210020B8
:100A200000F064FA3A000421002000F05FFA22008E
:100A30000521002000F05AFA22000621002000F0D3
:100A400055FA22000721002000F050FA012000F0A2
:100A500028F9002804D1012000F023F90028FAD059
:100A6000002000F01EF9002800D009E5002000F069
:100A700018F9002800D003E5F8E722000221002041
:100A800000F034FA22000321002000F02FFA2200A7
:100A90000421002000F02AFA3A000521002000F08D
:100AA00025FA22000621002000F020FA220007216A
:100AB000002000F01BFA012000F0F3F8002804D118
:100AC000012000F0EEF80028FAD0002000F0E9F84C
:100AD000002800D0D4E4002000F0E3F8002800D083
:100AE000CEE4F8E722000221002000F0FFF9220006
:100AF0000321002000F0FAF922000421002000F078
:100B0000F5F922000521002000F0F0F93A00062155
:100B1000002000F0EBF922000721002000F0E6F9A8
:100B2000012000F0BEF8002804D1012000F0B9F83F
:100B30000028FAD0002000F0B4F8002800D09FE48C
:100B4000002000F0AEF8002800D099E4F8E7220079
:100B50000221002000F0CAF922000321002000F049
:100B6000C5F922000421002000F0C0F9220005216F
:100B7000002000F0BBF922000621002000F0B6F9A9
:100B80003A000721002000F0B1F9012000F089F8B7
:100B9000002804D1012000F084F80028FAD00020B9
:100BA00000F07FF8002800D06AE4002000F079F817
:100BB000002800D064E4F8E7002000F0DCF8F1BD84
:100BC0003A00000010B50E4C042803DA012201217E
:100BD000205C11E001220121E07801F0C3F801223C
:100BE0000121A07801F0BEF801220121607801F016
:100BF000B9F801220121207801F0B4F810BD0000FD
:100C00003CE7FF1F10B5304C082801DA24183EE0FD
:100C100001220021E07901F0A5F80321E07901F03B
:100C2000E1FA01220021A07901F09CF80321A079CA
:100C300001F0D8FA01220021607901F093F8032134
:100C4000607901F0CFFA01220021207901F08AF8C1
:100C50000321207901F0C6FA01220021E07801F099
:100C600081F80321E07801F0BDFA01220021A0788B
:100C700001F078F80321A07801F0B4FA01220021F4
:100C8000607801F06FF80321607801F0ABFA01227F
:100C90000021207801F066F80321207801F0A2FA03
:100CA00010BD10B508490C18207801F079F800281B
:100CB00007D10A2001F0BCFA207801F071F8002871
:100CC00000D0012010BD000028E7FF1F80B50122E1
:100CD0000121992001F046F8012201219D2001F017
:100CE00041F8012201219E2001F03CF8012201215E
:100CF0009F2001F037F800220121982001F032F8FE
:100D000001BDF0B476490B68802292051A4304E0D5
:100D1000F0B473490B68734A1A400A6052005208D3
:100D20000A600825704AD34380246D1E0E68204255
:100D300001D01E4300E016400E600F688026360684
:100D40003E430E60760076080E604000002DECD128
:100D5000F0BC704710B5040008005038C0B2FFF76F
:100D6000D7FF210910200843FFF7D2FF2107090F01
:100D70000120084342E079B582B00020694608703E
:100D8000574C684600785038C0B2FFF7C1FF0120C9
:100D9000FFF7BEFF1020FFF7BBFF802080216A46CF
:100DA000127A256883052B4323605B005B08236070
:100DB00008235B1E2568024202D0C6052E4301E0CF
:100DC000494E2E402660266880252D063543256035
:100DD0006D006D0825605200002BEAD1491EDED15E
:100DE00068460078401C6946087068460078082804
:100DF000C7DB04B070BDFFF78BFF2000FFF788FF53
:100E000010BD10B50400D320F5E710B50400D520BF
:100E1000F1E710B50400D920EDE710B50400DB20A0
:100E2000E9E710B5FFF752FF2D4C2168802000063E
:100E3000084320605649014021603220C046C04628
:100E400020688021890401432160AE20FFF760FF04
:100E50008020FFF7DAFFA820FFF75AFF3F20FFF7B7
:100E600057FF0020FFF7CDFF4020FFF751FF8D20F7
:100E7000FFF74EFF1420FFF74BFF2020FFF748FF3E
:100E80000220FFF745FFA120FFF742FFC820FFF730
:100E90003FFFDA20FFF73CFF1220FFF739FF8120E8
:100EA000FFF736FFCF20FFF733FFF120FFF7B1FF49
:100EB0004020FFF7B2FFA420FFF72AFFA620FFF78C
:100EC00027FFAF20FFF724FF0020FFF754FFB020DB
:100ED000FFF71EFF1020FFF71BFF01208EE7000029
:100EE00000F10F40FFFFFFDFFFFFFFBF77B581B0CD
:100EF000002069460870274C19E0274E2E402660D6
:100F0000266880252D06354325606D006D08256017
:100F10004000002B32D1491C521E25D16846007971
:100F2000801D6946087168460078401C0870039867
:100F300009784556002D29D0203DEDB2684600794C
:100F40007F2806DB0020694608716846007A401C4D
:100F500008726846017A0079FFF7FCFE0FA069006D
:100F600049194900411806220878256880239B0505
:100F70002B4323605B005B08236008235B1E25680E
:100F80000606BAD58026F6052E43B8E704B070BD34
:100F9000FFFFFFFD00F10F40FFFFFFBF000000005B
:100FA00000000000002F00000000070007000014F0
:100FB0007F147F1400242A7F2A12006264081323FE
:100FC00000364955225000000503000000001C2295
:100FD0004100000041221C000014083E08140008D3
:100FE000083E0808000000A0600000080808080883
:100FF000000060600000002010080402003E51491B
:10100000453E0000427F40000042615149460021B8
:1010100041454B31001814127F10002745454539D2
:10102000003C4A494930000171090503003649492D
:10103000493600064949291E0000363600000000E6
:101040005636000000081422410000141414141431
:1010500000004122140800020151090600324959DA
:10106000513E007C1211127C007F49494936003EF6
:1010700041414122007F4141221C007F49494941B1
:10108000007F09090901003E4149497A007F0808AB
:10109000087F0000417F4100002040413F01007F68
:1010A00008142241007F40404040007F020C027F34
:1010B000007F0408107F003E4141413E007F090946
:1010C0000906003E4151215E007F0919294600466C
:1010D000494949310001017F0101003F4040403F43
:1010E000001F2040201F003F4038403F006314088D
:1010F0001463000708700807006151494543000068
:101100007F41410000552A552A55000041417F008A
:10111000000402010204004040404040000001027F
:101120000400002054545478007F48444438003868
:101130004444442000384444487F003854545418F0
:1011400000087E0901020018A4A4A47C007F080402
:1011500004780000447D4000004080847D00007FD2
:10116000102844000000417F4000007C04180478EF
:10117000007C0804047800384444443800FC2424EB
:1011800024180018242418FC007C080404080048D3
:101190005454542000043F444020003C4040207CF4
:1011A000001C2040201C003C4030403C00442810E3
:1011B0002844001CA0A0A07C004464544C44141497
:1011C00014141414F6B583B00700002000905E4C90
:1011D00020E00098401CC0B200906846017B3800B7
:1011E000FFF7B8FD102610250020FFF78AFD6D1EC1
:1011F000FAD16846017B491CC9B23800FFF7AAFD45
:101200000020FFF77EFD761EFAD10E370098801C75
:10121000C0B20090049800994018019000214056F7
:10122000002866D00020012500E0801CC0B201002B
:1012300031A252181678802E0EDBB446019B002690
:101240009B579C45F1D15278019B5B579A42ECD158
:10125000C800451A6D042D0CFFB2772F05DB00275F
:101260006846007B401C694608736846017B38006D
:10127000FFF770FD012DACD06846017B3800FFF709
:1012800069FD0E207BA1495D2368802292051A43E7
:1012900022605200520822600822521E23680E0665
:1012A00003D58026F6051E4301E06F4E1E402660E2
:1012B000266880231B06334323605B005B082360A2
:1012C0004900002AE9D16D1CADB2401EDAD1684652
:1012D000017B491CC9B23800FFF73CFD0E2600BF58
:1012E00064A0405DFFF70DFD6D1CADB2761E8CD085
:1012F000F5E705B0F0BD00000000F7B504000027D9
:1013000000256E460BE048787070B7706A466846F4
:101310000179E0B2FFF756FF0E34AD1CEDB2029832
:1013200041190020085600280CD07F283070EAD0E0
:1013300077706A4668460179E0B2FFF7D7FD083456
:101340006D1CEBE703B0F0BD00F10F4079B582B042
:101350000C00100000F088FF06006D4602D420202B
:10136000287003E02D202870704206003000FA211A
:10137000890000F0ACFF0A2100F0A9FF303169704C
:101380003000642100F0A3FF0A2100F0A0FF3031FB
:10139000A97030000A2100F09AFF0A2100F097FF9F
:1013A0003031E97030000A2100F091FF30312971AD
:1013B00000206871FFE76A4621006846007AFFF75F
:1013C00095FD04B070BDB9B582B00C00110027487E
:1013D00000F0D7FF00F048FF85B26F4628000A21D1
:1013E00000F075FF303038702E20787028000A2108
:1013F00000F06DFF3031B9700020F8706A462100AE
:101400006846007AFFF772FD04B0B0BD53B583B0F3
:101410001100174800F0B5FF00F026FF84B26E46B9
:101420002000642100F053FF303030702E207070A7
:101430002000642100F04BFF08000A2100F047FF64
:101440003030B07020000A2100F041FF3031F170DF
:10145000002030716A466846017C007BFFF746FD3C
:1014600005B050BD00000000FFFFFFBF000020419D
:101470000000C842000030B4012100220368001DB2
:10148000002B0BD00468001D0C4202D04D466D1E8F
:1014900064192260241D1B1FF0D0FAE730BC70478E
:1014A000F2B584B005006C480290002D03D0022DE7
:1014B0004BD010D358E06948016B020D0A43026318
:1014C000C026B60031000F2000F074FE31000E205F
:1014D00000F070FE4AE06148016BC20C0A430263EF
:1014E000C026B6003100432000F064FE31004420E5
:1014F00000F060FE5A48A90045182868C178F32218
:101500000A40C27000202968887056480068FA2195
:10151000890048430499090100F0DCFE84B2802070
:101520008001844200DB441E28680178E0220A40E2
:10153000E104C90E11430170286844702868C1781D
:101540000C220A43C27005B0F0BD4448016B8022F2
:1015500052010A430263C026B6003100622000F047
:1015600029FE31006320C3E7002DC3D13B48016849
:101570003D4A0A40026001683C4A0A4302603C4D11
:10158000E878F3210140E9700020A870394800682C
:1015900039494843C10F08184010019004260198AA
:1015A0000499721C514300F095FE87B239008020E7
:1015B0008001814236DA701C03900198039A5143EE
:1015C00000F088FE0499411A012902DB0499401AAF
:1015D00000E0484280B200281CD00299884202DA1A
:1015E00002903C0000967F1CBFB239008020800131
:1015F000814217DA0198039A514300F06BFE049977
:10160000411A012902DB0499401A00E0484280B2E5
:10161000002802D13C00009608E00299884201DAD5
:101620003C000096761CF6B2212EB8DB2878E0212B
:101630001F22084023041B0E134003432B706C70C1
:10164000A87A0140009802400A43AA72E8780C2167
:101650000143E97077E70000FFFF000004800440C9
:10166000F8E6FF1F7CFBFF1FFFFFFFF300000104F4
:1016700000A0064070FBFF1F40420F0038B5B14B81
:1016800000220121012000F024FF002201218520F9
:1016900000F068FB00220021522000F063FBAA4901
:1016A000522000F09FFDA94D286820218843286022
:1016B0000321232000F036F84021252000F032F8E5
:1016C0000F21262000F02EF80121212000F02AF819
:1016D0000121222000F026F89D4C0522210018311E
:1016E0002A2000F02DF82021312000F01BF8FF21E6
:1016F000E22000F017F8052210342100302000F01D
:101700001FF80F21242000F00DF8FF21E12000F048
:1017100009F800F069F8286820210143296000F0E9
:1017200021F832BD1CB501AC207061700220009020
:1017300001AB01AA0121012000F01EFF207816BD97
:1017400001B584B003920120029000200190009125
:1017500004AB04AA0121012000F044FF6846007C8C
:1017600005B000BD00B587B005A800BF1CA10CC91D
:101770000CC03020694608740520039001200290B7
:101780000020019005A80090002304AA0121012057
:1017900000F028FF102069460874052003900120FE
:1017A000029005A8019000200090002304AA0121C6
:1017B000012000F017FF05A80178C22901D0002000
:1017C0000CE04178C229FAD18178C229F7D1C178D9
:1017D000C229F4D10079C228F1D1012007B000BD9F
:1017E000C2C2C2C2C2000000F0B587B0574F38680D
:1017F00020218843386005A821210170012401219E
:1018000041700220009005AB05AA012000F0B4FE53
:1018100004A8801C2221017044700220009004ABB7
:101820009B1C04AA921C0121012000F0A5FE2A2085
:1018300069460874464E05200390029400200190EA
:1018400030001830009004AB04AA0121012000F000
:10185000C9FE202502A805700F21417002200090CA
:1018600002AB02AA0121012000F086FE01A8801C23
:1018700027210170FF2444700220009001AB9B1CC3
:1018800001AA921C0121012000F076FE01A8E221AC
:10189000017044700220009001AB01AA01210120D7
:1018A00000F06AFE386805433D600220307007B0E2
:1018B000F0BD70B586B0254E306820218843306079
:1018C000302069464874224C052003900120029084
:1018D0000020019020001030009004AB5B1C04AA93
:1018E000521C0121012000F07DFE2A206946087467
:1018F0000520039001200290002001902000183064
:10190000009004AB04AA0121012000F06BFE202509
:1019100001A805700E2141700220009001AB01AAC0
:101920000121012000F028FE3068054335600120C8
:101930002070724800900098411E00910028FAD152
:1019400006B070BD20BCBE0003000A0000F10F40CD
:1019500040E7FF1F38B50500674800220271002DDF
:101960001DD000291BD08268002A18D1491E4909C0
:10197000C16085600078012801D0FFF79AFF614CB3
:10198000206820218843206020222900A020FFF722
:10199000D7FE2068202101432160012032BD0020B4
:1019A00032BD59488168002909D1C168002906D192
:1019B0000079002801D001207047022070470020E4
:1019C0007047F0B585B001ACA41C07202070022040
:1019D000009001AB9B1C01AA921C0121012000F088
:1019E000CBFD677801A82721017047700220009085
:1019F00001AB01AA0121012000F0BEFD3E4C78069A
:101A00003DD5404D2868202188432860E078022891
:101A100024D0A07861216A4611742021039101210C
:101A2000029137494001081801900020009004AB52
:101A300004AA0121012000F0D5FDA078401CA0706F
:101A4000A078502801DB0020A0706078A178814246
:101A500001D1022000E00120E0700CE001A8E221A9
:101A60000170FF2141700220009001AB01AA012109
:101A7000012000F081FD28682021014329602026F3
:101A8000374220D0E068002806D1A06020780228E4
:101A900019D0FFF7A9FE16E02078012801D0FFF742
:101AA00008FFA0682030A060E068401EE060154D8F
:101AB0002868B04328602022A168A020FFF740FEDC
:101AC000286806432E60F80613D50120207101A86E
:101AD000E1210170FF2141700220009001AB01AAB9
:101AE0000121012000F048FD0020A060E060FFF728
:101AF0007BFE05B0F0BD000040E7FF1FFF0F0000B8
:101B000080FBFF1F00F10F4040E7FF1F80B500285A
:101B100003D002283CD028D301BD68480268802346
:101B20005B041343036005290AD801A0405C874485
:101B30000410182028308021C900602000F03AFBF2
:101B400001BDC02189009920F8E7C02189009D20AE
:101B5000F4E7C02189009E20F0E7C02189009F2082
:101B6000ECE7C02189009A20E8E754480268802306
:101B70009B0413430360002902D0012904D001BD56
:101B8000C02189002020D9E7C02189002120D5E784
:101B90004A4802688023DB0413430360002902D013
:101BA000012904D001BDC02189000120C6E7C02160
:101BB00089000220C2E7F7B51D00694604200956D6
:101BC0006A4600201056FFF7A1FF3D4800683D49D6
:101BD00048434710380C029900F07CFB80B2002685
:101BE00000E0761C0100F1400129FADAF7403800E4
:101BF000029900F06FFB87B2694600200856002862
:101C000003D002280BD005D310E0781C45432800F0
:101C10002D4908E0781C454328002C4903E0781C36
:101C200045432800642100F055FB040028486A461B
:101C3000002151568900405804215156C9004118CD
:101C4000CA6804239A43CA602822CA60214A1368DA
:101C5000214D1D401560136880256D041D431560DE
:101C60007207520F0823134303608760A4B20C610C
:101C70000021416003B0F0BD30B503000C0010003E
:101C8000134A9D005559AA68002AFCD0002B03D0A6
:101C9000022B09D004D30DE0521C50430A4906E040
:101CA000521C5043094902E0521C5043642100F089
:101CB00011FB0100E0002818016130BD3C800440A8
:101CC00070FBFF1F40420F0050C3000010270000B0
:101CD000ECE6FF1F04800440FFFFFFFC70B504002A
:101CE0000D0016001B48017880220A4302701A4832
:101CF000016801220A430260012C03D1C021C900FE
:101D0000132004E0022C04D1C0218900452000F0FA
:101D100051FA124800210160232242608560012EA1
:101D200000D10821220130231340194343220A43E2
:101D3000026070BD0A4800210160006880B27047EF
:101D40000648016801229143016001680A4302606C
:101D500070470000005006403880044000000440F6
:101D60000C00044038B5144B4409A4001B5901244D
:101D7000C506ED0EAC400029596902D1A143596155
:101D800009E021435961002A196802D1A143196071
:101D900001E00C431C608021490000F00BFA31BDCA
:101DA00005494209920089580969C006C00EC14020
:101DB000C807C00F7047000084E6FF1F7CB5544E73
:101DC0007060544D002469460C7000F084FC802142
:101DD000122000F067FD0028F4D0322000F028FA2D
:101DE0000B220121684600F082FD0028EAD06846F7
:101DF00000782128E6D109E06000281841780078B1
:101E000000F050FD0028DDD0641CA4B26420285CE2
:101E10008442F1DB9620800001900120009007238E
:101E200072683D49002000F055FE3C4801784906A3
:101E3000490E01703A4801684900490801600120D3
:101E4000384908608007384908603849072000F0A1
:101E5000B1F93749062000F0ADF9002076BD30B465
:101E6000314A8020C0052A490023CB56042B21D1BA
:101E700003230B7010602F4A936884091C439460FD
:101E800096239B009360244B136049685160802126
:101E9000224B1C78802525431D70D3681843D060E1
:101EA00025480160D06809060143D16001201D4921
:101EB000086002E010600220087030BC70471F48C4
:101EC00041684900490841600121164A1160104AE1
:101ED00011700168802252040A430260704770B496
:101EE0000B4804210170144A0023DB4313600D4C9E
:101EF0000D0705E000268657022E02D101701360FF
:101F0000256000268657012EF4D170BC7047000072
:101F100060E7FF1F68E7FF1F12F10F40001002404B
:101F20000C81004000E100E080E100E002010200DD
:101F30001201090000810040A09004400881004087
:101F40009D2102000AD5F446524200F007F8012212
:101F5000D2071043604700009D2102000AD002D43E
:101F6000491E9218FCD5C905100A1206524100D329
:101F7000012A484170470000012212060118CA4296
:101F80000AD28A420DD83822120609098918C20FCE
:101F9000D20711434007704700D04908090901439F
:101FA00001E0C10FC90700207047F0B40125ED071B
:101FB0000F005F404FD48B4200D1824205D9844646
:101FC000100062468C4619006346DF184C18640DF9
:101FD0007F0D3AD0661C760537D0E61B352E34DCF3
:101FE000DB022B43DB0A0C0DC9022943C912202E48
:101FF0000DDB1700203E06D01F00F741F3405F4085
:102000000026012A7741C01871410DD217E0170050
:10201000F741F2405740F3415A40B340F3405A4031
:102020000026801859410AD3A21C52050FD0C207BE
:10203000012F724117004008CB0718434908641C60
:1020400024054208AF4170416141F0BC7047641CF7
:1020500021050020F9E76B400AE06B40ABE7F7424F
:10206000F3D1E943F1E72442EFD100200021ECE76E
:102070000C00871A9C4105D2C01BA141D2196341B3
:1020800069406B40AE0ADF184C18F442E7D2640D89
:102090007F0DE8D0E61B362ED7DCDB022B43DB0AB4
:1020A000A4460C0DC9022943C90A012E28DC04D11B
:1020B000D6075208DF073A435B08EF0A76429041A1
:1020C000994114D039423BD1B61940414941761C5F
:1020D000394204D1761C001849413942FAD0B9433B
:1020E0006746B74208D9A41B24052143ADE7004247
:1020F000EAD13642E8D1A8E7E40AE1070020A4E7E4
:10210000202E0BDD203E1F00F340F7415F40012AE7
:10211000002257417E42984191410BE01700F74160
:10212000F2405740F3415A40B340F3405A407E4298
:10213000904199410A0303D2641EB61940414941B6
:102140000027641E24054208AE4178416141F0BC7D
:102150007047012252054B18DA4201D958157047D1
:102160005B0D0722D2019B1A10D9FF2B1DD2DB0574
:102170000122D2070A4013430903020D1143490A01
:10218000C200524100D9491CC81870470AD1800AC0
:102190000A0302435212921C04D9D3070B40D00504
:1021A00018437047C80FC0077047C80F0002FF30C0
:1021B000C005704730B41B4A1368540D4509AC4044
:1021C0001C431460184A43099B00D2581F23012462
:1021D0001F250540AC40A0255451034098001150E4
:1021E00030BC704730B40F4A1368540D4509AC40F9
:1021F0001C4314600C4A43099B00D2581F2301243E
:102200001F250540AC40A0255451034098001018EC
:102210000268064B0B40E021C900114019430160E0
:1022200030BC704738800440D0E6FF1FFFF8FFFF46
:1022300070B4802149020522094B0A4C002600286F
:102240000BD0401E2568002DF9D01E605D609E6099
:102250001A601D680D40F2D1FBE770BC70470000AA
:1022600010E000E074FBFF1F0122D2070118090EE5
:102270007F3910D449421F310FD4001805D2C00154
:102280001043C84000D5D0437047C0011043C84038
:1022900005D440427047002070470042F3D510003B
:1022A0007047F446002804D4494200F013F8404235
:1022B00060474042002905D45FD000F00BF840424F
:1022C00049426047494200F005F8494260470346E9
:1022D0000B43E6D40022030A8B420BD203098B4244
:1022E00019D243088B422ED2411A00D201465241E4
:1022F00010467047FF2209023FD012068B4205D3D9
:10230000121209028B4201D31212090203098B42F5
:1023100019D300E0090AC3098B4201D3CB01C01ACB
:10232000524183098B4201D38B01C01A52414309A8
:102330008B4201D34B01C01A524103098B4201D396
:102340000B01C01A5241C3088B4201D3CB00C01A03
:10235000524183088B4201D38B00C01A524143087B
:102360008B4201D34B00C01A5241884200D3401A1D
:102370005241CFD201461046704708B5C046C0460C
:1023800008BD30B405004D400122D20715404B185E
:102390000418240E30D01B0E34D0FF2C36D0FF2B67
:1023A0003CD0E4180002090210431143000A090A54
:1023B0009446C2B24A43000AC3B24B43000A4843A0
:1023C000110A5B18190A12061B0C1A43120A091883
:1023D00001D44918641E080A7F3C23DBFE2C08DA6E
:1023E000E40509061143634699416041284330BC26
:1023F0007047FF20C005F9E728001B0EFF2BF6D120
:10240000D043F4E72800FF2CF1D1F9E74002F7D1DF
:10241000FF2B01D14902F3D1E005E7E7D8054902D6
:10242000E4D0EDE743020020641CDFD15B129B1C6B
:10243000DCD9D805DAE70000F2B585B09A4A830006
:10244000D2580492002500240022D2430092002892
:1024500001D1964802E0012805D195480068FA218B
:102460008900484301900227AF40019805997943BC
:10247000FFF730FF0600082E1BD201987743390082
:10248000FFF728FF0599421A00D552421300009F1A
:10249000BB4205D200930295741E0390002B0CD012
:1024A000009A934205D200930295741E0390002B6C
:1024B00003D06D1CEDB2092DD5DB02980007000F8B
:1024C000210170220A40024304984270039806B02A
:1024D000F0BDF9B581B00C0017006946042008561C
:1024E000714982008D58002818D1724801688022F5
:1024F000D2030A430260460D31006120FFF75AFE05
:1025000031006220FFF756FE31006320FFF752FED4
:10251000E0071FD501220121602019E0012819D10F
:1025200064480168802212040A430260460D3100AB
:102530008220FFF73FFE31008120FFF73BFE310094
:102540008320FFF737FEE00704D501220121842014
:10255000FFF708FC0020002F09D15021E970A87076
:1025600002996A4604201056FFF766FF02E04021F8
:10257000E970A87003B0F0BDFDB44B486C46002272
:10258000A2569200805800220478802400E08579C9
:1025900005782542FBD16E46B556002D0AD0012D97
:1025A00006D1012904D1444D2E6C1027BE432E6460
:1025B000079D08E00129FBD13F4D2E680127BE434E
:1025C0002E60F5E7521CAA420BD20678019EB65C3B
:1025D000867106782642FCD0002B8679F2D09E5474
:1025E000F0E748E0FDB430486C460022A256920065
:1025F000805800240278802200E085790578154211
:10260000FBD16E463557002D0AD0012D06D1012988
:1026100004D1294D2E6C1027BE432E64099D08E07D
:102620000129FBD1244D2E680127BE432E60F5E71A
:10263000641CAC420BD20678019E365D867106782A
:102640001642FCD0002B8679F2D01E55F0E70A9E88
:10265000002E10D0079B089C250007781F788771F3
:1026600007781742FCD0002C877900D02F706D1CA2
:102670005B1C761EF1D16A4600201056002809D056
:1026800001280DD101290BD10B4D286C10210143DC
:10269000296405E0012903D1074D28680143296019
:1026A00003B0F0BC70470000E4E6FF1F7CFBFF1F97
:1026B00074FBFF1F34800440C0F00F4081B06946B6
:1026C000088074486B46694609880A181A800029F0
:1026D000F9D101B0704780B5012201211120FFF727
:1026E00041FB012201211020FFF73CFB4321112077
:1026F000FFF778FD43211020FFF774FD01BDF8B40A
:102700008020400264490A6802430A604300134380
:102710000B60C8235B006A461380421E6E466C46FF
:102720002488A5183580002CF9D15C4C4D692540D2
:102730004D616D462B806F466D462D88AE183E80EC
:10274000002DF9D101250E69360C2E4016D04E69A8
:1027500006434E610E6834400C606C4623806E4622
:102760006B461B889C183480002BF9D10A684C4BAF
:1027700013400B600A69120C154004D04A691043DB
:102780004861002000E00120F2BC704738B5424C9F
:102790002168434808402060CA4901402160C8259B
:1027A0006D002800FFF78AFF20688021890201431D
:1027B00021602800FFF782FF206880214902014341
:1027C00021602800FFF77AFF31BD78B434483249E0
:1027D0000A6802400A604A69304B13404B61C822C4
:1027E00052006B461A80B84B6E466C462488E5183A
:1027F0003580002CF9D10C68C54325430D606C462B
:1028000022806D466A461288D4182C80002AF9D19D
:102810004B69802252021A430B69DC03E40F4A61C0
:102820000A6803D010400860002002E010400860F1
:10283000012072BC7047F8B408241649C82252001F
:10284000154B6F46641E1D68060602D54E1C2E43AE
:1028500001E0124E2E401E6040006D462A806D46FB
:102860002D886E183E80002DF9D11D688026B60295
:102870002E431E606D462A806D462D886E183E8060
:10288000002DF9D11D68064E2E401E60002CD9D1B6
:10289000F1BC7047FFFF000000F00F40FFFFFEFF9C
:1028A000FFFFFDFF70B505000C000026FFF727FFB6
:1028B000002808D04220FFF7BEFFFFF786FF002860
:1028C00007D1FFF763FF761CF6B2142EEED100207D
:1028D00070BDE8B2FFF7AFFFFFF777FF2000FFF70B
:1028E000AAFFFFF772FFFFF751FF012070BDF8B597
:1028F00005000F0016001E2432003900280000F0E9
:1029000007F8002802D1641EF6D1F2BD0120F2BD05
:10291000F3B581B01400FFF7F2FE002800D18EE07D
:102920004220FFF788FFFFF750FF002800D184E026
:102930002000FFF780FFFFF748FFFFF727FFFFF7B3
:10294000DEFE00287BD04320FFF775FFFFF73DFF39
:10295000002872D068460089002800D1ADE05A48AE
:10296000C8214900594A6F46082300245569554E2D
:102970002E4056615B1E64001568554E2E40166051
:102980006D4629806D462D882E183E80002DF9D188
:1029900015688026B6022E4316606D4629806D4666
:1029A0002D882E183E80002DF9D101251669360C90
:1029B0002E4046D1002BDDD15369451C1D43556186
:1029C0001368434D1D401560019B1C701468404BFB
:1029D00023406C462489012C13606B4619806D4698
:1029E00033D16B461B881C182C80002BF9D113683F
:1029F000441C1C4314606B4619806B461B881C18D2
:102A00002C80002BF9D113688024A4021C4314608D
:102A10006B4619806B461B881C182C80002BF9D143
:102A200013682B4C1C4014606B4619806B461B8846
:102A30001C182C80002B33D0F8E7FFF7A7FE0020EE
:102A40003EE0260001243443B4E76B461B881C1883
:102A50002C80002BF9D113681A4C1C4014606B4673
:102A600019806B461B881C182C80002BF9D1136829
:102A70008024A4021C4314606B4619806B461B889B
:102A80001C182C80002BF9D11368114C1C401460C9
:102A90006B4619806B461B881C182C80002BF9D1C3
:102AA000019B5B1C01936B461B891B186C462381A1
:102AB0006B461B89002B00D056E7FFF767FE01200D
:102AC00003B0F0BDFFFFFEFFFFFF000000F00F406E
:102AD000FFFFFDFFF8B50C006B46182159560B009F
:102AE000012901D1082507E0022904D0002901D1DC
:102AF000042300E00023DD00284B5E689F0D374370
:102B00005F601E68022737431F60254B1F18002394
:102B10003B70244B000118188368802676041E43FE
:102B20008660046042600B05C02292031A404B0489
:102B3000C021C902194011431B4A0A43C2600799C8
:102B40000902090A81606846007840093130802115
:102B500001433970154968460078FFF72BFBA0093F
:102B60004001103CE10044186019461EF6B2E4B280
:102B7000A6420ED381256D00002200212000FFF720
:102B8000F1F829002000FFF715FB641CE4B2A6420F
:102B9000F2D238784006400E3870F1BD3C800440D7
:102BA0000010024000810040800008600001010028
:102BB00070B58EB0FDF730FC684800680101091857
:102BC000002000F017FA6649262000F038FA654C1C
:102BD0008020C003206064492F2000F030FA80205C
:102BE0000006206000F034FA60492E2000F027FA39
:102BF0005F49102000F023FA5E4800780007000FBC
:102C00000090FFF7A9F9020000213020FEF79EFB9B
:102C100050A200210020FEF770FB57480D90574846
:102C20000C9057480B9057480A90574809905748BE
:102C300008905748079057480690574805905748BE
:102C4000049057480390AB480290012401ADFFF770
:102C500046F9A948C14901AAA84B1E8816809622A8
:102C600092000378401CDE09AE5D0E709E0926407E
:102C7000AE5D4E705E092640AE5D8E701E09264028
:102C8000AE5DCE70DE082640AE5D0E719E08264019
:102C9000AE5D4E715E082640AE5D8E712340EB5CEA
:102CA000CB710831521EDCD102980078002813D075
:102CB0000398007800280FD00498007800280BD0E3
:102CC00005980078002807D006980078002803D0DF
:102CD0000798007800281AD108980078002813D0A7
:102CE0000998007800280FD00A98007800280BD0A7
:102CF0000B980078002807D00C980078002803D0A3
:102D00000D980078002802D100209549087000F045
:102D1000ABF900F060FB9248C168406800F03EFBF0
:102D2000009908468A10520F5118C910C900401A5C
:102D3000042801DA00F036F8009908464A10920F8C
:102D4000511889108900401A022800DB7FE700F043
:102D5000D7F87CE76D6F64653A0000007CFBFF1FCD
:102D6000652F000000E100E0992F0000BD2F00005A
:102D7000E92F000090F00F40FCF7FF1F9CF8FF1FA9
:102D80003CF9FF1FDCF9FF1F7CFAFF1F1CFBFF1F34
:102D900024F8FF1FC4F8FF1F64F9FF1F04FAFF1F88
:102DA000A4FAFF1FF0B5A3B08A4800214656F6B238
:102DB000202709AC7CE00A5C303223185A70401C92
:102DC000C0B2502800DA85E0512027545220275401
:102DD0005520275456202754592027545A20275429
:102DE0005D2027545E2027546120275462202754F9
:102DF0000A20632160547048805D00900A21FFF72B
:102E000066FA30305321605400980A21FFF75FFAC8
:102E100030315420215401980A21FFF758FA3030FC
:102E20005721605401980A21FFF751FA3031582098
:102E300021545F48855D28000A21FFF748FA3030A9
:102E40005B21605428000A21FFF741FA30315C20F1
:102E5000215430000A21FFF73AFA30305F216054E4
:102E600030000A21FFF733FA303160202154002569
:102E70001920694608720020192169430A18A25CCA
:102E800002AB1B185A70401C1928F7DB1A2102A844
:102E9000FEF760FD012803D1FEF783FD0028FBD07B
:102EA0000220FFF7C5F96D1C042DE1DB761CF6B29C
:102EB0003C2E1CDA3E20207000203D498D5D3E49AD
:102EC000895D00913B49895D01912449B2009219C5
:102ED00012018918019A904201D12A226DE7009AC5
:102EE000904202D0A84200D065E7232265E723B0D4
:102EF000F0BD000044FBFF1F2CE4FF1FF02F00007B
:102F0000F0B583B003246D466C700326F643AE70B3
:102F1000314800684110890F08188010E870104F80
:102F2000B8681821FFF7D3F9287178681821FFF7DE
:102F3000CEF96871AE71EC710720287008216846DF
:102F4000FEF708FD012803D1FEF72BFD0028FBD07A
:102F50000220FFF76DF903B0F0BD000098E8FF1FF5
:102F60001CE4FF1F10B51D4C2068012813D1472019
:102F7000FEF716FF002802D1FEF7DCFE03E0FEF7A5
:102F8000D9FE0100484214490860FEF7D9FE2068C6
:102F900001210143216010BD8020C00210490A6850
:102FA000024000D1704780B50860FEF70AFD01BD00
:102FB00058E8FF1FE0E7FF1F1CE8FF1F09480168F2
:102FC0000022D2430260480600D4704780B5FEF765
:102FD00046FF01BDD2E7FF1F94E8FF1F0C710340BD
:102FE000A0B00440A090044080B5FEF768FF01BD8A
:102FF0000100000010B40D4A1368802424041C430F
:10300000146000220A4B1A600A4A00011018491E77
:103010000160C16801220A43C260816801229143B4
:1030200081600321816010BC704700003C80044037
:103030000070034000710340034908607047034A71
:10304000800011507047000008ED00E000E0FF1F15
:1030500004482021C1608160D02149004160C03115
:103060000160704780050020F0B585B02820002160
:103070006B461971A54BD97019713B211970A44C7D
:10308000A44DA5490291A54903910399C0B209181D
:10309000049104990978012900D0FAE00600049906
:1030A00000E0761E491EF6B2002E02D00A78002AF1
:1030B000F7D16946A2780A70A1796A4651702179E0
:1030C000127852186B465B78D21A921BD21D0B2ACB
:1030D00023D38E4A1278362A1FDA6A46127851189C
:1030E000CE1AF6B2502E00DB4F26039989190A78C2
:1030F000002A0BD1012200E0521C491C834B1B7893
:1031000057B2BB4202DB0B78012BF5D16946097837
:103110008919CA0F5118491061700100049A00E022
:10312000491C521CC9B24F2902DA1378002BF7D17F
:10313000764A51705778A978AA796B465A702A79DD
:103140001A706A4612788A185B78D21AD21BD21C7F
:103150000B2A13D36D4A1278362A0FDA6A46127890
:103160008A186B465B78D71AFFB2502F00DB4F27C7
:10317000C919491CCA0F511849106970002E52D044
:103180004F2F1AD003988019401E0078002845D090
:103190000398C0194078002840D0029881780079BF
:1031A0000818029A9279801AC0B24118CA0F5118B1
:1031B0004910029A51704F2F07D154490978362986
:1031C00003DAF019C10F0818401026702F70029909
:1031D00008704E4903228956002909D121782829EF
:1031E00002DA2978282903DA48490978474AD17050
:1031F00046490978491E454A1170039A503A03928C
:10320000029A521E02926D1E641E090600D03CE70F
:10321000684600793D49887005B0F0BDF019C10FCE
:1032200008184010C7E74F2F2ED138480179009178
:103230003C2036490978FFF74AF8009908183349C5
:1032400008710878362819DA601E0078062808DB2D
:10325000A07841000818A179401AC10F0818C605C6
:10326000360E681E00784A2808DAA8784100081847
:10327000A979401AC10F0818C7053F0EF019C10FF0
:1032800008184010002E96D14F2F9ED0F80FC0196D
:103290009AE71E48007869460871B9E730B50023FF
:1032A000002803D002281DD00ED328E00800824257
:1032B00025D3374C241825785B199BB2401C641C1D
:1032C000C0B282421BD3F6E70800824217D3314CCA
:1032D000241825785B199BB2401C641CC0B2824242
:1032E0000DD3F6E70800824209D32B4C2418257829
:1032F0005B199BB2401C641CC0B28242F7D218001A
:10330000511A491CFEF7E3FFC0B230BDD0E7FF1FE2
:1033100057E8FF1F93E8FF1F1BE8FF1F08FBFF1F75
:1033200070B400201B4C21002A310A7A0A34237819
:1033300095005D1909788E007118691A00D5494207
:103340000B2922DA59005500AD184919257EAE0027
:103350007519491B00D549420B2916DA5900C918BD
:1033600055004919257CAE007519491B00D5494205
:103370000B290ADA99008918227A93009A18891A77
:1033800000D549420B2900DA012070BC70470000CB
:103390001CE8FF1FE0E7FF1F58E8FF1F38B50500D6
:1033A0000C00002D06D4002200210120FEF764FC51
:1033B0002A0005E06A4200210120FEF75DFC0022A0
:1033C00001210120FEF758FC584822180021002056
:1033D000FEF752FC31BDF0B583B0554F554E306805
:1033E0004100081840003860FFF79AFF012812D109
:1033F00051490868514A904201DA193000E0100042
:103400000860152213210120FFF748FF28386321A7
:10341000C94348433EE04A4800214056494982009A
:1034200012189200891A182819DA434801603B22C1
:1034300039210120FFF732FF22221F210120FFF74F
:103440002DFF28380101441AA40010220D2101206B
:10345000FFF724FF283881000818000119E0E12057
:10346000C000814200DA0100334801603B2238216C
:103470000120FFF713FF0400283C1320C0434443FE
:103480001D221A210120FFF709FF28380101081A1F
:10349000C000201A2C4DA84201DB681E03E02B4916
:1034A000884200DA08002A4C2060002800D54042FB
:1034B00021490968274A1268891800919621C90094
:1034C000081A0721FEF703FF00990B182248036032
:1034D00022480078002811D0FA20400102902048AC
:1034E0000190386800901F4802681F4801681F4813
:1034F000006800F043F8FEF7B7FE03E030680921EA
:10350000C94348431A49086020681A4942000B68B9
:10351000D21A0860AA4201DB6A1E03E00B498A4204
:1035200000DA0A001448026003B0F0BDCA3A000095
:1035300058FBFF1F94E8FF1F24E4FF1FB80B000097
:10354000D3E7FF1F98080000F10A000010F5FFFF05
:1035500064FBFF1F60FBFF1F5CFBFF1F1CE4FF1FE2
:10356000C0E0FFFF14E4FF1F18E4FF1F10E4FF1F7B
:1035700020E4FF1F68FBFF1F28E4FF1FFEB50600C5
:103580000F000898C01AFEF7DBFC0400274D2C60E2
:1035900030002100FEF7F5FE686038002100FEF7DC
:1035A000F0FEA96800F046F80600E969A869FEF790
:1035B000E8FE0100300000F075F81D4900F0CAF87F
:1035C00000D8481EA8600298FEF7BAFC06000198D1
:1035D0003100FEF7D6FE0700EF603000696800F0AA
:1035E00061F8A96800F05EF8390000F023F80600E1
:1035F0002E610A98FEF7A4FC0200310000F0BEF82C
:1036000009D30998FEF79CFC02003000110000F07D
:10361000B5F800D332006A6117463800310000F077
:1036200041F8A8612C62380003B0F0BD04E7FF1F29
:103630000100FA440122D20703004B402ED4431A62
:1036400001D2C01AC91830B44B180418240E1B0E2E
:1036500022D0FF2C20D0E31A182B1DDC09021143C5
:10366000C40D641E0002104394461925ED1A0A0089
:10367000AA40D940451801D36D08A41CE405D2091D
:10368000280A2D062A436546AA41604103181B0EED
:10369000FF2B01D3C00DC00530BC7047514006E080
:1036A0005140CCE70122D20703004B40F8D4431A23
:1036B00003D2C01AC9185040514030B44B18090207
:1036C00011430418240E1B0E40D0FF2C3AD02500C5
:1036D0009D410BD31ED8C50D4002401A0BD3ED05FA
:1036E0000100400AC90591416841D5E7C50D400276
:1036F0004918401AD0D001214008491C0018FCD5B7
:103700008C4204D36D1A000AED054019C4E7E805A0
:103710001040C1E7182DBFDCAC1C0D00E140E541B5
:103720004D40012D4941C40D00021043451A01D4FA
:103730006D199543641EE405280A2D0695416041E4
:1037400030BC7047FF2BA7D1D843A5E72442A3D1B3
:103750000020A1E70CB4012212060318DA4207D8B0
:103760004B18DA4204D802000A43921802D281426E
:103770000CBC7047FCD088420CBC70470CB40122D2
:1037800012060318DA4207D84B18DA4204D80200AE
:103790000A43921802D288420CBC7047FCD0814286
:1037A000FAE700000000C040000000400000003FB9
:1037B0000100000000000000000000000000000008
:1037C00000000000000000000000000000000000F9
:1037D00000000000000000000000000000000000E9
:1037E00000000000000000000000000000000000D9
:1037F00000000000000000000000000000000000C9
:103A1000000000000000000000F00FF840F00FF878
:103A200080F00FF8C0F00FF800F10FF800000A1D49
:103A30003000030040000200420003094400030A72
:103A400048000203500002066000010080000218D6
:103A50008800010A9400010DC800011ADC00011F52
:103A6000000100000090044000A0044000B00440A9
:103A700000C0044000D004400060074000700740D0
:103A8000008003400090034000A0034000A00640D7
:103A900000B0064000C0064000000000000000002A
:103AA0000000000000000000000000000000000016
:103AB000000000000000A040000000000C0D0E0FF0
:103AC00040414243000000000000000000000000F0
:103AD0006465666700000000000000000000000050
:103AE00000000000FFFFFFFFFF000000FFFFFFFFDF
:103AF000FF00000001000000000000000DC11100E7
:103B000009030CD01240173F185019031A783200DD
:103B1000A00A63E0ACFF650C6600670029142C1E48
:103B20002A007E0C7F16802A814E8261836F847BFF
:103B30008586868E879788A489AF8AC58BD78CE8BF
:103B40008D204A00491347084B144C17460522990B
:103B50002303A6049B009C40AB069E119F0200001D
:103B600031000000020074489100405A521E0C2A95
:103B700000D3704710B5652801DA002146E0C92856
:103B800001DA012142E0FF222E32904201DA0221C5
:103B90003CE06432904201DA032137E06432904223
:103BA00001DA042132E06432904201DA05212DE08D
:103BB0006432904201DA062128E06432904201DA50
:103BC000072123E06432904201DA08211EE06432CA
:103BD000904201DA092119E06432904201DA0A21A7
:103BE00014E06432904201DA0B210FE0643290421B
:103BF00001DA0C210AE06432904201DA0D2105E07D
:103C00006432904201DA0E2100E00F214B4C21700A
:103C10002178491CFEF75BFB81B2292901DA0020DB
:103C200042E0512901DA01203EE0792901DA02203F
:103C30003AE0A12901DA032036E0C92901DA04209B
:103C400032E0F12901DA05202EE0FF201A3081420E
:103C500001DA062028E02830814201DA072023E03B
:103C60002830814201DA08201EE02830814201DA42
:103C7000092019E02830814201DA0A2014E02830B6
:103C8000814201DA0B200FE02830814201DA0C205A
:103C90000AE02830814201DA0D2005E02830814217
:103CA00001DA0E2000E00F20607010BD70B5040036
:103CB000FFF758FF2248416B420D0A4342631F49F8
:103CC0000A78120749780904E023DB020B4013430A
:103CD000036481211B4A11701B4924224A70BA22B5
:103CE0000A7010228B791342FCD10C228B7913407D
:103CF000082BFAD1104BA4001B191F259C782C40CF
:103D00000C714024DE78354025434D7120258E7995
:103D10002E42FCD08D792542FCD002240C708C7987
:103D200014400C2CFBD10168802252020A4302602D
:103D30001888C0B270BD000098E6FF1FCCE6FF1FD8
:103D400004800440005006400040064080B500F06A
:103D500069F800F02BF800F003F8FEF729FFFEE702
:103D600038B5082022490A78024202D00A78104366
:103D70000870204C0B20FFF799FF20601E4D29682A
:103D8000090F491CFEF7A6FAA060FA2189004843F2
:103D9000606029684903490F491CFEF79BFAE060FF
:103DA000E12149020020FDF77BFB31BD10B513492D
:103DB000134C8C4204D08222D200200000F054F830
:103DC0002000FFF739F90F490F48421A02D00F4877
:103DD00000F036F80E480F49091A01D000F080F8BB
:103DE0000D490E48421A02D00D4800F029F810BDC6
:103DF00002D0074070FBFF1F448004400000000019
:103E000000E0FF1FA4370000643B000010E4FF1F28
:103E1000D0E7FF1F900500201004000010040000F0
:103E20009005002005480168034A116001680C22D2
:103E300091430160704700006CFBFF1F008104404C
:103E4000124207D08B0706D00B78491C0370401C28
:103E5000521EF7D87047830706D00B78491C0370B1
:103E6000401C521EF9D1704770B4103A03D378C980
:103E7000103A78C0FBD2530701D318C918C001D536
:103E800008C908C0D20704D30B880380891C801C92
:103E9000002A01D50B78037070BC7047094205D029
:103EA000830705D00270401C491EF9D170470000FD
:103EB000130030B414001500103902D310393CC07F
:103EC000FCD2490700D30CC000D504C0890002D33E
:103ED0000280801C002900D5027030BC70470000B1
:103EE0000022DBE70022E3E72020202A2A2020739B
:103EF000657474696E6720202A2A20202000000043
:103F00006B702020203A00006B692020203A0000CE
:103F10006B642020203A000073705F616A3A0000F1
:103F200020202020203A000010B50749794418319C
:103F3000064C7C44163404E0081D0A68891888473A
:103F40000100A142F8D110BD0800000014000000DB
:103F500027D5FFFFC01D0000D0E7FF1F00000000B5
:103F60000120C046002801D0FFF7DEFF0020C04638
:103F7000C046FEF71DFE00F000F880B500F002F824
:103F800001BD00000746384600F002F8FBE70000DC
:103F900080B5C046C046024A11001820ABBEFBE700
:103FA00026000200C046C046C046C046FFF7D8FF04
:023FB000704758
:0400000500003FA513
:00000001FF
